{
    "abi": [
        {
            "type": "function",
            "name": "getPricesD18",
            "inputs": [
                {
                    "name": "vault",
                    "type": "address",
                    "internalType": "contract Vault"
                },
                {
                    "name": "totalAssets",
                    "type": "uint256",
                    "internalType": "uint256"
                },
                {
                    "name": "assetPrices",
                    "type": "tuple[]",
                    "internalType": "struct OracleHelper.AssetPrice[]",
                    "components": [
                        {
                            "name": "asset",
                            "type": "address",
                            "internalType": "address"
                        },
                        {
                            "name": "priceD18",
                            "type": "uint256",
                            "internalType": "uint256"
                        }
                    ]
                }
            ],
            "outputs": [
                {
                    "name": "pricesD18",
                    "type": "uint256[]",
                    "internalType": "uint256[]"
                }
            ],
            "stateMutability": "view"
        }
    ],
    "bytecode": {
        "object": "0x6080604052348015600e575f80fd5b506110858061001c5f395ff3fe608060405234801561000f575f80fd5b5060043610610029575f3560e01c80634ba01e681461002d575b5f80fd5b61004061003b366004610e6c565b610056565b60405161004d9190610ef1565b60405180910390f35b60605f198267ffffffffffffffff81111561007357610073610f34565b60405190808252806020026020018201604052801561009c578160200160208202803683370190505b5091505f5b8381101561020857805f108015610122575084846100c0600184610f5c565b8181106100cf576100cf610f75565b6100e59260206040909202019081019150610f89565b6001600160a01b031685858381811061010057610100610f75565b6101169260206040909202019081019150610f89565b6001600160a01b031611155b1561017e5760405162461bcd60e51b815260206004820152602160248201527f4f7261636c6548656c7065723a20696e76616c6964206173736574206f7264656044820152603960f91b60648201526084015b60405180910390fd5b84848281811061019057610190610f75565b905060400201602001355f03610200575f198210156101fc5760405162461bcd60e51b815260206004820152602260248201527f4f7261636c6548656c7065723a206d756c7469706c6520626173652061737365604482015261747360f01b6064820152608401610175565b8091505b6001016100a1565b505f866001600160a01b031663d0fb02036040518163ffffffff1660e01b8152600401602060405180830381865afa158015610246573d5f803e3d5ffd5b505050506040513d601f19601f8201168201806040525081019061026a9190610fa4565b90505f876001600160a01b031663a0aead4d6040518163ffffffff1660e01b8152600401602060405180830381865afa1580156102a9573d5f803e3d5ffd5b505050506040513d601f19601f820116820180604052508101906102cd9190610fbf565b90505f5b818110156106c55760405163aa9239f560e01b8152600481018290525f906001600160a01b038b169063aa9239f590602401602060405180830381865afa15801561031e573d5f803e3d5ffd5b505050506040513d601f19601f820116820180604052508101906103429190610fa4565b6040516352278ab760e01b81526001600160a01b0380831660048301529192505f918c16906352278ab790602401602060405180830381865afa15801561038b573d5f803e3d5ffd5b505050506040513d601f19601f820116820180604052508101906103af9190610fbf565b90503689895f8181106103c4576103c4610f75565b90506040020190505f5b8981101561043d57836001600160a01b03168b8b838181106103f2576103f2610f75565b6104089260206040909202019081019150610f89565b6001600160a01b031603610435578a8a8281811061042857610428610f75565b905060400201915061043d565b6001016103ce565b506001600160a01b0383166104556020830183610f89565b6001600160a01b0316146104ab5760405162461bcd60e51b815260206004820152601d60248201527f4f7261636c6548656c7065723a206173736574206e6f7420666f756e640000006044820152606401610175565b5f5b828110156106b557604051632e4724d760e21b81526001600160a01b038581166004830152602482018390525f91908f169063b91c935c90604401602060405180830381865afa158015610503573d5f803e3d5ffd5b505050506040513d601f19601f820116820180604052508101906105279190610fa4565b6040516392e6ece560e01b81526001600160a01b038083166004830152919250908f16906392e6ece590602401602060405180830381865afa15801561056f573d5f803e3d5ffd5b505050506040513d601f19601f820116820180604052508101906105939190610fd6565b806105f95750806001600160a01b031663c2f218966040518163ffffffff1660e01b8152600401602060405180830381865afa1580156105d5573d5f803e3d5ffd5b505050506040513d601f19601f820116820180604052508101906105f99190610fd6565b1561060457506106ad565b5f816001600160a01b0316631865c57d6040518163ffffffff1660e01b8152600401608060405180830381865afa158015610641573d5f803e3d5ffd5b505050506040513d601f19601f820116820180604052508101906106659190610ff5565b509250505083602001355f036106865761067f818f610f5c565b9d506106aa565b61069d818560200135670de0b6b3a7640000610837565b6106a7908f610f5c565b9d505b50505b6001016104ad565b5050600190920191506102d19050565b50506106fa87828787868181106106de576106de610f75565b6106f49260206040909202019081019150610f89565b896108e8565b83838151811061070c5761070c610f75565b6020026020010181815250505f5b8481101561082c5782811461078f5761077084848151811061073e5761073e610f75565b602002602001015187878481811061075857610758610f75565b90506040020160200135670de0b6b3a7640000610837565b84828151811061078257610782610f75565b6020026020010181815250505b6001600160e01b0380168482815181106107ab576107ab610f75565b602002602001015111806107d757508381815181106107cc576107cc610f75565b60200260200101515f145b156108245760405162461bcd60e51b815260206004820152601b60248201527f4f7261636c6548656c7065723a20696e76616c696420707269636500000000006044820152606401610175565b60010161071a565b505050949350505050565b5f805f6108448686610d11565b91509150815f036108685783818161085e5761085e611028565b04925050506108e1565b81841161087f5761087f6003851502601118610d2d565b5f848688095f868103871696879004966002600389028118808a02820302808a02820302808a02820302808a02820302808a02820302808a02909103029181900381900460010185841190960395909502919093039390930492909217029150505b9392505050565b5f80856001600160a01b0316635c60173d6040518163ffffffff1660e01b8152600401602060405180830381865afa158015610926573d5f803e3d5ffd5b505050506040513d601f19601f8201168201806040525081019061094a9190610fa4565b6001600160a01b0316633a98ef396040518163ffffffff1660e01b8152600401602060405180830381865afa158015610985573d5f803e3d5ffd5b505050506040513d601f19601f820116820180604052508101906109a99190610fbf565b90505f866001600160a01b0316635c60173d6040518163ffffffff1660e01b8152600401602060405180830381865afa1580156109e8573d5f803e3d5ffd5b505050506040513d601f19601f82011682018060405250810190610a0c9190610fa4565b6001600160a01b0316639d66201b876001600160a01b031663469048406040518163ffffffff1660e01b8152600401602060405180830381865afa158015610a56573d5f803e3d5ffd5b505050506040513d601f19601f82011682018060405250810190610a7a9190610fa4565b6040516001600160e01b031960e084901b1681526001600160a01b039091166004820152602401602060405180830381865afa158015610abc573d5f803e3d5ffd5b505050506040513d601f19601f82011682018060405250810190610ae09190610fbf565b604051634c033cf160e11b81526001600160a01b0389811660048301529192505f9188169063980679e290602401602060405180830381865afa158015610b29573d5f803e3d5ffd5b505050506040513d601f19601f82011682018060405250810190610b4d9190610fbf565b604051630cd9f5f560e11b81526001600160a01b038a811660048301529192505f918916906319b3ebea90602401602060405180830381865afa158015610b96573d5f803e3d5ffd5b505050506040513d601f19601f82011682018060405250810190610bba9190610fa4565b9050610c6d6001600160a01b03891663e0e193a28b8486610bdb898b610f5c565b6040516001600160e01b031960e087901b1681526001600160a01b03948516600482015293909216602484015260448301526064820152608401602060405180830381865afa158015610c30573d5f803e3d5ffd5b505050506040513d601f19601f82011682018060405250810190610c549190610fbf565b610c5e908661103c565b670de0b6b3a764000088610837565b94506001600160a01b03811615610d0557806001600160a01b0316876001600160a01b031614610cdf5760405162461bcd60e51b815260206004820181905260248201527f4f7261636c6548656c7065723a20696e76616c696420626173652061737365746044820152606401610175565b815f108015610ced57508185105b15610d0557610d02888a87858589898d610d3e565b94505b50505050949350505050565b5f805f1983850993909202808410938190039390930393915050565b634e487b715f52806020526024601cfd5b845f5b868811610e48576001610d54888a61103c565b901c90505f6001600160a01b038b1663e0e193a28b8985610d758a8c610f5c565b6040516001600160e01b031960e087901b1681526001600160a01b03948516600482015293909216602484015260448301526064820152608401602060405180830381865afa158015610dca573d5f803e3d5ffd5b505050506040513d601f19601f82011682018060405250810190610dee9190610fbf565b905081610e0d610dfe838961103c565b670de0b6b3a764000087610837565b11610e3457819250815f03610e225750610e48565b610e2d600183610f5c565b9750610e42565b610e3f82600161103c565b98505b50610d41565b5098975050505050505050565b6001600160a01b0381168114610e69575f80fd5b50565b5f805f8060608587031215610e7f575f80fd5b8435610e8a81610e55565b935060208501359250604085013567ffffffffffffffff80821115610ead575f80fd5b818701915087601f830112610ec0575f80fd5b813581811115610ece575f80fd5b8860208260061b8501011115610ee2575f80fd5b95989497505060200194505050565b602080825282518282018190525f9190848201906040850190845b81811015610f2857835183529284019291840191600101610f0c565b50909695505050505050565b634e487b7160e01b5f52604160045260245ffd5b634e487b7160e01b5f52601160045260245ffd5b81810381811115610f6f57610f6f610f48565b92915050565b634e487b7160e01b5f52603260045260245ffd5b5f60208284031215610f99575f80fd5b81356108e181610e55565b5f60208284031215610fb4575f80fd5b81516108e181610e55565b5f60208284031215610fcf575f80fd5b5051919050565b5f60208284031215610fe6575f80fd5b815180151581146108e1575f80fd5b5f805f8060808587031215611008575f80fd5b505082516020840151604085015160609095015191969095509092509050565b634e487b7160e01b5f52601260045260245ffd5b80820180821115610f6f57610f6f610f4856fea26469706673582212200c540034003e56d09e5f8aeb4b33e90718da74291f5f29fc1b137d19f547824f64736f6c63430008190033",
        "linkReferences": {}
    },
    "methodIdentifiers": {
        "getPricesD18(address,uint256,(address,uint256)[])": "4ba01e68"
    },
    "id": 154
}