{
    "abi": [
        {
            "type": "function",
            "name": "analyzeRequests",
            "inputs": [
                {
                    "name": "requests",
                    "type": "tuple[]",
                    "internalType": "struct IRedeemQueue.Request[]",
                    "components": [
                        {
                            "name": "timestamp",
                            "type": "uint256",
                            "internalType": "uint256"
                        },
                        {
                            "name": "shares",
                            "type": "uint256",
                            "internalType": "uint256"
                        },
                        {
                            "name": "isClaimable",
                            "type": "bool",
                            "internalType": "bool"
                        },
                        {
                            "name": "assets",
                            "type": "uint256",
                            "internalType": "uint256"
                        }
                    ]
                }
            ],
            "outputs": [
                {
                    "name": "assets",
                    "type": "uint256",
                    "internalType": "uint256"
                },
                {
                    "name": "shares",
                    "type": "uint256",
                    "internalType": "uint256"
                }
            ],
            "stateMutability": "pure"
        },
        {
            "type": "function",
            "name": "getPosition",
            "inputs": [
                {
                    "name": "vault",
                    "type": "address",
                    "internalType": "contract Vault"
                },
                {
                    "name": "oracleSubmitter",
                    "type": "address",
                    "internalType": "contract OracleSubmitter"
                },
                {
                    "name": "holder",
                    "type": "address",
                    "internalType": "address"
                }
            ],
            "outputs": [
                {
                    "name": "assets",
                    "type": "address[]",
                    "internalType": "address[]"
                },
                {
                    "name": "amounts",
                    "type": "uint256[]",
                    "internalType": "uint256[]"
                }
            ],
            "stateMutability": "view"
        }
    ],
    "bytecode": {
        "object": "0x6080604052348015600e575f80fd5b506110e28061001c5f395ff3fe608060405234801561000f575f80fd5b5060043610610034575f3560e01c8063713390f514610038578063d71beda414610062575b5f80fd5b61004b610046366004610b5d565b61008a565b604051610059929190610ba5565b60405180910390f35b610075610070366004610cc5565b6109a6565b60408051928352602083019190915201610059565b6060805f856001600160a01b0316635c60173d6040518163ffffffff1660e01b8152600401602060405180830381865afa1580156100ca573d5f803e3d5ffd5b505050506040513d601f19601f820116820180604052508101906100ee9190610d96565b604051633d7ad0b760e21b81526001600160a01b038681166004830152919091169063f5eb42dc90602401602060405180830381865afa158015610134573d5f803e3d5ffd5b505050506040513d601f19601f820116820180604052508101906101589190610db1565b90505f866001600160a01b0316637dc0d1d06040518163ffffffff1660e01b8152600401602060405180830381865afa158015610197573d5f803e3d5ffd5b505050506040513d601f19601f820116820180604052508101906101bb9190610d96565b9050806001600160a01b031663a80ce55c6040518163ffffffff1660e01b8152600401602060405180830381865afa1580156101f9573d5f803e3d5ffd5b505050506040513d601f19601f8201168201806040525081019061021d9190610db1565b67ffffffffffffffff81111561023557610235610c27565b60405190808252806020026020018201604052801561025e578160200160208202803683370190505b509350835167ffffffffffffffff81111561027b5761027b610c27565b6040519080825280602002602001820160405280156102a4578160200160208202803683370190505b5092505f5f1990505f886001600160a01b031663d0fb02036040518163ffffffff1660e01b8152600401602060405180830381865afa1580156102e9573d5f803e3d5ffd5b505050506040513d601f19601f8201168201806040525081019061030d9190610d96565b604051630cd9f5f560e11b81526001600160a01b038b8116600483015291909116906319b3ebea90602401602060405180830381865afa158015610353573d5f803e3d5ffd5b505050506040513d601f19601f820116820180604052508101906103779190610d96565b90505f5b8651811015610781576040516342c74b1960e01b8152600481018290525f906001600160a01b038616906342c74b1990602401602060405180830381865afa1580156103c9573d5f803e3d5ffd5b505050506040513d601f19601f820116820180604052508101906103ed9190610d96565b90508088838151811061040257610402610dc8565b6001600160a01b0392831660209182029290920101526040516352278ab760e01b815282821660048201525f918d16906352278ab790602401602060405180830381865afa158015610456573d5f803e3d5ffd5b505050506040513d601f19601f8201168201806040525081019061047a9190610db1565b90505f5b8181101561075957604051632e4724d760e21b81526001600160a01b038481166004830152602482018390525f91908f169063b91c935c90604401602060405180830381865afa1580156104d4573d5f803e3d5ffd5b505050506040513d601f19601f820116820180604052508101906104f89190610d96565b6040516392e6ece560e01b81526001600160a01b038083166004830152919250908f16906392e6ece590602401602060405180830381865afa158015610540573d5f803e3d5ffd5b505050506040513d601f19601f820116820180604052508101906105649190610ddc565b1561068957604051631e78b8c760e21b81526001600160a01b038d811660048301525f91908316906379e2e31c906024016040805180830381865afa1580156105af573d5f803e3d5ffd5b505050506040513d601f19601f820116820180604052508101906105d39190610df7565b915050805f036105e4575050610751565b604051638903ab9d60e01b81526001600160a01b038e81166004830152831690638903ab9d90602401602060405180830381865afa158015610628573d5f803e3d5ffd5b505050506040513d601f19601f8201168201806040525081019061064c9190610db1565b15610658575050610751565b808b878151811061066b5761066b610dc8565b6020026020010181815161067f9190610e2d565b90525061074f9050565b604051636a49acb960e11b81526001600160a01b038d811660048301525f602483018190525f196044840152919083169063d4935972906064015f60405180830381865afa1580156106dd573d5f803e3d5ffd5b505050506040513d5f823e601f3d908101601f191682016040526107049190810190610e46565b90505f80610711836109a6565b91509150818d898151811061072857610728610dc8565b6020026020010181815161073c9190610e2d565b905250610749818d610e2d565b9b505050505b505b60010161047e565b50836001600160a01b0316826001600160a01b031603610777578294505b505060010161037b565b50831561099a576001600160a01b03881661089c576040516351ded71f60e11b81526001600160a01b0382811660048301525f919085169063a3bdae3e90602401606060405180830381865afa1580156107dd573d5f803e3d5ffd5b505050506040513d601f19601f820116820180604052508101906108019190610f07565b905080604001511561084d5760405162461bcd60e51b815260206004820152601160248201527014dd5cdc1a58da5bdd5cc81c995c1bdc9d607a1b604482015260640160405180910390fd5b61086c85670de0b6b3a7640000835f01516001600160e01b0316610a68565b86848151811061087e5761087e610dc8565b602002602001018181516108929190610e2d565b90525061099a9050565b61097084896001600160a01b03166350d25bcd6040518163ffffffff1660e01b8152600401602060405180830381865afa1580156108dc573d5f803e3d5ffd5b505050506040513d601f19601f820116820180604052508101906109009190610db1565b8a6001600160a01b031663313ce5676040518163ffffffff1660e01b8152600401602060405180830381865afa15801561093c573d5f803e3d5ffd5b505050506040513d601f19601f820116820180604052508101906109609190610f8a565b61096b90600a61108a565b610a68565b85838151811061098257610982610dc8565b602002602001018181516109969190610e2d565b9052505b50505050935093915050565b5f805f5b8351811015610a62578381815181106109c5576109c5610dc8565b602002602001015160400151806109f957508381815181106109e9576109e9610dc8565b6020026020010151606001515f14155b15610a2e57838181518110610a1057610a10610dc8565b60200260200101516060015183610a279190610e2d565b9250610a5a565b838181518110610a4057610a40610dc8565b60200260200101516020015182610a579190610e2d565b91505b6001016109aa565b50915091565b5f805f610a758686610b19565b91509150815f03610a9957838181610a8f57610a8f611098565b0492505050610b12565b818411610ab057610ab06003851502601118610b35565b5f848688095f868103871696879004966002600389028118808a02820302808a02820302808a02820302808a02820302808a02820302808a02909103029181900381900460010185841190960395909502919093039390930492909217029150505b9392505050565b5f805f1983850993909202808410938190039390930393915050565b634e487b715f52806020526024601cfd5b6001600160a01b0381168114610b5a575f80fd5b50565b5f805f60608486031215610b6f575f80fd5b8335610b7a81610b46565b92506020840135610b8a81610b46565b91506040840135610b9a81610b46565b809150509250925092565b604080825283519082018190525f906020906060840190828701845b82811015610be65781516001600160a01b031684529284019290840190600101610bc1565b505050838103828501528451808252858301918301905f5b81811015610c1a57835183529284019291840191600101610bfe565b5090979650505050505050565b634e487b7160e01b5f52604160045260245ffd5b6040516080810167ffffffffffffffff81118282101715610c5e57610c5e610c27565b60405290565b604051601f8201601f1916810167ffffffffffffffff81118282101715610c8d57610c8d610c27565b604052919050565b5f67ffffffffffffffff821115610cae57610cae610c27565b5060051b60200190565b8015158114610b5a575f80fd5b5f6020808385031215610cd6575f80fd5b823567ffffffffffffffff811115610cec575f80fd5b8301601f81018513610cfc575f80fd5b8035610d0f610d0a82610c95565b610c64565b81815260079190911b82018301908381019087831115610d2d575f80fd5b928401925b82841015610d8b5760808489031215610d49575f80fd5b610d51610c3b565b843581528585013586820152604080860135610d6c81610cb8565b9082015260608581013590820152825260809093019290840190610d32565b979650505050505050565b5f60208284031215610da6575f80fd5b8151610b1281610b46565b5f60208284031215610dc1575f80fd5b5051919050565b634e487b7160e01b5f52603260045260245ffd5b5f60208284031215610dec575f80fd5b8151610b1281610cb8565b5f8060408385031215610e08575f80fd5b505080516020909101519092909150565b634e487b7160e01b5f52601160045260245ffd5b80820180821115610e4057610e40610e19565b92915050565b5f6020808385031215610e57575f80fd5b825167ffffffffffffffff811115610e6d575f80fd5b8301601f81018513610e7d575f80fd5b8051610e8b610d0a82610c95565b81815260079190911b82018301908381019087831115610ea9575f80fd5b928401925b82841015610d8b5760808489031215610ec5575f80fd5b610ecd610c3b565b845181528585015186820152604080860151610ee881610cb8565b9082015260608581015190820152825260809093019290840190610eae565b5f60608284031215610f17575f80fd5b6040516060810181811067ffffffffffffffff82111715610f3a57610f3a610c27565b60405282516001600160e01b0381168114610f53575f80fd5b8152602083015163ffffffff81168114610f6b575f80fd5b60208201526040830151610f7e81610cb8565b60408201529392505050565b5f60208284031215610f9a575f80fd5b815160ff81168114610b12575f80fd5b600181815b80851115610fe457815f1904821115610fca57610fca610e19565b80851615610fd757918102915b93841c9390800290610faf565b509250929050565b5f82610ffa57506001610e40565b8161100657505f610e40565b816001811461101c576002811461102657611042565b6001915050610e40565b60ff84111561103757611037610e19565b50506001821b610e40565b5060208310610133831016604e8410600b8410161715611065575081810a610e40565b61106f8383610faa565b805f190482111561108257611082610e19565b029392505050565b5f610b1260ff841683610fec565b634e487b7160e01b5f52601260045260245ffdfea2646970667358221220317fb21befa7df00d9dac18932deee1cb09e9b4e3a03a409c805542af23a998464736f6c63430008190033",
        "linkReferences": {}
    },
    "methodIdentifiers": {
        "analyzeRequests((uint256,uint256,bool,uint256)[])": "d71beda4",
        "getPosition(address,address,address)": "713390f5"
    },
    "id": 80
}