{
  "_format": "hh-sol-artifact-1",
  "contractName": "DlnDestination",
  "sourceName": "contracts/DLN/DlnDestination.sol",
  "abi": [
    {
      "inputs": [],
      "name": "AdminBadRole",
      "type": "error"
    },
    {
      "inputs": [
        {
          "internalType": "bytes",
          "name": "expectedBeneficiary",
          "type": "bytes"
        }
      ],
      "name": "AllowOnlyForBeneficiary",
      "type": "error"
    },
    {
      "inputs": [],
      "name": "CallProxyBadRole",
      "type": "error"
    },
    {
      "inputs": [],
      "name": "EthTransferFailed",
      "type": "error"
    },
    {
      "inputs": [],
      "name": "GovMonitoringBadRole",
      "type": "error"
    },
    {
      "inputs": [],
      "name": "IncorrectOrderStatus",
      "type": "error"
    },
    {
      "inputs": [],
      "name": "MismatchGiveChainId",
      "type": "error"
    },
    {
      "inputs": [],
      "name": "MismatchNativeTakerAmount",
      "type": "error"
    },
    {
      "inputs": [],
      "name": "MismatchTakerAmount",
      "type": "error"
    },
    {
      "inputs": [],
      "name": "MismatchedOrderId",
      "type": "error"
    },
    {
      "inputs": [],
      "name": "MismatchedTransferAmount",
      "type": "error"
    },
    {
      "inputs": [
        {
          "internalType": "bytes",
          "name": "nativeSender",
          "type": "bytes"
        },
        {
          "internalType": "uint256",
          "name": "chainIdFrom",
          "type": "uint256"
        }
      ],
      "name": "NativeSenderBadRole",
      "type": "error"
    },
    {
      "inputs": [],
      "name": "NotSupportedDstChain",
      "type": "error"
    },
    {
      "inputs": [],
      "name": "PermitFailure",
      "type": "error"
    },
    {
      "inputs": [],
      "name": "SignatureInvalidV",
      "type": "error"
    },
    {
      "inputs": [],
      "name": "TransferAmountNotCoverFees",
      "type": "error"
    },
    {
      "inputs": [],
      "name": "Unauthorized",
      "type": "error"
    },
    {
      "inputs": [],
      "name": "UnexpectedBatchSize",
      "type": "error"
    },
    {
      "inputs": [],
      "name": "UnknownEngine",
      "type": "error"
    },
    {
      "inputs": [],
      "name": "WrongAddressLength",
      "type": "error"
    },
    {
      "inputs": [],
      "name": "WrongArgument",
      "type": "error"
    },
    {
      "inputs": [],
      "name": "WrongArgumentLength",
      "type": "error"
    },
    {
      "inputs": [],
      "name": "WrongChain",
      "type": "error"
    },
    {
      "inputs": [],
      "name": "WrongExternalCallHash",
      "type": "error"
    },
    {
      "inputs": [],
      "name": "WrongToken",
      "type": "error"
    },
    {
      "inputs": [],
      "name": "ZeroAddress",
      "type": "error"
    },
    {
      "anonymous": false,
      "inputs": [
        {
          "indexed": false,
          "internalType": "bytes32",
          "name": "orderId",
          "type": "bytes32"
        },
        {
          "indexed": false,
          "internalType": "uint256",
          "name": "orderTakeFinalAmount",
          "type": "uint256"
        }
      ],
      "name": "DecreasedTakeAmount",
      "type": "event"
    },
    {
      "anonymous": false,
      "inputs": [
        {
          "indexed": false,
          "internalType": "address",
          "name": "oldAdapter",
          "type": "address"
        },
        {
          "indexed": false,
          "internalType": "address",
          "name": "newAdapter",
          "type": "address"
        }
      ],
      "name": "ExternalCallAdapterUpdated",
      "type": "event"
    },
    {
      "anonymous": false,
      "inputs": [
        {
          "components": [
            {
              "internalType": "uint64",
              "name": "makerOrderNonce",
              "type": "uint64"
            },
            {
              "internalType": "bytes",
              "name": "makerSrc",
              "type": "bytes"
            },
            {
              "internalType": "uint256",
              "name": "giveChainId",
              "type": "uint256"
            },
            {
              "internalType": "bytes",
              "name": "giveTokenAddress",
              "type": "bytes"
            },
            {
              "internalType": "uint256",
              "name": "giveAmount",
              "type": "uint256"
            },
            {
              "internalType": "uint256",
              "name": "takeChainId",
              "type": "uint256"
            },
            {
              "internalType": "bytes",
              "name": "takeTokenAddress",
              "type": "bytes"
            },
            {
              "internalType": "uint256",
              "name": "takeAmount",
              "type": "uint256"
            },
            {
              "internalType": "bytes",
              "name": "receiverDst",
              "type": "bytes"
            },
            {
              "internalType": "bytes",
              "name": "givePatchAuthoritySrc",
              "type": "bytes"
            },
            {
              "internalType": "bytes",
              "name": "orderAuthorityAddressDst",
              "type": "bytes"
            },
            {
              "internalType": "bytes",
              "name": "allowedTakerDst",
              "type": "bytes"
            },
            {
              "internalType": "bytes",
              "name": "allowedCancelBeneficiarySrc",
              "type": "bytes"
            },
            {
              "internalType": "bytes",
              "name": "externalCall",
              "type": "bytes"
            }
          ],
          "indexed": false,
          "internalType": "struct DlnOrderLib.Order",
          "name": "order",
          "type": "tuple"
        },
        {
          "indexed": false,
          "internalType": "bytes32",
          "name": "orderId",
          "type": "bytes32"
        },
        {
          "indexed": false,
          "internalType": "address",
          "name": "sender",
          "type": "address"
        },
        {
          "indexed": false,
          "internalType": "address",
          "name": "unlockAuthority",
          "type": "address"
        }
      ],
      "name": "FulfilledOrder",
      "type": "event"
    },
    {
      "anonymous": false,
      "inputs": [
        {
          "indexed": false,
          "internalType": "uint8",
          "name": "version",
          "type": "uint8"
        }
      ],
      "name": "Initialized",
      "type": "event"
    },
    {
      "anonymous": false,
      "inputs": [
        {
          "indexed": false,
          "internalType": "uint256",
          "name": "oldValue",
          "type": "uint256"
        },
        {
          "indexed": false,
          "internalType": "uint256",
          "name": "newValue",
          "type": "uint256"
        }
      ],
      "name": "MaxOrderCountPerBatchEvmUnlockChanged",
      "type": "event"
    },
    {
      "anonymous": false,
      "inputs": [
        {
          "indexed": false,
          "internalType": "uint256",
          "name": "oldValue",
          "type": "uint256"
        },
        {
          "indexed": false,
          "internalType": "uint256",
          "name": "newValue",
          "type": "uint256"
        }
      ],
      "name": "MaxOrderCountPerBatchSolanaUnlockChanged",
      "type": "event"
    },
    {
      "anonymous": false,
      "inputs": [
        {
          "indexed": false,
          "internalType": "address",
          "name": "account",
          "type": "address"
        }
      ],
      "name": "Paused",
      "type": "event"
    },
    {
      "anonymous": false,
      "inputs": [
        {
          "indexed": true,
          "internalType": "bytes32",
          "name": "role",
          "type": "bytes32"
        },
        {
          "indexed": true,
          "internalType": "bytes32",
          "name": "previousAdminRole",
          "type": "bytes32"
        },
        {
          "indexed": true,
          "internalType": "bytes32",
          "name": "newAdminRole",
          "type": "bytes32"
        }
      ],
      "name": "RoleAdminChanged",
      "type": "event"
    },
    {
      "anonymous": false,
      "inputs": [
        {
          "indexed": true,
          "internalType": "bytes32",
          "name": "role",
          "type": "bytes32"
        },
        {
          "indexed": true,
          "internalType": "address",
          "name": "account",
          "type": "address"
        },
        {
          "indexed": true,
          "internalType": "address",
          "name": "sender",
          "type": "address"
        }
      ],
      "name": "RoleGranted",
      "type": "event"
    },
    {
      "anonymous": false,
      "inputs": [
        {
          "indexed": true,
          "internalType": "bytes32",
          "name": "role",
          "type": "bytes32"
        },
        {
          "indexed": true,
          "internalType": "address",
          "name": "account",
          "type": "address"
        },
        {
          "indexed": true,
          "internalType": "address",
          "name": "sender",
          "type": "address"
        }
      ],
      "name": "RoleRevoked",
      "type": "event"
    },
    {
      "anonymous": false,
      "inputs": [
        {
          "components": [
            {
              "internalType": "uint64",
              "name": "makerOrderNonce",
              "type": "uint64"
            },
            {
              "internalType": "bytes",
              "name": "makerSrc",
              "type": "bytes"
            },
            {
              "internalType": "uint256",
              "name": "giveChainId",
              "type": "uint256"
            },
            {
              "internalType": "bytes",
              "name": "giveTokenAddress",
              "type": "bytes"
            },
            {
              "internalType": "uint256",
              "name": "giveAmount",
              "type": "uint256"
            },
            {
              "internalType": "uint256",
              "name": "takeChainId",
              "type": "uint256"
            },
            {
              "internalType": "bytes",
              "name": "takeTokenAddress",
              "type": "bytes"
            },
            {
              "internalType": "uint256",
              "name": "takeAmount",
              "type": "uint256"
            },
            {
              "internalType": "bytes",
              "name": "receiverDst",
              "type": "bytes"
            },
            {
              "internalType": "bytes",
              "name": "givePatchAuthoritySrc",
              "type": "bytes"
            },
            {
              "internalType": "bytes",
              "name": "orderAuthorityAddressDst",
              "type": "bytes"
            },
            {
              "internalType": "bytes",
              "name": "allowedTakerDst",
              "type": "bytes"
            },
            {
              "internalType": "bytes",
              "name": "allowedCancelBeneficiarySrc",
              "type": "bytes"
            },
            {
              "internalType": "bytes",
              "name": "externalCall",
              "type": "bytes"
            }
          ],
          "indexed": false,
          "internalType": "struct DlnOrderLib.Order",
          "name": "order",
          "type": "tuple"
        },
        {
          "indexed": false,
          "internalType": "bytes32",
          "name": "orderId",
          "type": "bytes32"
        },
        {
          "indexed": false,
          "internalType": "bytes",
          "name": "cancelBeneficiary",
          "type": "bytes"
        },
        {
          "indexed": false,
          "internalType": "bytes32",
          "name": "submissionId",
          "type": "bytes32"
        }
      ],
      "name": "SentOrderCancel",
      "type": "event"
    },
    {
      "anonymous": false,
      "inputs": [
        {
          "indexed": false,
          "internalType": "bytes32",
          "name": "orderId",
          "type": "bytes32"
        },
        {
          "indexed": false,
          "internalType": "bytes",
          "name": "beneficiary",
          "type": "bytes"
        },
        {
          "indexed": false,
          "internalType": "bytes32",
          "name": "submissionId",
          "type": "bytes32"
        }
      ],
      "name": "SentOrderUnlock",
      "type": "event"
    },
    {
      "anonymous": false,
      "inputs": [
        {
          "indexed": false,
          "internalType": "uint256",
          "name": "chainIdFrom",
          "type": "uint256"
        },
        {
          "indexed": false,
          "internalType": "bytes",
          "name": "dlnSourceAddress",
          "type": "bytes"
        },
        {
          "indexed": false,
          "internalType": "enum DlnOrderLib.ChainEngine",
          "name": "chainEngine",
          "type": "uint8"
        }
      ],
      "name": "SetDlnSourceAddress",
      "type": "event"
    },
    {
      "anonymous": false,
      "inputs": [
        {
          "indexed": false,
          "internalType": "address",
          "name": "account",
          "type": "address"
        }
      ],
      "name": "Unpaused",
      "type": "event"
    },
    {
      "inputs": [],
      "name": "BPS_DENOMINATOR",
      "outputs": [
        {
          "internalType": "uint256",
          "name": "",
          "type": "uint256"
        }
      ],
      "stateMutability": "view",
      "type": "function"
    },
    {
      "inputs": [],
      "name": "DEFAULT_ADMIN_ROLE",
      "outputs": [
        {
          "internalType": "bytes32",
          "name": "",
          "type": "bytes32"
        }
      ],
      "stateMutability": "view",
      "type": "function"
    },
    {
      "inputs": [],
      "name": "EVM_ADDRESS_LENGTH",
      "outputs": [
        {
          "internalType": "uint256",
          "name": "",
          "type": "uint256"
        }
      ],
      "stateMutability": "view",
      "type": "function"
    },
    {
      "inputs": [],
      "name": "GOVMONITORING_ROLE",
      "outputs": [
        {
          "internalType": "bytes32",
          "name": "",
          "type": "bytes32"
        }
      ],
      "stateMutability": "view",
      "type": "function"
    },
    {
      "inputs": [],
      "name": "MAX_ADDRESS_LENGTH",
      "outputs": [
        {
          "internalType": "uint256",
          "name": "",
          "type": "uint256"
        }
      ],
      "stateMutability": "view",
      "type": "function"
    },
    {
      "inputs": [],
      "name": "NATIVE_AMOUNT_DIVIDER_FOR_TRANSFER_TO_SOLANA",
      "outputs": [
        {
          "internalType": "uint256",
          "name": "",
          "type": "uint256"
        }
      ],
      "stateMutability": "view",
      "type": "function"
    },
    {
      "inputs": [],
      "name": "SOLANA_ADDRESS_LENGTH",
      "outputs": [
        {
          "internalType": "uint256",
          "name": "",
          "type": "uint256"
        }
      ],
      "stateMutability": "view",
      "type": "function"
    },
    {
      "inputs": [
        {
          "internalType": "uint256",
          "name": "",
          "type": "uint256"
        }
      ],
      "name": "chainEngines",
      "outputs": [
        {
          "internalType": "enum DlnOrderLib.ChainEngine",
          "name": "",
          "type": "uint8"
        }
      ],
      "stateMutability": "view",
      "type": "function"
    },
    {
      "inputs": [],
      "name": "deBridgeGate",
      "outputs": [
        {
          "internalType": "contract IDeBridgeGate",
          "name": "",
          "type": "address"
        }
      ],
      "stateMutability": "view",
      "type": "function"
    },
    {
      "inputs": [
        {
          "internalType": "uint256",
          "name": "",
          "type": "uint256"
        }
      ],
      "name": "dlnSourceAddresses",
      "outputs": [
        {
          "internalType": "bytes",
          "name": "",
          "type": "bytes"
        }
      ],
      "stateMutability": "view",
      "type": "function"
    },
    {
      "inputs": [],
      "name": "externalCallAdapter",
      "outputs": [
        {
          "internalType": "address",
          "name": "",
          "type": "address"
        }
      ],
      "stateMutability": "view",
      "type": "function"
    },
    {
      "inputs": [
        {
          "components": [
            {
              "internalType": "uint64",
              "name": "makerOrderNonce",
              "type": "uint64"
            },
            {
              "internalType": "bytes",
              "name": "makerSrc",
              "type": "bytes"
            },
            {
              "internalType": "uint256",
              "name": "giveChainId",
              "type": "uint256"
            },
            {
              "internalType": "bytes",
              "name": "giveTokenAddress",
              "type": "bytes"
            },
            {
              "internalType": "uint256",
              "name": "giveAmount",
              "type": "uint256"
            },
            {
              "internalType": "uint256",
              "name": "takeChainId",
              "type": "uint256"
            },
            {
              "internalType": "bytes",
              "name": "takeTokenAddress",
              "type": "bytes"
            },
            {
              "internalType": "uint256",
              "name": "takeAmount",
              "type": "uint256"
            },
            {
              "internalType": "bytes",
              "name": "receiverDst",
              "type": "bytes"
            },
            {
              "internalType": "bytes",
              "name": "givePatchAuthoritySrc",
              "type": "bytes"
            },
            {
              "internalType": "bytes",
              "name": "orderAuthorityAddressDst",
              "type": "bytes"
            },
            {
              "internalType": "bytes",
              "name": "allowedTakerDst",
              "type": "bytes"
            },
            {
              "internalType": "bytes",
              "name": "allowedCancelBeneficiarySrc",
              "type": "bytes"
            },
            {
              "internalType": "bytes",
              "name": "externalCall",
              "type": "bytes"
            }
          ],
          "internalType": "struct DlnOrderLib.Order",
          "name": "_order",
          "type": "tuple"
        },
        {
          "internalType": "uint256",
          "name": "_fulFillAmount",
          "type": "uint256"
        },
        {
          "internalType": "bytes32",
          "name": "_orderId",
          "type": "bytes32"
        },
        {
          "internalType": "bytes",
          "name": "_permitEnvelope",
          "type": "bytes"
        },
        {
          "internalType": "address",
          "name": "_unlockAuthority",
          "type": "address"
        },
        {
          "internalType": "address",
          "name": "_externalCallRewardBeneficiary",
          "type": "address"
        }
      ],
      "name": "fulfillOrder",
      "outputs": [],
      "stateMutability": "payable",
      "type": "function"
    },
    {
      "inputs": [
        {
          "components": [
            {
              "internalType": "uint64",
              "name": "makerOrderNonce",
              "type": "uint64"
            },
            {
              "internalType": "bytes",
              "name": "makerSrc",
              "type": "bytes"
            },
            {
              "internalType": "uint256",
              "name": "giveChainId",
              "type": "uint256"
            },
            {
              "internalType": "bytes",
              "name": "giveTokenAddress",
              "type": "bytes"
            },
            {
              "internalType": "uint256",
              "name": "giveAmount",
              "type": "uint256"
            },
            {
              "internalType": "uint256",
              "name": "takeChainId",
              "type": "uint256"
            },
            {
              "internalType": "bytes",
              "name": "takeTokenAddress",
              "type": "bytes"
            },
            {
              "internalType": "uint256",
              "name": "takeAmount",
              "type": "uint256"
            },
            {
              "internalType": "bytes",
              "name": "receiverDst",
              "type": "bytes"
            },
            {
              "internalType": "bytes",
              "name": "givePatchAuthoritySrc",
              "type": "bytes"
            },
            {
              "internalType": "bytes",
              "name": "orderAuthorityAddressDst",
              "type": "bytes"
            },
            {
              "internalType": "bytes",
              "name": "allowedTakerDst",
              "type": "bytes"
            },
            {
              "internalType": "bytes",
              "name": "allowedCancelBeneficiarySrc",
              "type": "bytes"
            },
            {
              "internalType": "bytes",
              "name": "externalCall",
              "type": "bytes"
            }
          ],
          "internalType": "struct DlnOrderLib.Order",
          "name": "_order",
          "type": "tuple"
        },
        {
          "internalType": "uint256",
          "name": "_fulFillAmount",
          "type": "uint256"
        },
        {
          "internalType": "bytes32",
          "name": "_orderId",
          "type": "bytes32"
        },
        {
          "internalType": "bytes",
          "name": "_permitEnvelope",
          "type": "bytes"
        },
        {
          "internalType": "address",
          "name": "_unlockAuthority",
          "type": "address"
        }
      ],
      "name": "fulfillOrder",
      "outputs": [],
      "stateMutability": "payable",
      "type": "function"
    },
    {
      "inputs": [],
      "name": "getChainId",
      "outputs": [
        {
          "internalType": "uint256",
          "name": "cid",
          "type": "uint256"
        }
      ],
      "stateMutability": "view",
      "type": "function"
    },
    {
      "inputs": [
        {
          "components": [
            {
              "internalType": "uint64",
              "name": "makerOrderNonce",
              "type": "uint64"
            },
            {
              "internalType": "bytes",
              "name": "makerSrc",
              "type": "bytes"
            },
            {
              "internalType": "uint256",
              "name": "giveChainId",
              "type": "uint256"
            },
            {
              "internalType": "bytes",
              "name": "giveTokenAddress",
              "type": "bytes"
            },
            {
              "internalType": "uint256",
              "name": "giveAmount",
              "type": "uint256"
            },
            {
              "internalType": "uint256",
              "name": "takeChainId",
              "type": "uint256"
            },
            {
              "internalType": "bytes",
              "name": "takeTokenAddress",
              "type": "bytes"
            },
            {
              "internalType": "uint256",
              "name": "takeAmount",
              "type": "uint256"
            },
            {
              "internalType": "bytes",
              "name": "receiverDst",
              "type": "bytes"
            },
            {
              "internalType": "bytes",
              "name": "givePatchAuthoritySrc",
              "type": "bytes"
            },
            {
              "internalType": "bytes",
              "name": "orderAuthorityAddressDst",
              "type": "bytes"
            },
            {
              "internalType": "bytes",
              "name": "allowedTakerDst",
              "type": "bytes"
            },
            {
              "internalType": "bytes",
              "name": "allowedCancelBeneficiarySrc",
              "type": "bytes"
            },
            {
              "internalType": "bytes",
              "name": "externalCall",
              "type": "bytes"
            }
          ],
          "internalType": "struct DlnOrderLib.Order",
          "name": "_order",
          "type": "tuple"
        }
      ],
      "name": "getOrderId",
      "outputs": [
        {
          "internalType": "bytes32",
          "name": "",
          "type": "bytes32"
        }
      ],
      "stateMutability": "pure",
      "type": "function"
    },
    {
      "inputs": [
        {
          "internalType": "bytes32",
          "name": "role",
          "type": "bytes32"
        }
      ],
      "name": "getRoleAdmin",
      "outputs": [
        {
          "internalType": "bytes32",
          "name": "",
          "type": "bytes32"
        }
      ],
      "stateMutability": "view",
      "type": "function"
    },
    {
      "inputs": [
        {
          "internalType": "bytes32",
          "name": "role",
          "type": "bytes32"
        },
        {
          "internalType": "address",
          "name": "account",
          "type": "address"
        }
      ],
      "name": "grantRole",
      "outputs": [],
      "stateMutability": "nonpayable",
      "type": "function"
    },
    {
      "inputs": [
        {
          "internalType": "bytes32",
          "name": "role",
          "type": "bytes32"
        },
        {
          "internalType": "address",
          "name": "account",
          "type": "address"
        }
      ],
      "name": "hasRole",
      "outputs": [
        {
          "internalType": "bool",
          "name": "",
          "type": "bool"
        }
      ],
      "stateMutability": "view",
      "type": "function"
    },
    {
      "inputs": [
        {
          "internalType": "contract IDeBridgeGate",
          "name": "_deBridgeGate",
          "type": "address"
        },
        {
          "internalType": "uint32",
          "name": "_subscriptionId",
          "type": "uint32"
        }
      ],
      "name": "initialize",
      "outputs": [],
      "stateMutability": "nonpayable",
      "type": "function"
    },
    {
      "inputs": [],
      "name": "maxOrderCountPerBatchEvmUnlock",
      "outputs": [
        {
          "internalType": "uint256",
          "name": "",
          "type": "uint256"
        }
      ],
      "stateMutability": "view",
      "type": "function"
    },
    {
      "inputs": [],
      "name": "maxOrderCountPerBatchSolanaUnlock",
      "outputs": [
        {
          "internalType": "uint256",
          "name": "",
          "type": "uint256"
        }
      ],
      "stateMutability": "view",
      "type": "function"
    },
    {
      "inputs": [
        {
          "components": [
            {
              "internalType": "uint64",
              "name": "makerOrderNonce",
              "type": "uint64"
            },
            {
              "internalType": "bytes",
              "name": "makerSrc",
              "type": "bytes"
            },
            {
              "internalType": "uint256",
              "name": "giveChainId",
              "type": "uint256"
            },
            {
              "internalType": "bytes",
              "name": "giveTokenAddress",
              "type": "bytes"
            },
            {
              "internalType": "uint256",
              "name": "giveAmount",
              "type": "uint256"
            },
            {
              "internalType": "uint256",
              "name": "takeChainId",
              "type": "uint256"
            },
            {
              "internalType": "bytes",
              "name": "takeTokenAddress",
              "type": "bytes"
            },
            {
              "internalType": "uint256",
              "name": "takeAmount",
              "type": "uint256"
            },
            {
              "internalType": "bytes",
              "name": "receiverDst",
              "type": "bytes"
            },
            {
              "internalType": "bytes",
              "name": "givePatchAuthoritySrc",
              "type": "bytes"
            },
            {
              "internalType": "bytes",
              "name": "orderAuthorityAddressDst",
              "type": "bytes"
            },
            {
              "internalType": "bytes",
              "name": "allowedTakerDst",
              "type": "bytes"
            },
            {
              "internalType": "bytes",
              "name": "allowedCancelBeneficiarySrc",
              "type": "bytes"
            },
            {
              "internalType": "bytes",
              "name": "externalCall",
              "type": "bytes"
            }
          ],
          "internalType": "struct DlnOrderLib.Order",
          "name": "_order",
          "type": "tuple"
        },
        {
          "internalType": "uint256",
          "name": "_newSubtrahend",
          "type": "uint256"
        }
      ],
      "name": "patchOrderTake",
      "outputs": [],
      "stateMutability": "nonpayable",
      "type": "function"
    },
    {
      "inputs": [],
      "name": "pause",
      "outputs": [],
      "stateMutability": "nonpayable",
      "type": "function"
    },
    {
      "inputs": [],
      "name": "paused",
      "outputs": [
        {
          "internalType": "bool",
          "name": "",
          "type": "bool"
        }
      ],
      "stateMutability": "view",
      "type": "function"
    },
    {
      "inputs": [
        {
          "internalType": "bytes32",
          "name": "role",
          "type": "bytes32"
        },
        {
          "internalType": "address",
          "name": "account",
          "type": "address"
        }
      ],
      "name": "renounceRole",
      "outputs": [],
      "stateMutability": "nonpayable",
      "type": "function"
    },
    {
      "inputs": [
        {
          "internalType": "bytes32",
          "name": "role",
          "type": "bytes32"
        },
        {
          "internalType": "address",
          "name": "account",
          "type": "address"
        }
      ],
      "name": "revokeRole",
      "outputs": [],
      "stateMutability": "nonpayable",
      "type": "function"
    },
    {
      "inputs": [
        {
          "internalType": "bytes32[]",
          "name": "_orderIds",
          "type": "bytes32[]"
        },
        {
          "internalType": "address",
          "name": "_beneficiary",
          "type": "address"
        },
        {
          "internalType": "uint256",
          "name": "_executionFee",
          "type": "uint256"
        }
      ],
      "name": "sendBatchEvmUnlock",
      "outputs": [],
      "stateMutability": "payable",
      "type": "function"
    },
    {
      "inputs": [
        {
          "components": [
            {
              "internalType": "uint64",
              "name": "makerOrderNonce",
              "type": "uint64"
            },
            {
              "internalType": "bytes",
              "name": "makerSrc",
              "type": "bytes"
            },
            {
              "internalType": "uint256",
              "name": "giveChainId",
              "type": "uint256"
            },
            {
              "internalType": "bytes",
              "name": "giveTokenAddress",
              "type": "bytes"
            },
            {
              "internalType": "uint256",
              "name": "giveAmount",
              "type": "uint256"
            },
            {
              "internalType": "uint256",
              "name": "takeChainId",
              "type": "uint256"
            },
            {
              "internalType": "bytes",
              "name": "takeTokenAddress",
              "type": "bytes"
            },
            {
              "internalType": "uint256",
              "name": "takeAmount",
              "type": "uint256"
            },
            {
              "internalType": "bytes",
              "name": "receiverDst",
              "type": "bytes"
            },
            {
              "internalType": "bytes",
              "name": "givePatchAuthoritySrc",
              "type": "bytes"
            },
            {
              "internalType": "bytes",
              "name": "orderAuthorityAddressDst",
              "type": "bytes"
            },
            {
              "internalType": "bytes",
              "name": "allowedTakerDst",
              "type": "bytes"
            },
            {
              "internalType": "bytes",
              "name": "allowedCancelBeneficiarySrc",
              "type": "bytes"
            },
            {
              "internalType": "bytes",
              "name": "externalCall",
              "type": "bytes"
            }
          ],
          "internalType": "struct DlnOrderLib.Order[]",
          "name": "_orders",
          "type": "tuple[]"
        },
        {
          "internalType": "bytes32",
          "name": "_beneficiary",
          "type": "bytes32"
        },
        {
          "internalType": "uint256",
          "name": "_executionFee",
          "type": "uint256"
        },
        {
          "internalType": "uint64",
          "name": "_initWalletIfNeededInstructionReward",
          "type": "uint64"
        },
        {
          "internalType": "uint64",
          "name": "_claimUnlockInstructionReward",
          "type": "uint64"
        }
      ],
      "name": "sendBatchSolanaUnlock",
      "outputs": [],
      "stateMutability": "payable",
      "type": "function"
    },
    {
      "inputs": [
        {
          "components": [
            {
              "internalType": "uint64",
              "name": "makerOrderNonce",
              "type": "uint64"
            },
            {
              "internalType": "bytes",
              "name": "makerSrc",
              "type": "bytes"
            },
            {
              "internalType": "uint256",
              "name": "giveChainId",
              "type": "uint256"
            },
            {
              "internalType": "bytes",
              "name": "giveTokenAddress",
              "type": "bytes"
            },
            {
              "internalType": "uint256",
              "name": "giveAmount",
              "type": "uint256"
            },
            {
              "internalType": "uint256",
              "name": "takeChainId",
              "type": "uint256"
            },
            {
              "internalType": "bytes",
              "name": "takeTokenAddress",
              "type": "bytes"
            },
            {
              "internalType": "uint256",
              "name": "takeAmount",
              "type": "uint256"
            },
            {
              "internalType": "bytes",
              "name": "receiverDst",
              "type": "bytes"
            },
            {
              "internalType": "bytes",
              "name": "givePatchAuthoritySrc",
              "type": "bytes"
            },
            {
              "internalType": "bytes",
              "name": "orderAuthorityAddressDst",
              "type": "bytes"
            },
            {
              "internalType": "bytes",
              "name": "allowedTakerDst",
              "type": "bytes"
            },
            {
              "internalType": "bytes",
              "name": "allowedCancelBeneficiarySrc",
              "type": "bytes"
            },
            {
              "internalType": "bytes",
              "name": "externalCall",
              "type": "bytes"
            }
          ],
          "internalType": "struct DlnOrderLib.Order",
          "name": "_order",
          "type": "tuple"
        },
        {
          "internalType": "address",
          "name": "_cancelBeneficiary",
          "type": "address"
        },
        {
          "internalType": "uint256",
          "name": "_executionFee",
          "type": "uint256"
        }
      ],
      "name": "sendEvmOrderCancel",
      "outputs": [],
      "stateMutability": "payable",
      "type": "function"
    },
    {
      "inputs": [
        {
          "internalType": "bytes32",
          "name": "_orderId",
          "type": "bytes32"
        },
        {
          "internalType": "address",
          "name": "_beneficiary",
          "type": "address"
        },
        {
          "internalType": "uint256",
          "name": "_executionFee",
          "type": "uint256"
        }
      ],
      "name": "sendEvmUnlock",
      "outputs": [],
      "stateMutability": "payable",
      "type": "function"
    },
    {
      "inputs": [
        {
          "components": [
            {
              "internalType": "uint64",
              "name": "makerOrderNonce",
              "type": "uint64"
            },
            {
              "internalType": "bytes",
              "name": "makerSrc",
              "type": "bytes"
            },
            {
              "internalType": "uint256",
              "name": "giveChainId",
              "type": "uint256"
            },
            {
              "internalType": "bytes",
              "name": "giveTokenAddress",
              "type": "bytes"
            },
            {
              "internalType": "uint256",
              "name": "giveAmount",
              "type": "uint256"
            },
            {
              "internalType": "uint256",
              "name": "takeChainId",
              "type": "uint256"
            },
            {
              "internalType": "bytes",
              "name": "takeTokenAddress",
              "type": "bytes"
            },
            {
              "internalType": "uint256",
              "name": "takeAmount",
              "type": "uint256"
            },
            {
              "internalType": "bytes",
              "name": "receiverDst",
              "type": "bytes"
            },
            {
              "internalType": "bytes",
              "name": "givePatchAuthoritySrc",
              "type": "bytes"
            },
            {
              "internalType": "bytes",
              "name": "orderAuthorityAddressDst",
              "type": "bytes"
            },
            {
              "internalType": "bytes",
              "name": "allowedTakerDst",
              "type": "bytes"
            },
            {
              "internalType": "bytes",
              "name": "allowedCancelBeneficiarySrc",
              "type": "bytes"
            },
            {
              "internalType": "bytes",
              "name": "externalCall",
              "type": "bytes"
            }
          ],
          "internalType": "struct DlnOrderLib.Order",
          "name": "_order",
          "type": "tuple"
        },
        {
          "internalType": "bytes32",
          "name": "_cancelBeneficiary",
          "type": "bytes32"
        },
        {
          "internalType": "uint256",
          "name": "_executionFee",
          "type": "uint256"
        },
        {
          "internalType": "uint64",
          "name": "_initWalletIfNeededInstructionReward",
          "type": "uint64"
        },
        {
          "internalType": "uint64",
          "name": "_claimCancelInstructionReward",
          "type": "uint64"
        }
      ],
      "name": "sendSolanaOrderCancel",
      "outputs": [],
      "stateMutability": "payable",
      "type": "function"
    },
    {
      "inputs": [
        {
          "components": [
            {
              "internalType": "uint64",
              "name": "makerOrderNonce",
              "type": "uint64"
            },
            {
              "internalType": "bytes",
              "name": "makerSrc",
              "type": "bytes"
            },
            {
              "internalType": "uint256",
              "name": "giveChainId",
              "type": "uint256"
            },
            {
              "internalType": "bytes",
              "name": "giveTokenAddress",
              "type": "bytes"
            },
            {
              "internalType": "uint256",
              "name": "giveAmount",
              "type": "uint256"
            },
            {
              "internalType": "uint256",
              "name": "takeChainId",
              "type": "uint256"
            },
            {
              "internalType": "bytes",
              "name": "takeTokenAddress",
              "type": "bytes"
            },
            {
              "internalType": "uint256",
              "name": "takeAmount",
              "type": "uint256"
            },
            {
              "internalType": "bytes",
              "name": "receiverDst",
              "type": "bytes"
            },
            {
              "internalType": "bytes",
              "name": "givePatchAuthoritySrc",
              "type": "bytes"
            },
            {
              "internalType": "bytes",
              "name": "orderAuthorityAddressDst",
              "type": "bytes"
            },
            {
              "internalType": "bytes",
              "name": "allowedTakerDst",
              "type": "bytes"
            },
            {
              "internalType": "bytes",
              "name": "allowedCancelBeneficiarySrc",
              "type": "bytes"
            },
            {
              "internalType": "bytes",
              "name": "externalCall",
              "type": "bytes"
            }
          ],
          "internalType": "struct DlnOrderLib.Order",
          "name": "_order",
          "type": "tuple"
        },
        {
          "internalType": "bytes32",
          "name": "_beneficiary",
          "type": "bytes32"
        },
        {
          "internalType": "uint256",
          "name": "_executionFee",
          "type": "uint256"
        },
        {
          "internalType": "uint64",
          "name": "_initWalletIfNeededInstructionReward",
          "type": "uint64"
        },
        {
          "internalType": "uint64",
          "name": "_claimUnlockInstructionReward",
          "type": "uint64"
        }
      ],
      "name": "sendSolanaUnlock",
      "outputs": [],
      "stateMutability": "payable",
      "type": "function"
    },
    {
      "inputs": [
        {
          "internalType": "uint256",
          "name": "_chainIdFrom",
          "type": "uint256"
        },
        {
          "internalType": "bytes",
          "name": "_dlnSourceAddress",
          "type": "bytes"
        },
        {
          "internalType": "enum DlnOrderLib.ChainEngine",
          "name": "_chainEngine",
          "type": "uint8"
        }
      ],
      "name": "setDlnSourceAddress",
      "outputs": [],
      "stateMutability": "nonpayable",
      "type": "function"
    },
    {
      "inputs": [
        {
          "internalType": "address",
          "name": "_externalCallAdapter",
          "type": "address"
        }
      ],
      "name": "setExternalCallAdapter",
      "outputs": [],
      "stateMutability": "nonpayable",
      "type": "function"
    },
    {
      "inputs": [
        {
          "internalType": "uint256",
          "name": "_newEvmCount",
          "type": "uint256"
        },
        {
          "internalType": "uint256",
          "name": "_newSolanaCount",
          "type": "uint256"
        }
      ],
      "name": "setMaxOrderCountsPerBatch",
      "outputs": [],
      "stateMutability": "nonpayable",
      "type": "function"
    },
    {
      "inputs": [],
      "name": "subscriptionId",
      "outputs": [
        {
          "internalType": "uint32",
          "name": "",
          "type": "uint32"
        }
      ],
      "stateMutability": "view",
      "type": "function"
    },
    {
      "inputs": [
        {
          "internalType": "bytes4",
          "name": "interfaceId",
          "type": "bytes4"
        }
      ],
      "name": "supportsInterface",
      "outputs": [
        {
          "internalType": "bool",
          "name": "",
          "type": "bool"
        }
      ],
      "stateMutability": "view",
      "type": "function"
    },
    {
      "inputs": [
        {
          "internalType": "bytes32",
          "name": "",
          "type": "bytes32"
        }
      ],
      "name": "takeOrders",
      "outputs": [
        {
          "internalType": "enum DlnDestination.OrderTakeStatus",
          "name": "status",
          "type": "uint8"
        },
        {
          "internalType": "address",
          "name": "takerAddress",
          "type": "address"
        },
        {
          "internalType": "uint32",
          "name": "giveChainId",
          "type": "uint32"
        },
        {
          "internalType": "uint256",
          "name": "bigGiveChainId",
          "type": "uint256"
        }
      ],
      "stateMutability": "view",
      "type": "function"
    },
    {
      "inputs": [
        {
          "internalType": "bytes32",
          "name": "",
          "type": "bytes32"
        }
      ],
      "name": "takePatches",
      "outputs": [
        {
          "internalType": "uint256",
          "name": "",
          "type": "uint256"
        }
      ],
      "stateMutability": "view",
      "type": "function"
    },
    {
      "inputs": [],
      "name": "unpause",
      "outputs": [],
      "stateMutability": "nonpayable",
      "type": "function"
    },
    {
      "inputs": [],
      "name": "version",
      "outputs": [
        {
          "internalType": "string",
          "name": "",
          "type": "string"
        }
      ],
      "stateMutability": "pure",
      "type": "function"
    }
  ],
  "bytecode": "0x60806040523480156200001157600080fd5b506200001c62000022565b620000e3565b600054610100900460ff16156200008f5760405162461bcd60e51b815260206004820152602760248201527f496e697469616c697a61626c653a20636f6e747261637420697320696e697469604482015266616c697a696e6760c81b606482015260840160405180910390fd5b60005460ff90811614620000e1576000805460ff191660ff9081179091556040519081527f7f26b83ff96e1f2b6a682f133852f6798a09c465da95921460cefb38474024989060200160405180910390a15b565b6158d380620000f36000396000f3fe6080604052600436106102c65760003560e01c806391d1485411610179578063c5e4c9f9116100d6578063de5eff0a1161008a578063f6ef28b411610064578063f6ef28b414610803578063f733f65e14610818578063fa82f3091461083857600080fd5b8063de5eff0a146107ad578063e04542ce146107cd578063e1a45218146107ed57600080fd5b8063d38d9626116100bb578063d38d962614610746578063d547741f14610759578063da6150521461077957600080fd5b8063c5e4c9f914610706578063ca777fbf1461072657600080fd5b8063a3a9eee61161012d578063a758470311610112578063a7584703146106c9578063b41100b3146106e0578063c358547e146106f357600080fd5b8063a3a9eee61461069f578063a6a5ae52146106b657600080fd5b80639aa69b841161015e5780639aa69b84146106145780639dd1aeac1461064d578063a217fddf1461068a57600080fd5b806391d14854146105bb5780639327145d1461060157600080fd5b806340968794116102275780635b5a646e116101db5780638456cb59116101c05780638456cb591461055957806385587a4f1461056e57806385d8e9781461059b57600080fd5b80635b5a646e1461052e5780635c975abb1461054157600080fd5b806351f228b41161020c57806351f228b41461045857806354fd4d50146104785780635b2f30e9146104c757600080fd5b8063409687941461042557806350e955911461043857600080fd5b80632f2ff15d1161027e5780633408e470116102635780633408e470146103db57806336568abe146103f05780633f4ba83a1461041057600080fd5b80632f2ff15d146103a25780632f4f63c4146103c257600080fd5b806309c1ba2e116102af57806309c1ba2e146103235780630ebcd2f61461035d578063248a9ca31461037257600080fd5b806301ffc9a7146102cb57806303deb7ea14610300575b600080fd5b3480156102d757600080fd5b506102eb6102e6366004613ea0565b61084d565b60405190151581526020015b60405180910390f35b34801561030c57600080fd5b50610315601481565b6040519081526020016102f7565b34801561032f57600080fd5b506101025461034890600160a01b900463ffffffff1681565b60405163ffffffff90911681526020016102f7565b61037061036b3660046141e9565b6108b6565b005b34801561037e57600080fd5b5061031561038d36600461428d565b60009081526065602052604090206001015490565b3480156103ae57600080fd5b506103706103bd3660046142a6565b61091f565b3480156103ce57600080fd5b506103156402540be40081565b3480156103e757600080fd5b50610315610949565b3480156103fc57600080fd5b5061037061040b3660046142a6565b610968565b34801561041c57600080fd5b506103706109f9565b6103706104333660046142fa565b610a52565b34801561044457600080fd5b506103156104533660046143e4565b610de5565b34801561046457600080fd5b50610370610473366004614419565b610df0565b34801561048457600080fd5b5060408051808201909152600581527f312e342e3000000000000000000000000000000000000000000000000000000060208201525b6040516102f791906144ae565b3480156104d357600080fd5b5061051e6104e236600461428d565b60fe602052600090815260409020805460019091015460ff82169161010081046001600160a01b031691600160a81b90910463ffffffff169084565b6040516102f794939291906144d7565b61037061053c366004614516565b610f71565b34801561054d57600080fd5b5060975460ff166102eb565b34801561056557600080fd5b5061037061115d565b34801561057a57600080fd5b5061031561058936600461428d565b60ff6020526000908152604090205481565b3480156105a757600080fd5b506104ba6105b636600461428d565b6111cd565b3480156105c757600080fd5b506102eb6105d63660046142a6565b60009182526065602090815260408084206001600160a01b0393909316845291905290205460ff1690565b61037061060f3660046145c2565b611267565b34801561062057600080fd5b5061010254610635906001600160a01b031681565b6040516001600160a01b0390911681526020016102f7565b34801561065957600080fd5b5061067d61066836600461428d565b60c96020526000908152604090205460ff1681565b6040516102f7919061462e565b34801561069657600080fd5b50610315600081565b3480156106ab57600080fd5b506103156101005481565b6103706106c43660046145c2565b61159a565b3480156106d557600080fd5b506103156101015481565b6103706106ee36600461463c565b6116e0565b610370610701366004614674565b6117c4565b34801561071257600080fd5b50610370610721366004614704565b61182b565b34801561073257600080fd5b5060ca54610635906001600160a01b031681565b61037061075436600461473b565b61197e565b34801561076557600080fd5b506103706107743660046142a6565b611baf565b34801561078557600080fd5b506103157f2b36fa99e118fa8485d488becf749a974743fbeb6a7aa57e663893bf5d69a3c181565b3480156107b957600080fd5b506103706107c8366004614784565b611bd4565b3480156107d957600080fd5b506103706107e83660046147a1565b611c93565b3480156107f957600080fd5b5061031561271081565b34801561080f57600080fd5b50610315602081565b34801561082457600080fd5b50610370610833366004614800565b611d90565b34801561084457600080fd5b5061031560ff81565b60006001600160e01b031982167f7965db0b0000000000000000000000000000000000000000000000000000000014806108b057507f01ffc9a7000000000000000000000000000000000000000000000000000000006001600160e01b03198316145b92915050565b6108be611e79565b6108c6611ed2565b61090c84848080601f0160208091040260200160405190810160405280939291908181526020018383808284376000920191909152508b92508a91508990508686611f25565b610916600160cb55565b50505050505050565b60008281526065602052604090206001015461093a816122e0565b61094483836122ed565b505050565b61010254600160a01b900463ffffffff1680156109635790565b504690565b6001600160a01b03811633146109eb5760405162461bcd60e51b815260206004820152602f60248201527f416363657373436f6e74726f6c3a2063616e206f6e6c792072656e6f756e636560448201527f20726f6c657320666f722073656c66000000000000000000000000000000000060648201526084015b60405180910390fd5b6109f5828261238f565b5050565b3360009081527fffdfc1249c027f9191656349feb0761381bb32c9f557e01f419fd08754bf5a1b602052604090205460ff16610a4857604051636f4720fd60e11b815260040160405180910390fd5b610a50612412565b565b610a5a611e79565b610a62611ed2565b8451600003610a845760405163031a27cf60e41b815260040160405180910390fd5b6101015485511115610aa95760405163031a27cf60e41b815260040160405180910390fd5b610acb34848488518567ffffffffffffffff16610ac69190614838565b612464565b600080600060606000895167ffffffffffffffff811115610aee57610aee613eca565b604051908082528060200260200182016040528015610b17578160200160208202803683370190505b50905060005b8a51811015610d0c5760008b8281518110610b3a57610b3a61484f565b602002602001015190506000610b4f82612628565b905080848481518110610b6457610b6461484f565b602002602001018181525050610b7b816002612643565b5082600003610c565781604001519750610b9a8260600151600061274d565b604080840151600090815260fd602052208054919850610c4291610bbd90614865565b80601f0160208091040260200160405190810160405280929190818152602001828054610be990614865565b8015610c365780601f10610c0b57610100808354040283529160200191610c36565b820191906000526020600020905b815481529060010190602001808311610c1957829003601f168201915b5050505050600061274d565b9550610c4f8c888c6127b3565b9450610cc1565b87826040015114610c7a576040516310dfc03360e01b815260040160405180910390fd5b86610c8a8360600151600061274d565b14610cc1576040517fa0f3feea00000000000000000000000000000000000000000000000000000000815260040160405180910390fd5b84610cd7610ccd610949565b888f8b868f612844565b604051602001610ce892919061489f565b6040516020818303038152906040529450505080610d05906148ce565b9050610b1d565b506000610d3c868b604051602001610d2691815260200190565b6040516020818303038152906040528b86612880565b905060005b8b51811015610dcd577f37a01d7dc38e924008cf4f2fa3d2ec1f45e7ae3c8292eb3e7d9314b7ad10e2fc838281518110610d7d57610d7d61484f565b60200260200101518c604051602001610d9891815260200190565b60408051601f1981840301815290829052610db5929186906148e7565b60405180910390a1610dc6816148ce565b9050610d41565b50505050505050610dde600160cb55565b5050505050565b60006108b082612ad7565b610df8611e79565b610e00611ed2565b610e08610949565b8260a0015114610e2b576040516310dfc03360e01b815260040160405180910390fd5b6000610e3683612628565b9050336001600160a01b0316610e50846101400151612ae4565b6001600160a01b031614610e76576040516282b42960e81b815260040160405180910390fd5b600081815260ff60205260409020548211610ea457604051634668624160e01b815260040160405180910390fd5b818360e0015111610ec857604051634668624160e01b815260040160405180910390fd5b600081815260fe602052604081205460ff166003811115610eeb57610eeb6144c1565b14610f095760405163ea6eda5160e01b815260040160405180910390fd5b600081815260ff6020526040902082905560e08301517f08c645e3c369cf85ec8e864f27821c61ceba80fa78f2f66fb0d042a4b29e794b908290610f4e908590614910565b6040805192835260208301919091520160405180910390a1506109f5600160cb55565b610f79611e79565b610f81611ed2565b8251600003610fa35760405163031a27cf60e41b815260040160405180910390fd5b6101005483511115610fc85760405163031a27cf60e41b815260040160405180910390fd5b8251600090815b81811015611059576000610ffd878381518110610fee57610fee61484f565b60200260200101516001612643565b90508160000361100f57809350611048565b808414611048576040517f870faf3800000000000000000000000000000000000000000000000000000000815260040160405180910390fd5b50611052816148ce565b9050610fcf565b5060006110668686612b4f565b6040516bffffffffffffffffffffffff19606088901b1660208201529091506000906110a89085906034015b6040516020818303038152906040528785612880565b905060005b8381101561114e577f37a01d7dc38e924008cf4f2fa3d2ec1f45e7ae3c8292eb3e7d9314b7ad10e2fc8882815181106110e8576110e861484f565b602002602001015188604051602001611119919060609190911b6bffffffffffffffffffffffff1916815260140190565b60408051601f1981840301815290829052611136929186906148e7565b60405180910390a1611147816148ce565b90506110ad565b5050505050610944600160cb55565b3360009081527f8a5df9d3b7a9306a1075029813ef25f1a4531de6e935bc9f04ed5dd5e46af951602052604090205460ff166111c5576040517f6053780500000000000000000000000000000000000000000000000000000000815260040160405180910390fd5b610a50612bbb565b60fd60205260009081526040902080546111e690614865565b80601f016020809104026020016040519081016040528092919081815260200182805461121290614865565b801561125f5780601f106112345761010080835404028352916020019161125f565b820191906000526020600020905b81548152906001019060200180831161124257829003601f168201915b505050505081565b61126f611e79565b611277611ed2565b61128334848484612464565b6002604080870151600090815260c9602052205460ff1660028111156112ab576112ab6144c1565b146112c9576040516310dfc03360e01b815260040160405180910390fd5b6112d1610949565b8560a00151146112f4576040516310dfc03360e01b815260040160405180910390fd5b604080860151600090815260fd602052908120805461131290614865565b80601f016020809104026020016040519081016040528092919081815260200182805461133e90614865565b801561138b5780601f106113605761010080835404028352916020019161138b565b820191906000526020600020905b81548152906001019060200180831161136e57829003601f168201915b5050505050905060208151146113b4576040516310dfc03360e01b815260040160405180910390fd5b60006113bf87612ad7565b9050336001600160a01b03166113d9886101400151612ae4565b6001600160a01b0316146113ff576040516282b42960e81b815260040160405180910390fd5b600087610180015151118015611424575085611421886101800151600061274d565b14155b1561144957866101800151604051636bed194960e01b81526004016109e291906144ae565b600081815260fe6020526040812090815460ff16600381111561146e5761146e6144c1565b1461148c5760405163ea6eda5160e01b815260040160405180910390fd5b805460ff1916600317815560608801516000906114a9908261274d565b905060006114b88983896127b3565b6114d76114c3610949565b6114ce88600061274d565b8c86898c612bf8565b6040516020016114e892919061489f565b6040516020818303038152906040529050600061152c8b604001518b60405160200161151691815260200190565b6040516020818303038152906040528b85612880565b90507fc756fd0227d1d70cec0ead41b16a90a1cac618da1d612cb5d0b72d93301369de8b868c60405160200161156491815260200190565b60408051601f19818403018152908290526115829392918690614a5a565b60405180910390a1505050505050610dde600160cb55565b6115a2611e79565b6115aa611ed2565b6115b634848484612464565b60006115c186612628565b905060006115d0826002612643565b905060006115e38860600151600061274d565b905060006115f28883886127b3565b6116246115fd610949565b600086815260fd60205260409020805461161b9190610bbd90614865565b8b86898b612844565b60405160200161163592919061489f565b60405160208183030381529060405290506000611675848a60405160200161165f91815260200190565b6040516020818303038152906040528a85612880565b90507f37a01d7dc38e924008cf4f2fa3d2ec1f45e7ae3c8292eb3e7d9314b7ad10e2fc858a6040516020016116ac91815260200190565b60408051601f19818403018152908290526116c9929185906148e7565b60405180910390a15050505050610dde600160cb55565b6116e8611e79565b6116f0611ed2565b60006116fd846001612643565b9050600061170b8585612c29565b6040516bffffffffffffffffffffffff19606087901b16602082015290915060009061174c9084906034016040516020818303038152906040528685612880565b6040516bffffffffffffffffffffffff19606088901b1660208201529091507f37a01d7dc38e924008cf4f2fa3d2ec1f45e7ae3c8292eb3e7d9314b7ad10e2fc90879060340160408051601f19818403018152908290526117af929185906148e7565b60405180910390a1505050610944600160cb55565b6117cc611e79565b6117d4611ed2565b61181983838080601f01602080910402602001604051908101604052809392919081815260200183838082843760009201829052508b93508a92508991508690611f25565b611823600160cb55565b505050505050565b600054610100900460ff161580801561184b5750600054600160ff909116105b806118655750303b158015611865575060005460ff166001145b6118c85760405162461bcd60e51b815260206004820152602e60248201527f496e697469616c697a61626c653a20636f6e747261637420697320616c72656160448201526d191e481a5b9a5d1a585b1a5e995960921b60648201526084016109e2565b6000805460ff1916600117905580156118eb576000805461ff0019166101001790555b6118f483612c6f565b6118fc612d9a565b61010280547fffffffffffffffff00000000ffffffffffffffffffffffffffffffffffffffff16600160a01b63ffffffff8516021790558015610944576000805461ff0019169055604051600181527f7f26b83ff96e1f2b6a682f133852f6798a09c465da95921460cefb3847402498906020015b60405180910390a1505050565b611986611e79565b61198e611ed2565b611996610949565b8360a00151146119b9576040516310dfc03360e01b815260040160405180910390fd5b6001604080850151600090815260c9602052205460ff1660028111156119e1576119e16144c1565b146119ff576040516310dfc03360e01b815260040160405180910390fd5b6000611a0a84612ad7565b9050336001600160a01b0316611a24856101400151612ae4565b6001600160a01b031614611a4a576040516282b42960e81b815260040160405180910390fd5b600084610180015151118015611a7f5750826001600160a01b0316611a73856101800151612ae4565b6001600160a01b031614155b15611aa457836101800151604051636bed194960e01b81526004016109e291906144ae565b600081815260fe6020526040812090815460ff166003811115611ac957611ac96144c1565b14611ae75760405163ea6eda5160e01b815260040160405180910390fd5b805460ff191660031781556000611afe8386612e0d565b90506000611b33876040015187604051602001611092919060609190911b6bffffffffffffffffffffffff1916815260140190565b6040516bffffffffffffffffffffffff19606089901b1660208201529091507fc756fd0227d1d70cec0ead41b16a90a1cac618da1d612cb5d0b72d93301369de908890869060340160408051601f1981840301815290829052611b999392918690614a5a565b60405180910390a150505050610944600160cb55565b600082815260656020526040902060010154611bca816122e0565b610944838361238f565b3360009081527fffdfc1249c027f9191656349feb0761381bb32c9f557e01f419fd08754bf5a1b602052604090205460ff16611c2357604051636f4720fd60e11b815260040160405180910390fd5b61010280546001600160a01b0383811673ffffffffffffffffffffffffffffffffffffffff1983168117909355604080519190921680825260208201939093527f3a2e8bb48b6b66181a226c06b9c44dd5c701a925c5b3274df2fc67ec2a097f4791015b60405180910390a15050565b3360009081527fffdfc1249c027f9191656349feb0761381bb32c9f557e01f419fd08754bf5a1b602052604090205460ff16611ce257604051636f4720fd60e11b815260040160405180910390fd5b6000816002811115611cf657611cf66144c1565b03611d1457604051634668624160e01b815260040160405180910390fd5b600083815260fd60205260409020611d2c8382614add565b50600083815260c960205260409020805482919060ff19166001836002811115611d5857611d586144c1565b02179055507f1a6f092b051adc658eb15cab830c00ed3eff5b9683f8bf9cf94ada7f53ab20e083838360405161197193929190614b9d565b3360009081527fffdfc1249c027f9191656349feb0761381bb32c9f557e01f419fd08754bf5a1b602052604090205460ff16611ddf57604051636f4720fd60e11b815260040160405180910390fd5b610100805490839055828114611e295760408051828152602081018590527f1ee3af6f21510717555493063d6a19e9b4e6c89d1c17661252a7958a20dbe5cc910160405180910390a15b610101805490839055828114611e735760408051828152602081018590527f9930eaf5503acbebf3b062708c9de948e32ed72a48e59a1cd246b8624e0e89b7910160405180910390a15b50505050565b600260cb5403611ecb5760405162461bcd60e51b815260206004820152601f60248201527f5265656e7472616e637947756172643a207265656e7472616e742063616c6c0060448201526064016109e2565b600260cb55565b60975460ff1615610a505760405162461bcd60e51b815260206004820152601060248201527f5061757361626c653a207061757365640000000000000000000000000000000060448201526064016109e2565b611f2d610949565b8560a0015114611f50576040516310dfc03360e01b815260040160405180910390fd5b6000611f5b86612ad7565b9050838114611f96576040517f29cfe74d00000000000000000000000000000000000000000000000000000000815260040160405180910390fd5b600081815260fe6020526040812090815460ff166003811115611fbb57611fbb6144c1565b14611fd95760405163ea6eda5160e01b815260040160405180910390fd5b6000876101600151511180156120105750836001600160a01b03166120048861016001516000612e53565b6001600160a01b031614155b1561202d576040516282b42960e81b815260040160405180910390fd5b600082815260ff60205260408120541561206457600083815260ff602052604090205460e089015161205f9190614910565b61206a565b8760e001515b90508681146120a5576040517f75418be100000000000000000000000000000000000000000000000000000000815260040160405180910390fd5b60006120b48960c00151612ae4565b90506000808a6101a0015151116120d8576120d38a6101000151612ae4565b6120e6565b610102546001600160a01b03165b90506001600160a01b03821661213e5782341461212f576040517f30fb764200000000000000000000000000000000000000000000000000000000815260040160405180910390fd5b6121398184612ec9565b61215d565b6121516001600160a01b0383168c612f70565b61215d8233838661310e565b505081546001600160a01b038616610100027fffffffffffffffffffffff000000000000000000000000000000000000000000909116176001178255604088015163ffffffff11156121ea576040880151825463ffffffff909116600160a81b027fffffffffffffff00000000ffffffffffffffffffffffffffffffffffffffffff9091161782556121f5565b604088015160018301555b6101a0880151511561229157610102546101408901516001600160a01b039091169063ef35accb90859061222890612ae4565b6122358c60c00151612ae4565b858d6101a001518a6040518763ffffffff1660e01b815260040161225e96959493929190614bc5565b600060405180830381600087803b15801561227857600080fd5b505af115801561228c573d6000803e3d6000fd5b505050505b7fd281ee92bab1446041582480d2c0a9dc91f855386bb27ea295faac1e992f7fe4888433886040516122c69493929190614c12565b60405180910390a1505050505050505050565b600160cb55565b6122ea8133613268565b50565b60008281526065602090815260408083206001600160a01b038516845290915290205460ff166109f55760008281526065602090815260408083206001600160a01b03851684529091529020805460ff1916600117905561234b3390565b6001600160a01b0316816001600160a01b0316837f2f8788117e7eff1d82e926ec794901d17c78024a50270940304540a733656f0d60405160405180910390a45050565b60008281526065602090815260408083206001600160a01b038516845290915290205460ff16156109f55760008281526065602090815260408083206001600160a01b0385168085529252808320805460ff1916905551339285917ff6391f5c32d9c69d2a47ea670b442974b53935d1edc7fd64eb21e047a839171b9190a45050565b61241a6132dd565b6097805460ff191690557f5db9ee0a495bf2e6ff9c91a7834c1ba4fdd244a5e8aa4e537bd38aeae4b073aa335b6040516001600160a01b03909116815260200160405180910390a1565b60ca54604080517f5c83719800000000000000000000000000000000000000000000000000000000815290516000926001600160a01b031691635c8371989160048083019260209291908290030181865afa1580156124c7573d6000803e3d6000fd5b505050506040513d601f19601f820116820180604052508101906124eb9190614c4b565b61ffff169050600060ca60009054906101000a90046001600160a01b03166001600160a01b03166335087f0a6040518163ffffffff1660e01b8152600401602060405180830381865afa158015612546573d6000803e3d6000fd5b505050506040513d601f19601f8201168201806040525081019061256a9190614c6f565b90508086101561258d57604051630a44071360e01b815260040160405180910390fd5b600061271061259c8389614910565b6125a69085614838565b6125b09190614c88565b905067ffffffffffffffff8085169086166402540be400886125d28587614caa565b6125dc9190614caa565b6125e69190614c88565b6125f09190614caa565b6125fa9190614caa565b6126096402540be40089614c88565b101561091657604051630a44071360e01b815260040160405180910390fd5b600061263582600161332f565b805190602001209050919050565b600082815260fe602052604081206001815460ff166003811115612669576126696144c1565b146126875760405163ea6eda5160e01b815260040160405180910390fd5b805461010090046001600160a01b031633146126b5576040516282b42960e81b815260040160405180910390fd5b8054600090600160a81b900463ffffffff166126d55781600101546126e5565b8154600160a81b900463ffffffff165b90508360028111156126f9576126f96144c1565b600082815260c9602052604090205460ff16600281111561271c5761271c6144c1565b1461273a576040516310dfc03360e01b815260040160405180910390fd5b815460ff19166002179091559392505050565b600061275a826020614caa565b835110156127aa5760405162461bcd60e51b815260206004820152601560248201527f746f427974657333325f6f75744f66426f756e6473000000000000000000000060448201526064016109e2565b50016020015190565b606065ff000000ff00600883811b91821664ff000000ff9185901c91821617601090811b67ff000000ff0000009390931666ff000000ff00009290921691909117901c17602081811b6bffffffffffffffff000000001691901c63ffffffff16178484868660405160200161282c959493929190614cbd565b60405160208183030381529060405290509392505050565b60606128758787878787877f5951b44f8e9042fb00000000000000000000000000000000000000000000000061358e565b979650505050505050565b600084815260fd60205260408120805482919061289c90614865565b80601f01602080910402602001604051908101604052809291908181526020018280546128c890614865565b80156129155780601f106128ea57610100808354040283529160200191612915565b820191906000526020600020905b8154815290600101906020018083116128f857829003601f168201915b50505050509050600061292984868861365f565b600088815260c9602052604090205490915060ff166001816002811115612952576129526144c1565b036129a05760148351146129795760405163be31c33b60e01b815260040160405180910390fd5b601487511461299b5760405163be31c33b60e01b815260040160405180910390fd5b612a2e565b60028160028111156129b4576129b46144c1565b036129fd5760208351146129db5760405163be31c33b60e01b815260040160405180910390fd5b602087511461299b5760405163be31c33b60e01b815260040160405180910390fd5b6040517eacc4c400000000000000000000000000000000000000000000000000000000815260040160405180910390fd5b5060ca546040517fbe2974760000000000000000000000000000000000000000000000000000000081526001600160a01b039091169063be297476903490612a879060009083908d908990849081908b90600401614e8b565b60206040518083038185885af1158015612aa5573d6000803e3d6000fd5b50505050506040513d601f19601f82011682018060405250810190612aca9190614c6f565b925050505b949350505050565b600061263582600061332f565b60008151601414612b375760405162461bcd60e51b815260206004820152601560248201527f746f416464726573735f6f75744f66426f756e6473000000000000000000000060448201526064016109e2565b50602001516c01000000000000000000000000900490565b6060636abd4ea760e01b8383604051602401612b6c929190614f02565b60408051601f198184030181529190526020810180517bffffffffffffffffffffffffffffffffffffffffffffffffffffffff166001600160e01b031990931692909217909152905092915050565b612bc3611ed2565b6097805460ff191660011790557f62e78cea01bee320cd4e420270b5ea74000d11b0c9f74754ebdbfc544b05a2586124473390565b60606128758787878787877f13617eeecc8d454c00000000000000000000000000000000000000000000000061358e565b604051602481018390526001600160a01b03821660448201526060907f5886d8d20000000000000000000000000000000000000000000000000000000090606401612b6c565b600054610100900460ff1615808015612c8f5750600054600160ff909116105b80612ca95750303b158015612ca9575060005460ff166001145b612d0c5760405162461bcd60e51b815260206004820152602e60248201527f496e697469616c697a61626c653a20636f6e747261637420697320616c72656160448201526d191e481a5b9a5d1a585b1a5e995960921b60648201526084016109e2565b6000805460ff191660011790558015612d2f576000805461ff0019166101001790555b612d376136f2565b612d3f6136f2565b612d476136f2565b612d4f61375d565b612d58826137d4565b80156109f5576000805461ff0019169055604051600181527f7f26b83ff96e1f2b6a682f133852f6798a09c465da95921460cefb384740249890602001611c87565b600054610100900460ff16612e055760405162461bcd60e51b815260206004820152602b60248201527f496e697469616c697a61626c653a20636f6e7472616374206973206e6f74206960448201526a6e697469616c697a696e6760a81b60648201526084016109e2565b610a506138c7565b604051602481018390526001600160a01b03821660448201526060907fd48b01460000000000000000000000000000000000000000000000000000000090606401612b6c565b6000612e60826014614caa565b83511015612eb05760405162461bcd60e51b815260206004820152601560248201527f746f416464726573735f6f75744f66426f756e6473000000000000000000000060448201526064016109e2565b5001602001516c01000000000000000000000000900490565b604080516000808252602082019092526001600160a01b038416908390604051612ef39190614f56565b60006040518083038185875af1925050503d8060008114612f30576040519150601f19603f3d011682016040523d82523d6000602084013e612f35565b606091505b5050905080610944576040517f6d963f8800000000000000000000000000000000000000000000000000000000815260040160405180910390fd5b8051156109f5576000612f838282613932565b90506000612f92836020613932565b905060008080612fa3866040613979565b6040517fd505accf000000000000000000000000000000000000000000000000000000008152336004820152306024820152604481018990526064810188905260ff8216608482015260a4810184905260c4810183905292955090935091506001600160a01b0388169063d505accf9060e401600060405180830381600087803b15801561303057600080fd5b505af1925050508015613041575060015b610916576040517fdd62ed3e00000000000000000000000000000000000000000000000000000000815233600482015230602482015285906001600160a01b0389169063dd62ed3e90604401602060405180830381865afa1580156130aa573d6000803e3d6000fd5b505050506040513d601f19601f820116820180604052508101906130ce9190614c6f565b106130dc5750505050505050565b6040517f710fdad900000000000000000000000000000000000000000000000000000000815260040160405180910390fd5b6040516370a0823160e01b81526001600160a01b03838116600483015285916000918316906370a0823190602401602060405180830381865afa158015613159573d6000803e3d6000fd5b505050506040513d601f19601f8201168201806040525081019061317d9190614c6f565b90506131946001600160a01b0383168686866139ff565b6040516370a0823160e01b81526001600160a01b03858116600483015260009183918516906370a0823190602401602060405180830381865afa1580156131df573d6000803e3d6000fd5b505050506040513d601f19601f820116820180604052508101906132039190614c6f565b61320d9190614910565b9050846001600160a01b0316866001600160a01b0316141580156132315750808414155b15610916576040517f80b9e73000000000000000000000000000000000000000000000000000000000815260040160405180910390fd5b60008281526065602090815260408083206001600160a01b038516845290915290205460ff166109f55761329b81613a87565b6132a6836020613a99565b6040516020016132b7929190614f72565b60408051601f198184030181529082905262461bcd60e51b82526109e2916004016144ae565b60975460ff16610a505760405162461bcd60e51b815260206004820152601460248201527f5061757361626c653a206e6f742070617573656400000000000000000000000060448201526064016109e2565b606060ff836020015151118061334a575060ff836060015151115b8061335a575060ff8360c0015151115b8061336b575060ff83610100015151115b8061337c575060ff83610120015151115b8061338d575060ff83610160015151115b8061339e575060ff83610180015151115b156133bc5760405163be31c33b60e01b815260040160405180910390fd5b825160208085015180516040516133d7949391929101614ff3565b60408051601f198184030181528282529085015160608601518051608088015160a08901519496506134119587959293929060200161503a565b60408051601f198184030181529082905260c0850151805160e0870151610100880151805194965061344c9587959394939190602001615095565b60408051601f1981840301815290829052610120850151805161014087015180519395506134839486949293929190602001615108565b60408051601f1981840301815290829052610160850151805161018087015180516101a0890151519496506134c5958795939493919291151590602001615177565b60405160208183030381529060405290506000836101a001515111156108b057811561355857826101a001515160201461352b576040517face5903500000000000000000000000000000000000000000000000000000000815260040160405180910390fd5b6101a083015160405161354291839160200161489f565b60405160208183030381529060405290506108b0565b80836101a00151805190602001206040516020016135779291906151f5565b604051602081830303815290604052905092915050565b606065ff000000ff00600884811b91821664ff000000ff9186901c91821617601090811b67ff000000ff0000009390931666ff000000ff00009290921691909117901c17602081811b6bffffffffffffffff000000001691901c63ffffffff1617878889888b898c8c8f6040516020016136119a99989796959493929190615217565b60405160208183030381529060405290508084888a8a8a8a888b604051602001613643999897969594939291906154c2565b6040516020818303038152906040529050979650505050505050565b606061368c6040518060800160405280600081526020016000815260200160608152602001606081525090565b61369c8160200151600180613c7a565b602082018190526136b09060026001613c7a565b602080830191909152604080830185905260608301879052858352516136d8918391016157f5565b6040516020818303038152906040529150505b9392505050565b600054610100900460ff16610a505760405162461bcd60e51b815260206004820152602b60248201527f496e697469616c697a61626c653a20636f6e7472616374206973206e6f74206960448201526a6e697469616c697a696e6760a81b60648201526084016109e2565b600054610100900460ff166137c85760405162461bcd60e51b815260206004820152602b60248201527f496e697469616c697a61626c653a20636f6e7472616374206973206e6f74206960448201526a6e697469616c697a696e6760a81b60648201526084016109e2565b6097805460ff19169055565b600054610100900460ff16158080156137f45750600054600160ff909116105b8061380e5750303b15801561380e575060005460ff166001145b6138715760405162461bcd60e51b815260206004820152602e60248201527f496e697469616c697a61626c653a20636f6e747261637420697320616c72656160448201526d191e481a5b9a5d1a585b1a5e995960921b60648201526084016109e2565b6000805460ff191660011790558015613894576000805461ff0019166101001790555b60ca805473ffffffffffffffffffffffffffffffffffffffff19166001600160a01b038416179055612d58600033613c9b565b600054610100900460ff166122d95760405162461bcd60e51b815260206004820152602b60248201527f496e697469616c697a61626c653a20636f6e7472616374206973206e6f74206960448201526a6e697469616c697a696e6760a81b60648201526084016109e2565b600061393f826020614caa565b835110156127aa576040517f40f0f32900000000000000000000000000000000000000000000000000000000815260040160405180910390fd5b8181016020810151604082015160419092015190919060ff16601b8110156139a9576139a6601b8261584b565b90505b8060ff16601b141580156139c157508060ff16601c14155b156139f8576040517f18ce829400000000000000000000000000000000000000000000000000000000815260040160405180910390fd5b9250925092565b604080516001600160a01b0385811660248301528416604482015260648082018490528251808303909101815260849091019091526020810180517bffffffffffffffffffffffffffffffffffffffffffffffffffffffff167f23b872dd00000000000000000000000000000000000000000000000000000000179052611e73908590613ca5565b60606108b06001600160a01b03831660145b60606000613aa8836002614838565b613ab3906002614caa565b67ffffffffffffffff811115613acb57613acb613eca565b6040519080825280601f01601f191660200182016040528015613af5576020820181803683370190505b5090507f300000000000000000000000000000000000000000000000000000000000000081600081518110613b2c57613b2c61484f565b60200101906001600160f81b031916908160001a9053507f780000000000000000000000000000000000000000000000000000000000000081600181518110613b7757613b7761484f565b60200101906001600160f81b031916908160001a9053506000613b9b846002614838565b613ba6906001614caa565b90505b6001811115613c2b577f303132333435363738396162636465660000000000000000000000000000000085600f1660108110613be757613be761484f565b1a60f81b828281518110613bfd57613bfd61484f565b60200101906001600160f81b031916908160001a90535060049490941c93613c2481615864565b9050613ba9565b5083156136eb5760405162461bcd60e51b815260206004820181905260248201527f537472696e67733a20686578206c656e67746820696e73756666696369656e7460448201526064016109e2565b60008115613c8e57506001821b83176136eb565b506001821b1983166136eb565b6109f582826122ed565b6000613cfa826040518060400160405280602081526020017f5361666545524332303a206c6f772d6c6576656c2063616c6c206661696c6564815250856001600160a01b0316613d8d9092919063ffffffff16565b9050805160001480613d1b575080806020019051810190613d1b919061587b565b6109445760405162461bcd60e51b815260206004820152602a60248201527f5361666545524332303a204552433230206f7065726174696f6e20646964206e60448201527f6f7420737563636565640000000000000000000000000000000000000000000060648201526084016109e2565b6060612acf848460008585600080866001600160a01b03168587604051613db49190614f56565b60006040518083038185875af1925050503d8060008114613df1576040519150601f19603f3d011682016040523d82523d6000602084013e613df6565b606091505b5091509150612aca8783838760608315613e71578251600003613e6a576001600160a01b0385163b613e6a5760405162461bcd60e51b815260206004820152601d60248201527f416464726573733a2063616c6c20746f206e6f6e2d636f6e747261637400000060448201526064016109e2565b5081612acf565b612acf8383815115613e865781518083602001fd5b8060405162461bcd60e51b81526004016109e291906144ae565b600060208284031215613eb257600080fd5b81356001600160e01b0319811681146136eb57600080fd5b634e487b7160e01b600052604160045260246000fd5b6040516101c0810167ffffffffffffffff81118282101715613f0457613f04613eca565b60405290565b604051601f8201601f1916810167ffffffffffffffff81118282101715613f3357613f33613eca565b604052919050565b803567ffffffffffffffff81168114613f5357600080fd5b919050565b600082601f830112613f6957600080fd5b813567ffffffffffffffff811115613f8357613f83613eca565b613f96601f8201601f1916602001613f0a565b818152846020838601011115613fab57600080fd5b816020850160208301376000918101602001919091529392505050565b60006101c08284031215613fdb57600080fd5b613fe3613ee0565b9050613fee82613f3b565b8152602082013567ffffffffffffffff8082111561400b57600080fd5b61401785838601613f58565b602084015260408401356040840152606084013591508082111561403a57600080fd5b61404685838601613f58565b60608401526080840135608084015260a084013560a084015260c084013591508082111561407357600080fd5b61407f85838601613f58565b60c084015260e084013560e0840152610100915081840135818111156140a457600080fd5b6140b086828701613f58565b8385015250610120915081840135818111156140cb57600080fd5b6140d786828701613f58565b8385015250610140915081840135818111156140f257600080fd5b6140fe86828701613f58565b83850152506101609150818401358181111561411957600080fd5b61412586828701613f58565b83850152506101809150818401358181111561414057600080fd5b61414c86828701613f58565b83850152506101a09150818401358181111561416757600080fd5b61417386828701613f58565b8385015250505092915050565b60008083601f84011261419257600080fd5b50813567ffffffffffffffff8111156141aa57600080fd5b6020830191508360208285010111156141c257600080fd5b9250929050565b6001600160a01b03811681146122ea57600080fd5b8035613f53816141c9565b600080600080600080600060c0888a03121561420457600080fd5b873567ffffffffffffffff8082111561421c57600080fd5b6142288b838c01613fc8565b985060208a0135975060408a0135965060608a013591508082111561424c57600080fd5b506142598a828b01614180565b909550935050608088013561426d816141c9565b915060a088013561427d816141c9565b8091505092959891949750929550565b60006020828403121561429f57600080fd5b5035919050565b600080604083850312156142b957600080fd5b8235915060208301356142cb816141c9565b809150509250929050565b600067ffffffffffffffff8211156142f0576142f0613eca565b5060051b60200190565b600080600080600060a0868803121561431257600080fd5b853567ffffffffffffffff8082111561432a57600080fd5b818801915088601f83011261433e57600080fd5b8135602061435361434e836142d6565b613f0a565b82815260059290921b8401810191818101908c84111561437257600080fd5b8286015b848110156143aa5780358681111561438e5760008081fd5b61439c8f86838b0101613fc8565b845250918301918301614376565b5099505089013596505050604087013593506143ca905060608701613f3b565b91506143d860808701613f3b565b90509295509295909350565b6000602082840312156143f657600080fd5b813567ffffffffffffffff81111561440d57600080fd5b612acf84828501613fc8565b6000806040838503121561442c57600080fd5b823567ffffffffffffffff81111561444357600080fd5b61444f85828601613fc8565b95602094909401359450505050565b60005b83811015614479578181015183820152602001614461565b50506000910152565b6000815180845261449a81602086016020860161445e565b601f01601f19169290920160200192915050565b6020815260006136eb6020830184614482565b634e487b7160e01b600052602160045260246000fd5b60808101600486106144eb576144eb6144c1565b9481526001600160a01b0393909316602084015263ffffffff91909116604083015260609091015290565b60008060006060848603121561452b57600080fd5b833567ffffffffffffffff81111561454257600080fd5b8401601f8101861361455357600080fd5b8035602061456361434e836142d6565b82815260059290921b8301810191818101908984111561458257600080fd5b938201935b838510156145a057843582529382019390820190614587565b96506145af90508782016141de565b9450505050604084013590509250925092565b600080600080600060a086880312156145da57600080fd5b853567ffffffffffffffff8111156145f157600080fd5b6145fd88828901613fc8565b95505060208601359350604086013592506143ca60608701613f3b565b6003811061462a5761462a6144c1565b9052565b602081016108b0828461461a565b60008060006060848603121561465157600080fd5b833592506020840135614663816141c9565b929592945050506040919091013590565b60008060008060008060a0878903121561468d57600080fd5b863567ffffffffffffffff808211156146a557600080fd5b6146b18a838b01613fc8565b9750602089013596506040890135955060608901359150808211156146d557600080fd5b506146e289828a01614180565b90945092505060808701356146f6816141c9565b809150509295509295509295565b6000806040838503121561471757600080fd5b8235614722816141c9565b9150602083013563ffffffff811681146142cb57600080fd5b60008060006060848603121561475057600080fd5b833567ffffffffffffffff81111561476757600080fd5b61477386828701613fc8565b9350506020840135614663816141c9565b60006020828403121561479657600080fd5b81356136eb816141c9565b6000806000606084860312156147b657600080fd5b83359250602084013567ffffffffffffffff8111156147d457600080fd5b6147e086828701613f58565b9250506040840135600381106147f557600080fd5b809150509250925092565b6000806040838503121561481357600080fd5b50508035926020909101359150565b634e487b7160e01b600052601160045260246000fd5b80820281158282048414176108b0576108b0614822565b634e487b7160e01b600052603260045260246000fd5b600181811c9082168061487957607f821691505b60208210810361489957634e487b7160e01b600052602260045260246000fd5b50919050565b600083516148b181846020880161445e565b8351908301906148c581836020880161445e565b01949350505050565b6000600182016148e0576148e0614822565b5060010190565b8381526060602082015260006149006060830185614482565b9050826040830152949350505050565b818103818111156108b0576108b0614822565b805167ffffffffffffffff16825260006101c0602083015181602086015261494d82860182614482565b91505060408301516040850152606083015184820360608601526149718282614482565b9150506080830151608085015260a083015160a085015260c083015184820360c086015261499f8282614482565b91505060e083015160e085015261010080840151858303828701526149c48382614482565b9250505061012080840151858303828701526149e08382614482565b9250505061014080840151858303828701526149fc8382614482565b925050506101608084015185830382870152614a188382614482565b925050506101808084015185830382870152614a348382614482565b925050506101a08084015185830382870152614a508382614482565b9695505050505050565b608081526000614a6d6080830187614923565b8560208401528281036040840152614a858186614482565b91505082606083015295945050505050565b601f82111561094457600081815260208120601f850160051c81016020861015614abe5750805b601f850160051c820191505b8181101561182357828155600101614aca565b815167ffffffffffffffff811115614af757614af7613eca565b614b0b81614b058454614865565b84614a97565b602080601f831160018114614b405760008415614b285750858301515b600019600386901b1c1916600185901b178555611823565b600085815260208120601f198616915b82811015614b6f57888601518255948401946001909101908401614b50565b5085821015614b8d5787850151600019600388901b60f8161c191681555b5050505050600190811b01905550565b838152606060208201526000614bb66060830185614482565b9050612acf604083018461461a565b86815260006001600160a01b038088166020840152808716604084015285606084015260c06080840152614bfc60c0840186614482565b915080841660a084015250979650505050505050565b608081526000614c256080830187614923565b6020830195909552506001600160a01b0392831660408201529116606090910152919050565b600060208284031215614c5d57600080fd5b815161ffff811681146136eb57600080fd5b600060208284031215614c8157600080fd5b5051919050565b600082614ca557634e487b7160e01b600052601260045260246000fd5b500490565b808201808211156108b0576108b0614822565b6001600160c01b03198660c01b1681527f01f01d1f00000000000000000001010000000000000001000000000000000100600882015260007d8c97258f4e2489f1bb3d1029148e0d830b5a1399daff1084048e7bd8dbe98060288401527ff859030000000000000000000000200000000000000000000000000000000000604884015286605e840152614d98607e84017b200000000000000006ddf6e1d765a193d9cbe146ceeb79ac1cb485ed81527f5f5b37913a8cf5857eff00a90000000020000000000000000000000000000000602082015260380190565b8681528160208201527ff85906000000000000001968562fef0aab1b1d8f99d44306595cd4ba41d7cc8960408201527f9c007a774d23ad702ff601019f3d96f657370bf1dbb3313efba51ea7a08296ac60608201527f33d77b949e1b62d538db37f20001000000000000000000000000000000000000608082015285608e820152614e2a60ae82016000815260020190565b94855250506000602084015250507b06ddf6e1d765a193d9cbe146ceeb79ac1cb485ed5f5b37913a8cf58560408201527f7eff00a9000001000000000000000100000000000000000000000000000000006060820152606f01949350505050565b60006101006001600160a01b038a168352886020840152876040840152806060840152614eba81840188614482565b90508281038060808501526000825286151560a085015263ffffffff861660c08501526020810160e085015250614ef46020820185614482565b9a9950505050505050505050565b604080825283519082018190526000906020906060840190828701845b82811015614f3b57815184529284019290840190600101614f1f565b5050506001600160a01b039490941692019190915250919050565b60008251614f6881846020870161445e565b9190910192915050565b7f416363657373436f6e74726f6c3a206163636f756e7420000000000000000000815260008351614faa81601785016020880161445e565b7f206973206d697373696e6720726f6c65200000000000000000000000000000006017918401918201528351614fe781602884016020880161445e565b01602801949350505050565b6001600160c01b03198460c01b1681526001600160f81b03198360f81b1660088201526000825161502b81600985016020870161445e565b91909101600901949350505050565b6000875161504c818460208c0161445e565b80830190508781526001600160f81b03198760f81b166020820152855161507a816021840160208a0161445e565b01602181019490945250506041820152606101949350505050565b600087516150a7818460208c0161445e565b80830190506001600160f81b0319808960f81b16825287516150d0816001850160208c0161445e565b6001920191820187905260f886901b16602182015283516150f881602284016020880161445e565b0160220198975050505050505050565b6000865161511a818460208b0161445e565b80830190506001600160f81b0319808860f81b1682528651615143816001850160208b0161445e565b808301925050808660f81b16600183015250835161516881600284016020880161445e565b01600201979650505050505050565b60008751615189818460208c0161445e565b80830190506001600160f81b0319808960f81b16825287516151b2816001850160208c0161445e565b808301925050808760f81b1660018301525084516151d781600284016020890161445e565b93151560f81b93016002810193909352505060030195945050505050565b6000835161520781846020880161445e565b9190910191825250602001919050565b6001600160c01b03198b60c01b1681527a01070000000000000002000000000000000100000000000000000060088201528960228201527f010000000000000000000000050000000000000053544154450003000000000060428201527d010000000000000000000000000000000000000000000000000000000000606282015288606882015260006152ef608883017f0100000000000000000000000a00000000000000464545204c45444745520004815278010000000000000000000000000000000000000000000000006020820152602b0190565b89815260206153368183017f02000000000000000000000011000000000000004645455f4c45444745525f57815269020a62622aa00000000160b51b602082015260310190565b91508982526153698183017e060000000000000001000000000000000000000000000000000000000000008152600d0190565b91508882526153c38183017f0200000000000000000000001000000000000000474956455f4f524445525f5381527f5441544500000000200000000000000000000000000000000000000000000000602082015260300190565b91508782526154238183017e0700000000000000010000008c97258f4e2489f1bb3d1029148e0d830b5a1381527f99daff1084048e7bd8dbe9f8590300000000000000000000002000000000000060208201526000604082015260410190565b91508682526154798183017b200000000000000006ddf6e1d765a193d9cbe146ceeb79ac1cb485ed81527f5f5b37913a8cf5857eff00a90000000020000000000000000000000000000000602082015260380190565b91508582526154ac8183017e090000000000000001000000000000000000000000000000000000000000008152600d0190565b9485529093019c9b505050505050505050505050565b60008a516154d4818460208f0161445e565b80830190507f0200000000000000000000001100000000000000474956455f4f524445525f57815269020a62622aa00000000160b51b60208201528a60318201527e0b000000000000000100000000000000000000000000000000000000000000605182015289605e8201527f0200000000000000000000001800000000000000415554484f52495a45445f4e607e8201527f41544956455f53454e4445520000000020000000000000000000000000000000609e8201528860b68201526155a360d682016000815260020190565b97885250507f0d0000000000000062584959deb8a728a91cebdc187b545d920479265052145f6020870152507f31fb80c73fac5aea00001968562fef0aab1b1d8f99d44306595cd4ba41d7cc8960408601527f9c007a774d23ad702ff60101980176896e24d940ee6f0a89d0020e1cd53aa3d160608601527f7be42270bb39223f6ed75c6300018c6ecc336484fb8f32871d3c1656d832cc8660808601527feb2465048fea348cde76ae57233100014026e8772b7640ce6fb9fd348473f43d60a08601527ff344e3dcd89a43c93db81ee6efe08e67000106a7d517187bd16635dad40455fd60c08601527fc2c0c124c68f215675a5dbbacb5f080000000000107fe6a33e564217c5773c6060e08601527f4a479581564c5e4c12465d65c9374ee2190f5ee400019f3d96f657370bf1dbb36101008601527f313efba51ea7a08296ac33d77b949e1b62d538db37f2000100000000000000006101208601526101388501939093527e011507b8f891ebbfc57577d4d2e6a2b52dc0a744eba2be503e686d0d07d19e6101588501527f6ec700010000000000000000000000000000000000000000000000000000000061017885015261017c8401919091527defe9c4afa6dc798a27b0c18e3cf0b76ad3fe8cc93764f6cb3112f9397f2c61019c8401527fd1c6000006ddf6e1d765a193d9cbe146ceeb79ac1cb485ed5f5b37913a8cf5856101bc8401527f7eff00a9000028000000000000000000000000000000000000000000000000006101dc8401526001600160c01b0319166101ea8301526101f282015261021201949350505050565b602081528151602082015260208201516040820152600060408301516080606084015261582560a0840182614482565b90506060840151601f198483030160808501526158428282614482565b95945050505050565b60ff81811683821601908111156108b0576108b0614822565b60008161587357615873614822565b506000190190565b60006020828403121561588d57600080fd5b815180151581146136eb57600080fdfea26469706673582212204855c44633a5ee6a17ba205b0516fa726af7769cbb51606d4d47f496f8bf201e64736f6c63430008110033",
  "linkReferences": {},
  "deployedLinkReferences": {}
}