{
    "abi": [
        {
            "type": "function",
            "name": "CURATOR_ROLE",
            "inputs": [],
            "outputs": [
                {
                    "name": "",
                    "type": "bytes32",
                    "internalType": "bytes32"
                }
            ],
            "stateMutability": "view"
        },
        {
            "type": "function",
            "name": "DEFAULT_ADMIN_ROLE",
            "inputs": [],
            "outputs": [
                {
                    "name": "",
                    "type": "bytes32",
                    "internalType": "bytes32"
                }
            ],
            "stateMutability": "view"
        },
        {
            "type": "function",
            "name": "DLN_DESTINATION",
            "inputs": [],
            "outputs": [
                {
                    "name": "",
                    "type": "address",
                    "internalType": "address"
                }
            ],
            "stateMutability": "view"
        },
        {
            "type": "function",
            "name": "GUARDIAN_ROLE",
            "inputs": [],
            "outputs": [
                {
                    "name": "",
                    "type": "bytes32",
                    "internalType": "bytes32"
                }
            ],
            "stateMutability": "view"
        },
        {
            "type": "function",
            "name": "UPGRADE_INTERFACE_VERSION",
            "inputs": [],
            "outputs": [
                {
                    "name": "",
                    "type": "string",
                    "internalType": "string"
                }
            ],
            "stateMutability": "view"
        },
        {
            "type": "function",
            "name": "bridgeErc20ViaDeBridge",
            "inputs": [
                {
                    "name": "giveTokenAddress",
                    "type": "address",
                    "internalType": "address"
                },
                {
                    "name": "giveAmount",
                    "type": "uint256",
                    "internalType": "uint256"
                },
                {
                    "name": "takeAmount",
                    "type": "uint256",
                    "internalType": "uint256"
                },
                {
                    "name": "takeTokenAddress",
                    "type": "address",
                    "internalType": "address"
                },
                {
                    "name": "nativeFee",
                    "type": "uint256",
                    "internalType": "uint256"
                },
                {
                    "name": "salt",
                    "type": "uint64",
                    "internalType": "uint64"
                },
                {
                    "name": "verificationPayloads",
                    "type": "tuple[2]",
                    "internalType": "struct IVerifier.VerificationPayload[2]",
                    "components": [
                        {
                            "name": "verificationType",
                            "type": "uint8",
                            "internalType": "enum IVerifier.VerificationType"
                        },
                        {
                            "name": "verificationData",
                            "type": "bytes",
                            "internalType": "bytes"
                        },
                        {
                            "name": "proof",
                            "type": "bytes32[]",
                            "internalType": "bytes32[]"
                        }
                    ]
                }
            ],
            "outputs": [
                {
                    "name": "orderId",
                    "type": "bytes32",
                    "internalType": "bytes32"
                }
            ],
            "stateMutability": "payable"
        },
        {
            "type": "function",
            "name": "bridgeNativeViaDeBridge",
            "inputs": [
                {
                    "name": "giveAmount",
                    "type": "uint256",
                    "internalType": "uint256"
                },
                {
                    "name": "takeAmount",
                    "type": "uint256",
                    "internalType": "uint256"
                },
                {
                    "name": "takeTokenAddress",
                    "type": "address",
                    "internalType": "address"
                },
                {
                    "name": "nativeFee",
                    "type": "uint256",
                    "internalType": "uint256"
                },
                {
                    "name": "salt",
                    "type": "uint64",
                    "internalType": "uint64"
                },
                {
                    "name": "verificationPayload",
                    "type": "tuple",
                    "internalType": "struct IVerifier.VerificationPayload",
                    "components": [
                        {
                            "name": "verificationType",
                            "type": "uint8",
                            "internalType": "enum IVerifier.VerificationType"
                        },
                        {
                            "name": "verificationData",
                            "type": "bytes",
                            "internalType": "bytes"
                        },
                        {
                            "name": "proof",
                            "type": "bytes32[]",
                            "internalType": "bytes32[]"
                        }
                    ]
                }
            ],
            "outputs": [
                {
                    "name": "orderId",
                    "type": "bytes32",
                    "internalType": "bytes32"
                }
            ],
            "stateMutability": "payable"
        },
        {
            "type": "function",
            "name": "bridgeRecipient",
            "inputs": [],
            "outputs": [
                {
                    "name": "",
                    "type": "address",
                    "internalType": "address"
                }
            ],
            "stateMutability": "view"
        },
        {
            "type": "function",
            "name": "bridgeUsdcViaCctpV2",
            "inputs": [
                {
                    "name": "amount",
                    "type": "uint256",
                    "internalType": "uint256"
                },
                {
                    "name": "maxFee",
                    "type": "uint256",
                    "internalType": "uint256"
                },
                {
                    "name": "minFinalityThreshold",
                    "type": "uint32",
                    "internalType": "uint32"
                },
                {
                    "name": "verificationPayloads",
                    "type": "tuple[2]",
                    "internalType": "struct IVerifier.VerificationPayload[2]",
                    "components": [
                        {
                            "name": "verificationType",
                            "type": "uint8",
                            "internalType": "enum IVerifier.VerificationType"
                        },
                        {
                            "name": "verificationData",
                            "type": "bytes",
                            "internalType": "bytes"
                        },
                        {
                            "name": "proof",
                            "type": "bytes32[]",
                            "internalType": "bytes32[]"
                        }
                    ]
                }
            ],
            "outputs": [],
            "stateMutability": "nonpayable"
        },
        {
            "type": "function",
            "name": "cctpV2DestinationDomain",
            "inputs": [],
            "outputs": [
                {
                    "name": "",
                    "type": "uint32",
                    "internalType": "uint32"
                }
            ],
            "stateMutability": "view"
        },
        {
            "type": "function",
            "name": "cctpV2MessageTransmitter",
            "inputs": [],
            "outputs": [
                {
                    "name": "",
                    "type": "address",
                    "internalType": "address"
                }
            ],
            "stateMutability": "view"
        },
        {
            "type": "function",
            "name": "cctpV2TokenMessenger",
            "inputs": [],
            "outputs": [
                {
                    "name": "",
                    "type": "address",
                    "internalType": "address"
                }
            ],
            "stateMutability": "view"
        },
        {
            "type": "function",
            "name": "deBridgeOrderAuthority",
            "inputs": [],
            "outputs": [
                {
                    "name": "",
                    "type": "address",
                    "internalType": "address"
                }
            ],
            "stateMutability": "view"
        },
        {
            "type": "function",
            "name": "deBridgeTakeChainId",
            "inputs": [],
            "outputs": [
                {
                    "name": "",
                    "type": "uint256",
                    "internalType": "uint256"
                }
            ],
            "stateMutability": "view"
        },
        {
            "type": "function",
            "name": "disableCctpV2",
            "inputs": [],
            "outputs": [],
            "stateMutability": "nonpayable"
        },
        {
            "type": "function",
            "name": "disableDeBridge",
            "inputs": [],
            "outputs": [],
            "stateMutability": "nonpayable"
        },
        {
            "type": "function",
            "name": "enableCctpV2",
            "inputs": [],
            "outputs": [],
            "stateMutability": "nonpayable"
        },
        {
            "type": "function",
            "name": "enableDeBridge",
            "inputs": [],
            "outputs": [],
            "stateMutability": "nonpayable"
        },
        {
            "type": "function",
            "name": "getRoleAdmin",
            "inputs": [
                {
                    "name": "role",
                    "type": "bytes32",
                    "internalType": "bytes32"
                }
            ],
            "outputs": [
                {
                    "name": "",
                    "type": "bytes32",
                    "internalType": "bytes32"
                }
            ],
            "stateMutability": "view"
        },
        {
            "type": "function",
            "name": "getRoleMember",
            "inputs": [
                {
                    "name": "role",
                    "type": "bytes32",
                    "internalType": "bytes32"
                },
                {
                    "name": "index",
                    "type": "uint256",
                    "internalType": "uint256"
                }
            ],
            "outputs": [
                {
                    "name": "",
                    "type": "address",
                    "internalType": "address"
                }
            ],
            "stateMutability": "view"
        },
        {
            "type": "function",
            "name": "getRoleMemberCount",
            "inputs": [
                {
                    "name": "role",
                    "type": "bytes32",
                    "internalType": "bytes32"
                }
            ],
            "outputs": [
                {
                    "name": "",
                    "type": "uint256",
                    "internalType": "uint256"
                }
            ],
            "stateMutability": "view"
        },
        {
            "type": "function",
            "name": "getRoleMembers",
            "inputs": [
                {
                    "name": "role",
                    "type": "bytes32",
                    "internalType": "bytes32"
                }
            ],
            "outputs": [
                {
                    "name": "",
                    "type": "address[]",
                    "internalType": "address[]"
                }
            ],
            "stateMutability": "view"
        },
        {
            "type": "function",
            "name": "grantRole",
            "inputs": [
                {
                    "name": "role",
                    "type": "bytes32",
                    "internalType": "bytes32"
                },
                {
                    "name": "account",
                    "type": "address",
                    "internalType": "address"
                }
            ],
            "outputs": [],
            "stateMutability": "nonpayable"
        },
        {
            "type": "function",
            "name": "hasRole",
            "inputs": [
                {
                    "name": "role",
                    "type": "bytes32",
                    "internalType": "bytes32"
                },
                {
                    "name": "account",
                    "type": "address",
                    "internalType": "address"
                }
            ],
            "outputs": [
                {
                    "name": "",
                    "type": "bool",
                    "internalType": "bool"
                }
            ],
            "stateMutability": "view"
        },
        {
            "type": "function",
            "name": "initialize",
            "inputs": [
                {
                    "name": "subvault",
                    "type": "address",
                    "internalType": "address"
                },
                {
                    "name": "admin",
                    "type": "address",
                    "internalType": "address"
                },
                {
                    "name": "guardian",
                    "type": "address",
                    "internalType": "address"
                },
                {
                    "name": "curator",
                    "type": "address",
                    "internalType": "address"
                },
                {
                    "name": "bridgeRecipient",
                    "type": "address",
                    "internalType": "address"
                },
                {
                    "name": "cctpV2Config",
                    "type": "tuple",
                    "internalType": "struct CctpV2BridgeModule.CctpV2Config",
                    "components": [
                        {
                            "name": "usdc",
                            "type": "address",
                            "internalType": "address"
                        },
                        {
                            "name": "destinationDomain",
                            "type": "uint32",
                            "internalType": "uint32"
                        },
                        {
                            "name": "tokenMessenger",
                            "type": "address",
                            "internalType": "address"
                        },
                        {
                            "name": "messageTransmitter",
                            "type": "address",
                            "internalType": "address"
                        }
                    ]
                }
            ],
            "outputs": [],
            "stateMutability": "nonpayable"
        },
        {
            "type": "function",
            "name": "initializeDeBridge",
            "inputs": [
                {
                    "name": "takeChainId",
                    "type": "uint256",
                    "internalType": "uint256"
                },
                {
                    "name": "orderAuthority",
                    "type": "address",
                    "internalType": "address"
                }
            ],
            "outputs": [],
            "stateMutability": "nonpayable"
        },
        {
            "type": "function",
            "name": "isCctpV2Enabled",
            "inputs": [],
            "outputs": [
                {
                    "name": "",
                    "type": "bool",
                    "internalType": "bool"
                }
            ],
            "stateMutability": "view"
        },
        {
            "type": "function",
            "name": "isDeBridgeEnabled",
            "inputs": [],
            "outputs": [
                {
                    "name": "",
                    "type": "bool",
                    "internalType": "bool"
                }
            ],
            "stateMutability": "view"
        },
        {
            "type": "function",
            "name": "pause",
            "inputs": [],
            "outputs": [],
            "stateMutability": "nonpayable"
        },
        {
            "type": "function",
            "name": "paused",
            "inputs": [],
            "outputs": [
                {
                    "name": "",
                    "type": "bool",
                    "internalType": "bool"
                }
            ],
            "stateMutability": "view"
        },
        {
            "type": "function",
            "name": "proxiableUUID",
            "inputs": [],
            "outputs": [
                {
                    "name": "",
                    "type": "bytes32",
                    "internalType": "bytes32"
                }
            ],
            "stateMutability": "view"
        },
        {
            "type": "function",
            "name": "receiveUsdcViaCctpV2",
            "inputs": [
                {
                    "name": "message",
                    "type": "bytes",
                    "internalType": "bytes"
                },
                {
                    "name": "attestation",
                    "type": "bytes",
                    "internalType": "bytes"
                }
            ],
            "outputs": [
                {
                    "name": "",
                    "type": "bool",
                    "internalType": "bool"
                }
            ],
            "stateMutability": "nonpayable"
        },
        {
            "type": "function",
            "name": "renounceRole",
            "inputs": [
                {
                    "name": "role",
                    "type": "bytes32",
                    "internalType": "bytes32"
                },
                {
                    "name": "callerConfirmation",
                    "type": "address",
                    "internalType": "address"
                }
            ],
            "outputs": [],
            "stateMutability": "nonpayable"
        },
        {
            "type": "function",
            "name": "revokeRole",
            "inputs": [
                {
                    "name": "role",
                    "type": "bytes32",
                    "internalType": "bytes32"
                },
                {
                    "name": "account",
                    "type": "address",
                    "internalType": "address"
                }
            ],
            "outputs": [],
            "stateMutability": "nonpayable"
        },
        {
            "type": "function",
            "name": "setDeBridgeOrderAuthority",
            "inputs": [
                {
                    "name": "orderAuthority",
                    "type": "address",
                    "internalType": "address"
                }
            ],
            "outputs": [],
            "stateMutability": "nonpayable"
        },
        {
            "type": "function",
            "name": "subvault",
            "inputs": [],
            "outputs": [
                {
                    "name": "",
                    "type": "address",
                    "internalType": "address"
                }
            ],
            "stateMutability": "view"
        },
        {
            "type": "function",
            "name": "supportsInterface",
            "inputs": [
                {
                    "name": "interfaceId",
                    "type": "bytes4",
                    "internalType": "bytes4"
                }
            ],
            "outputs": [
                {
                    "name": "",
                    "type": "bool",
                    "internalType": "bool"
                }
            ],
            "stateMutability": "view"
        },
        {
            "type": "function",
            "name": "unpause",
            "inputs": [],
            "outputs": [],
            "stateMutability": "nonpayable"
        },
        {
            "type": "function",
            "name": "upgradeToAndCall",
            "inputs": [
                {
                    "name": "newImplementation",
                    "type": "address",
                    "internalType": "address"
                },
                {
                    "name": "data",
                    "type": "bytes",
                    "internalType": "bytes"
                }
            ],
            "outputs": [],
            "stateMutability": "payable"
        },
        {
            "type": "function",
            "name": "usdc",
            "inputs": [],
            "outputs": [
                {
                    "name": "",
                    "type": "address",
                    "internalType": "address"
                }
            ],
            "stateMutability": "view"
        },
        {
            "type": "event",
            "name": "CCTPv2StatusUpdated",
            "inputs": [
                {
                    "name": "enabled",
                    "type": "bool",
                    "indexed": false,
                    "internalType": "bool"
                }
            ],
            "anonymous": false
        },
        {
            "type": "event",
            "name": "CctpV2UsdcBridgeInitiated",
            "inputs": [
                {
                    "name": "curator",
                    "type": "address",
                    "indexed": true,
                    "internalType": "address"
                },
                {
                    "name": "destinationDomain",
                    "type": "uint32",
                    "indexed": true,
                    "internalType": "uint32"
                },
                {
                    "name": "amount",
                    "type": "uint256",
                    "indexed": false,
                    "internalType": "uint256"
                },
                {
                    "name": "maxFee",
                    "type": "uint256",
                    "indexed": false,
                    "internalType": "uint256"
                },
                {
                    "name": "minFinalityThreshold",
                    "type": "uint32",
                    "indexed": false,
                    "internalType": "uint32"
                },
                {
                    "name": "recipient",
                    "type": "address",
                    "indexed": false,
                    "internalType": "address"
                }
            ],
            "anonymous": false
        },
        {
            "type": "event",
            "name": "CctpV2UsdcMessageReceived",
            "inputs": [
                {
                    "name": "curator",
                    "type": "address",
                    "indexed": true,
                    "internalType": "address"
                },
                {
                    "name": "messageHash",
                    "type": "bytes32",
                    "indexed": true,
                    "internalType": "bytes32"
                },
                {
                    "name": "attestationHash",
                    "type": "bytes32",
                    "indexed": true,
                    "internalType": "bytes32"
                }
            ],
            "anonymous": false
        },
        {
            "type": "event",
            "name": "DeBridgeOrderAuthorityUpdated",
            "inputs": [
                {
                    "name": "orderAuthority",
                    "type": "address",
                    "indexed": false,
                    "internalType": "address"
                }
            ],
            "anonymous": false
        },
        {
            "type": "event",
            "name": "DeBridgeStatusUpdated",
            "inputs": [
                {
                    "name": "enabled",
                    "type": "bool",
                    "indexed": false,
                    "internalType": "bool"
                }
            ],
            "anonymous": false
        },
        {
            "type": "event",
            "name": "DlnErc20BridgeInitiated",
            "inputs": [
                {
                    "name": "curator",
                    "type": "address",
                    "indexed": true,
                    "internalType": "address"
                },
                {
                    "name": "salt",
                    "type": "uint64",
                    "indexed": true,
                    "internalType": "uint64"
                },
                {
                    "name": "orderId",
                    "type": "bytes32",
                    "indexed": true,
                    "internalType": "bytes32"
                },
                {
                    "name": "giveToken",
                    "type": "address",
                    "indexed": false,
                    "internalType": "address"
                },
                {
                    "name": "giveAmount",
                    "type": "uint256",
                    "indexed": false,
                    "internalType": "uint256"
                },
                {
                    "name": "takeToken",
                    "type": "address",
                    "indexed": false,
                    "internalType": "address"
                },
                {
                    "name": "takeAmount",
                    "type": "uint256",
                    "indexed": false,
                    "internalType": "uint256"
                },
                {
                    "name": "takeChainId",
                    "type": "uint256",
                    "indexed": false,
                    "internalType": "uint256"
                },
                {
                    "name": "recipient",
                    "type": "address",
                    "indexed": false,
                    "internalType": "address"
                },
                {
                    "name": "nativeFee",
                    "type": "uint256",
                    "indexed": false,
                    "internalType": "uint256"
                }
            ],
            "anonymous": false
        },
        {
            "type": "event",
            "name": "DlnNativeBridgeInitiated",
            "inputs": [
                {
                    "name": "curator",
                    "type": "address",
                    "indexed": true,
                    "internalType": "address"
                },
                {
                    "name": "salt",
                    "type": "uint64",
                    "indexed": true,
                    "internalType": "uint64"
                },
                {
                    "name": "orderId",
                    "type": "bytes32",
                    "indexed": true,
                    "internalType": "bytes32"
                },
                {
                    "name": "giveAmount",
                    "type": "uint256",
                    "indexed": false,
                    "internalType": "uint256"
                },
                {
                    "name": "takeToken",
                    "type": "address",
                    "indexed": false,
                    "internalType": "address"
                },
                {
                    "name": "takeAmount",
                    "type": "uint256",
                    "indexed": false,
                    "internalType": "uint256"
                },
                {
                    "name": "takeChainId",
                    "type": "uint256",
                    "indexed": false,
                    "internalType": "uint256"
                },
                {
                    "name": "recipient",
                    "type": "address",
                    "indexed": false,
                    "internalType": "address"
                },
                {
                    "name": "nativeFee",
                    "type": "uint256",
                    "indexed": false,
                    "internalType": "uint256"
                }
            ],
            "anonymous": false
        },
        {
            "type": "event",
            "name": "Initialized",
            "inputs": [
                {
                    "name": "version",
                    "type": "uint64",
                    "indexed": false,
                    "internalType": "uint64"
                }
            ],
            "anonymous": false
        },
        {
            "type": "event",
            "name": "Paused",
            "inputs": [
                {
                    "name": "account",
                    "type": "address",
                    "indexed": false,
                    "internalType": "address"
                }
            ],
            "anonymous": false
        },
        {
            "type": "event",
            "name": "RoleAdminChanged",
            "inputs": [
                {
                    "name": "role",
                    "type": "bytes32",
                    "indexed": true,
                    "internalType": "bytes32"
                },
                {
                    "name": "previousAdminRole",
                    "type": "bytes32",
                    "indexed": true,
                    "internalType": "bytes32"
                },
                {
                    "name": "newAdminRole",
                    "type": "bytes32",
                    "indexed": true,
                    "internalType": "bytes32"
                }
            ],
            "anonymous": false
        },
        {
            "type": "event",
            "name": "RoleGranted",
            "inputs": [
                {
                    "name": "role",
                    "type": "bytes32",
                    "indexed": true,
                    "internalType": "bytes32"
                },
                {
                    "name": "account",
                    "type": "address",
                    "indexed": true,
                    "internalType": "address"
                },
                {
                    "name": "sender",
                    "type": "address",
                    "indexed": true,
                    "internalType": "address"
                }
            ],
            "anonymous": false
        },
        {
            "type": "event",
            "name": "RoleRevoked",
            "inputs": [
                {
                    "name": "role",
                    "type": "bytes32",
                    "indexed": true,
                    "internalType": "bytes32"
                },
                {
                    "name": "account",
                    "type": "address",
                    "indexed": true,
                    "internalType": "address"
                },
                {
                    "name": "sender",
                    "type": "address",
                    "indexed": true,
                    "internalType": "address"
                }
            ],
            "anonymous": false
        },
        {
            "type": "event",
            "name": "Unpaused",
            "inputs": [
                {
                    "name": "account",
                    "type": "address",
                    "indexed": false,
                    "internalType": "address"
                }
            ],
            "anonymous": false
        },
        {
            "type": "event",
            "name": "Upgraded",
            "inputs": [
                {
                    "name": "implementation",
                    "type": "address",
                    "indexed": true,
                    "internalType": "address"
                }
            ],
            "anonymous": false
        },
        {
            "type": "error",
            "name": "AccessControlBadConfirmation",
            "inputs": []
        },
        {
            "type": "error",
            "name": "AccessControlUnauthorizedAccount",
            "inputs": [
                {
                    "name": "account",
                    "type": "address",
                    "internalType": "address"
                },
                {
                    "name": "neededRole",
                    "type": "bytes32",
                    "internalType": "bytes32"
                }
            ]
        },
        {
            "type": "error",
            "name": "AddressEmptyCode",
            "inputs": [
                {
                    "name": "target",
                    "type": "address",
                    "internalType": "address"
                }
            ]
        },
        {
            "type": "error",
            "name": "BridgeApproveFailed",
            "inputs": []
        },
        {
            "type": "error",
            "name": "BridgeNotInitialized",
            "inputs": []
        },
        {
            "type": "error",
            "name": "CCTPv2Disabled",
            "inputs": []
        },
        {
            "type": "error",
            "name": "CallFailed",
            "inputs": []
        },
        {
            "type": "error",
            "name": "DeBridgeDisabled",
            "inputs": []
        },
        {
            "type": "error",
            "name": "DeBridgeNotInitialized",
            "inputs": []
        },
        {
            "type": "error",
            "name": "ERC1967InvalidImplementation",
            "inputs": [
                {
                    "name": "implementation",
                    "type": "address",
                    "internalType": "address"
                }
            ]
        },
        {
            "type": "error",
            "name": "ERC1967NonPayable",
            "inputs": []
        },
        {
            "type": "error",
            "name": "EmptyAttestation",
            "inputs": []
        },
        {
            "type": "error",
            "name": "EmptyMessage",
            "inputs": []
        },
        {
            "type": "error",
            "name": "EnforcedPause",
            "inputs": []
        },
        {
            "type": "error",
            "name": "ExpectedPause",
            "inputs": []
        },
        {
            "type": "error",
            "name": "FailedCall",
            "inputs": []
        },
        {
            "type": "error",
            "name": "InvalidChainId",
            "inputs": []
        },
        {
            "type": "error",
            "name": "InvalidInitialization",
            "inputs": []
        },
        {
            "type": "error",
            "name": "InvalidMsgValue",
            "inputs": []
        },
        {
            "type": "error",
            "name": "MaxFeeTooHigh",
            "inputs": []
        },
        {
            "type": "error",
            "name": "NotInitializing",
            "inputs": []
        },
        {
            "type": "error",
            "name": "UUPSUnauthorizedCallContext",
            "inputs": []
        },
        {
            "type": "error",
            "name": "UUPSUnsupportedProxiableUUID",
            "inputs": [
                {
                    "name": "slot",
                    "type": "bytes32",
                    "internalType": "bytes32"
                }
            ]
        },
        {
            "type": "error",
            "name": "ZeroAddress",
            "inputs": []
        },
        {
            "type": "error",
            "name": "ZeroAmount",
            "inputs": []
        }
    ],
    "bytecode": {
        "object": "0x60a060405230608052348015610013575f5ffd5b5061001c610021565b6100d3565b7ff0c57e16840df040f15088dc2f81fe391c3923bec73e23a9662efc9c229c6a00805468010000000000000000900460ff16156100715760405163f92ee8a960e01b815260040160405180910390fd5b80546001600160401b03908116146100d05780546001600160401b0319166001600160401b0390811782556040519081527fc7f505b2f371ae2175ee4913f4499e1f2633a7b5936321eed1cdaeb6115181d29060200160405180910390a15b50565b6080516130b66100f95f395f8181611b3b01528181611b640152611c9401526130b65ff3fe608060405260043610610233575f3560e01c80637efccc5e11610129578063a3246ad3116100a8578063d547741f1161006d578063d547741f146106b6578063de15fbdd146106d5578063e7b70bd2146106e9578063fceac4e614610708578063fe58262114610738575f5ffd5b8063a3246ad3146105f3578063ad3cb1cc1461061f578063b17081d71461065c578063b3ab252a14610683578063ca15c87314610697575f5ffd5b806391d14854116100ee57806391d148541461057057806396d0ee081461058f5780639a051a78146105a35780639c80c370146105b7578063a217fddf146105e0575f5ffd5b80637efccc5e146104e857806382f7fb07146104fb5780638456cb59146105295780638cdadf481461053d5780639010d07c14610551575f5ffd5b806341bbab11116101b5578063572eb2101161017a578063572eb2101461044f57806358b43cd11461046f5780635a2f511c1461048e5780635c975abb146104b15780636a4545be146104d4575f5ffd5b806341bbab11146103ad5780634926234a146103cc5780634a2cfb54146104085780634f1ef2861461042857806352d1902d1461043b575f5ffd5b806324ea54f4116101fb57806324ea54f4146102f65780632f2ff15d1461031657806336568abe146103355780633e413bee146103545780633f4ba83a14610399575f5ffd5b806301ffc9a714610237578063029d754d1461026b57806307495840146102955780631592855b146102b6578063248a9ca3146102d7575b5f5ffd5b348015610242575f5ffd5b50610256610251366004612572565b610757565b60405190151581526020015b60405180910390f35b348015610276575f5ffd5b505f516020612f815f395f51905f5254600160a01b900460ff16610256565b6102a86102a33660046125da565b610781565b604051908152602001610262565b3480156102c1575f5ffd5b506102d56102d036600461265f565b61095d565b005b3480156102e2575f5ffd5b506102a86102f1366004612689565b6109f5565b348015610301575f5ffd5b506102a85f5160206130615f395f51905f5281565b348015610321575f5ffd5b506102d561033036600461265f565b610a15565b348015610340575f5ffd5b506102d561034f36600461265f565b610a37565b34801561035f575f5ffd5b505f516020612f615f395f51905f525464010000000090046001600160a01b03165b6040516001600160a01b039091168152602001610262565b3480156103a4575f5ffd5b506102d5610a6f565b3480156103b8575f5ffd5b506102d56103c736600461271f565b610a91565b3480156103d7575f5ffd5b507f3017e6031acbb44412e27cd86624110f3442a97c460bded5ec6f84d8c165d001546001600160a01b0316610381565b348015610413575f5ffd5b506102a85f516020612fa15f395f51905f5281565b6102d5610436366004612809565b610ba2565b348015610446575f5ffd5b506102a8610bc1565b34801561045a575f5ffd5b505f5160206130015f395f51905f52546102a8565b34801561047a575f5ffd5b506102d5610489366004612893565b610bdc565b348015610499575f5ffd5b505f516020612fe15f395f51905f525460ff16610256565b3480156104bc575f5ffd5b505f5160206130415f395f51905f525460ff16610256565b3480156104df575f5ffd5b506102d5610bef565b6102a86104f63660046128ac565b610c10565b348015610506575f5ffd5b505f516020612fe15f395f51905f525461010090046001600160a01b0316610381565b348015610534575f5ffd5b506102d5610d86565b348015610548575f5ffd5b50610381610da5565b34801561055c575f5ffd5b5061038161056b366004612926565b610dd7565b34801561057b575f5ffd5b5061025661058a36600461265f565b610e04565b34801561059a575f5ffd5b506102d5610e3a565b3480156105ae575f5ffd5b506102d5610e5a565b3480156105c2575f5ffd5b505f516020612f815f395f51905f52546001600160a01b0316610381565b3480156105eb575f5ffd5b506102a85f81565b3480156105fe575f5ffd5b5061061261060d366004612689565b610e83565b6040516102629190612946565b34801561062a575f5ffd5b5061064f604051806040016040528060058152602001640352e302e360dc1b81525081565b60405161026291906129bf565b348015610667575f5ffd5b5061038173e7351fd770a37282b91d153ee690b63579d6dd7f81565b34801561068e575f5ffd5b50610381610eb3565b3480156106a2575f5ffd5b506102a86106b1366004612689565b610eda565b3480156106c1575f5ffd5b506102d56106d036600461265f565b610efe565b3480156106e0575f5ffd5b506102d5610f1a565b3480156106f4575f5ffd5b506102d56107033660046129d1565b610f42565b348015610713575f5ffd5b505f516020612f615f395f51905f525460405163ffffffff9091168152602001610262565b348015610743575f5ffd5b50610256610752366004612a71565b6110ee565b5f6001600160e01b03198216635a05180f60e01b148061077b575061077b8261124f565b92915050565b5f5f516020612fa15f395f51905f5261079981611283565b6107a161128d565b6107a96112c6565b6001600160a01b0389166107d05760405163d92e233d60e01b815260040160405180910390fd5b6001600160a01b0386166107f75760405163d92e233d60e01b815260040160405180910390fd5b875f0361081757604051631f2a200560e01b815260040160405180910390fd5b865f0361083757604051631f2a200560e01b815260040160405180910390fd5b84341461085757604051631841b4e160e01b815260040160405180910390fd5b610860856112f6565b6108928973ef4fb24ad0916217251f553c0596f8edc630eb668a865f5b60200281019061088d9190612aef565b611377565b5f61089f8a8a8a8a61144b565b90506108b98186886108b46020890189612aef565b6115f5565b9250826001600160401b038616337f494a281d9a8c7a931dd7c071159eb4301eeba49463144a512c018897df00e4448d8d8c8e6109015f5160206130015f395f51905f525490565b610909610da5565b604080516001600160a01b0397881681526020810196909652938616858501526060850192909252608084015290921660a082015260c081018c905290519081900360e00190a45050979650505050505050565b5f61096781611283565b825f0361098757604051633d23e4d160e11b815260040160405180910390fd5b6109908261166f565b5f5160206130015f395f51905f528381555f516020612fe15f395f51905f52805460ff1916600190811790915560408051918252517fe33cde4d15681ba1266af1446bddc5806e572585bd67e2a51c383e2f55637a279181900360200190a150505050565b5f9081525f5160206130215f395f51905f52602052604090206001015490565b610a1e826109f5565b610a2781611283565b610a3183836116d9565b50505050565b6001600160a01b0381163314610a605760405163334bd91960e11b815260040160405180910390fd5b610a6a828261171b565b505050565b5f5160206130615f395f51905f52610a8681611283565b610a8e611754565b50565b5f610a9a6117ad565b805490915060ff600160401b82041615906001600160401b03165f81158015610ac05750825b90505f826001600160401b03166001148015610adb5750303b155b905081158015610ae9575080155b15610b075760405163f92ee8a960e01b815260040160405180910390fd5b845467ffffffffffffffff191660011785558315610b3157845460ff60401b1916600160401b1785555b610b3d8b8b8b8b6117d5565b610b4687611948565b610b4f866119bb565b8315610b9557845460ff60401b19168555604051600181527fc7f505b2f371ae2175ee4913f4499e1f2633a7b5936321eed1cdaeb6115181d29060200160405180910390a15b5050505050505050505050565b610baa611b30565b610bb382611bbe565b610bbd8282611bc8565b5050565b5f610bca611c89565b505f516020612fc15f395f51905f5290565b5f610be681611283565b610bbd8261166f565b5f5160206130615f395f51905f52610c0681611283565b610a8e6001611cd2565b5f5f516020612fa15f395f51905f52610c2881611283565b610c3061128d565b610c386112c6565b6001600160a01b038616610c5f5760405163d92e233d60e01b815260040160405180910390fd5b875f03610c7f57604051631f2a200560e01b815260040160405180910390fd5b865f03610c9f57604051631f2a200560e01b815260040160405180910390fd5b5f610caa8987612b21565b9050803414610ccc57604051631841b4e160e01b815260040160405180910390fd5b610cd5816112f6565b5f610ce25f8b8b8b61144b565b9050610cf0818784886115f5565b9350836001600160401b038716337f35e57cb4b28cb396f836292a31fe6ab3d4933058505b755fd93730964de088ec8d8c8e610d375f5160206130015f395f51905f525490565b610d3f610da5565b604080519586526001600160a01b039485166020870152850192909252606084015216608082015260a081018c905260c00160405180910390a45050509695505050505050565b5f5160206130615f395f51905f52610d9d81611283565b610a8e611d2b565b5f7f71d47e0ea4b3bf9d4cff6b12a28e6282e6ba28cb29ac58f4074519c2b4da0a005b546001600160a01b0316919050565b5f8281525f516020612f415f395f51905f52602081905260408220610dfc9084611d73565b949350505050565b5f9182525f5160206130215f395f51905f52602090815260408084206001600160a01b0393909316845291905290205460ff1690565b5f5160206130615f395f51905f52610e5181611283565b610a8e5f611cd2565b5f5160206130615f395f51905f52610e7181611283565b610e79611d7e565b610a8e6001611ddc565b5f8181525f516020612f415f395f51905f526020819052604090912060609190610eac90611e29565b9392505050565b5f7f47cf185b6947c54347c76dfe91c3cd40a06dcd9e1310733403adda917a97e100610dc8565b5f8181525f516020612f415f395f51905f52602081905260408220610eac90611e35565b610f07826109f5565b610f1081611283565b610a31838361171b565b5f5160206130615f395f51905f52610f3181611283565b610f39611d7e565b610a8e5f611ddc565b5f516020612fa15f395f51905f52610f5981611283565b610f61611e3e565b610f696112c6565b845f03610f8957604051631f2a200560e01b815260040160405180910390fd5b848410610fa95760405163a3932d2d60e01b815260040160405180910390fd5b5f516020612f615f395f51905f52805464010000000090046001600160a01b03165f610fd3610da5565b60018401546001600160a01b03918216925016610ff383828b895f61087d565b835460408051602481018c905263ffffffff92831660448201819052606482018690526001600160a01b03871660848301525f60a483015260c482018c9052928a1660e480830191909152825180830390910181526101049091019091526020810180516001600160e01b0316634701287760e11b17905290337f277aecf73be6e12b9741bc197f65975f20a5f0e8e64da0d67fe5c7e0c89aaf808c8c8c611099610da5565b6040516110ce9493929190938452602084019290925263ffffffff1660408301526001600160a01b0316606082015260800190565b60405180910390a3610b95825f836110e960208c018c612aef565b611f39565b5f5f516020612fa15f395f51905f5261110681611283565b61110e611e3e565b6111166112c6565b5f8590036111375760405163017636cb60e71b815260040160405180910390fd5b5f8390036111585760405163235c028360e11b815260040160405180910390fd5b5f6111775f516020612f815f395f51905f52546001600160a01b031690565b90508484604051611189929190612b34565b604051809103902087876040516111a1929190612b34565b6040519081900381209033907fc6fa8669e5cd3adef472c9e79b57298d69a72c68857bb43a41fdfefe62f88451905f90a4604051630afd9fa560e31b81526001600160a01b038216906357ecfd2890611204908a908a908a908a90600401612b6b565b6020604051808303815f875af1158015611220573d5f5f3e3d5ffd5b505050506040513d601f19601f820116820180604052508101906112449190612b91565b979650505050505050565b5f6001600160e01b03198216637965db0b60e01b148061077b57506301ffc9a760e01b6001600160e01b031983161461077b565b610a8e8133611fbf565b611295611d7e565b5f516020612fe15f395f51905f525460ff166112c457604051634e0b996360e11b815260040160405180910390fd5b565b5f5160206130415f395f51905f525460ff16156112c45760405163d93c066560e01b815260040160405180910390fd5b805f036113005750565b5f611309610eb3565b6001600160a01b0316826040515f6040518083038185875af1925050503d805f8114611350576040519150601f19603f3d011682016040523d82523d5f602084013e611355565b606091505b5050905080610bbd57604051633204506f60e01b815260040160405180910390fd5b6001600160a01b03831661139e5760405163d92e233d60e01b815260040160405180910390fd5b6040516001600160a01b0384166024820152604481018390525f9060640160408051601f198184030181529190526020810180516001600160e01b031663095ea7b360e01b17905290505f6113f586828486611f39565b905080515f03611406575050610a31565b805160201480156114265750808060200190518101906114269190612b91565b15611432575050610a31565b604051633d04426960e11b815260040160405180910390fd5b6114b56040518061016001604052805f6001600160a01b031681526020015f8152602001606081526020015f81526020015f8152602001606081526020015f6001600160a01b03168152602001606081526020016060815260200160608152602001606081525090565b5f5160206130015f395f51905f525f6114cc610eb3565b90505f6114d7610da5565b9050604051806101600160405280896001600160a01b031681526020018881526020018660405160200161150b9190612bb0565b6040516020818303038152906040528152602001878152602001845f015481526020018260405160200161153f9190612bb0565b6040516020818303038152906040528152602001836001600160a01b031681526020018460010160019054906101000a90046001600160a01b031660405160200161158a9190612bb0565b604051602081830303815290604052815260200160405180602001604052805f815250815260200160405180602001604052805f8152508152602001836040516020016115d79190612bb0565b60408051601f19818403018152919052905298975050505050505050565b5f5f85855f60405160240161160c93929190612bcd565b60408051601f198184030181529190526020810180516001600160e01b031663b930370160e01b17905290505f61165973ef4fb24ad0916217251f553c0596f8edc630eb66868487611f39565b9050808060200190518101906112449190612d3c565b805f5160206130015f395f51905f526001018054610100600160a81b0319166101006001600160a01b039384160217905560405190821681527f5e28d87b97c6ae566ef2ff78da838dc7435976b0abe197eb1045f3f510ae8c69906020015b60405180910390a150565b5f5f516020612f415f395f51905f52816116f38585611ff8565b90508015610dfc575f8581526020839052604090206117129085612099565b50949350505050565b5f5f516020612f415f395f51905f528161173585856120ad565b90508015610dfc575f8581526020839052604090206117129085612126565b61175c61213a565b5f5160206130415f395f51905f52805460ff191681557f5db9ee0a495bf2e6ff9c91a7834c1ba4fdd244a5e8aa4e537bd38aeae4b073aa335b6040516001600160a01b0390911681526020016116ce565b5f807ff0c57e16840df040f15088dc2f81fe391c3923bec73e23a9662efc9c229c6a0061077b565b6117dd612169565b6001600160a01b0384166118045760405163d92e233d60e01b815260040160405180910390fd5b6001600160a01b03831661182b5760405163d92e233d60e01b815260040160405180910390fd5b6001600160a01b0382166118525760405163d92e233d60e01b815260040160405180910390fd5b6001600160a01b0381166118795760405163d92e233d60e01b815260040160405180910390fd5b61188161218e565b61188961218e565b61189161218e565b7f47cf185b6947c54347c76dfe91c3cd40a06dcd9e1310733403adda917a97e10080546001600160a01b0319166001600160a01b0386161790556118ef5f516020612fa15f395f51905f525f5160206130615f395f51905f52612196565b6118f95f846116d9565b506119115f5160206130615f395f51905f52836116d9565b506119295f5160206130615f395f51905f52846116d9565b506119415f516020612fa15f395f51905f52826116d9565b5050505050565b611950612169565b6001600160a01b0381166119775760405163d92e233d60e01b815260040160405180910390fd5b807f71d47e0ea4b3bf9d4cff6b12a28e6282e6ba28cb29ac58f4074519c2b4da0a005b80546001600160a01b0319166001600160a01b039290921691909117905550565b6119c3612169565b80516001600160a01b03166119eb5760405163d92e233d60e01b815260040160405180910390fd5b60408101516001600160a01b0316611a165760405163d92e233d60e01b815260040160405180910390fd5b60608101516001600160a01b0316611a415760405163d92e233d60e01b815260040160405180910390fd5b80515f516020612f615f395f51905f52805460208085015163ffffffff1663ffffffff196001600160a01b0395861664010000000002166001600160c01b0319909316929092179190911782556040808501517f3017e6031acbb44412e27cd86624110f3442a97c460bded5ec6f84d8c165d00180549186166001600160a01b031990921691909117905560608501515f516020612f815f395f51905f5280546001600160a81b0319169190951617600160a01b1790935591516001815290917f54261684bf11515a9d50a885d387a6e69347bd5af31f88f734f3ea43ed1b97fc910160405180910390a15050565b306001600160a01b037f0000000000000000000000000000000000000000000000000000000000000000161480611ba057507f00000000000000000000000000000000000000000000000000000000000000006001600160a01b0316611b946121f6565b6001600160a01b031614155b156112c45760405163703e46dd60e11b815260040160405180910390fd5b5f610bbd81611283565b816001600160a01b03166352d1902d6040518163ffffffff1660e01b8152600401602060405180830381865afa925050508015611c22575060408051601f3d908101601f19168201909252611c1f91810190612d3c565b60015b611c4f57604051634c9c8ce360e01b81526001600160a01b03831660048201526024015b60405180910390fd5b5f516020612fc15f395f51905f528114611c7f57604051632a87526960e21b815260048101829052602401611c46565b610a6a838361220a565b306001600160a01b037f000000000000000000000000000000000000000000000000000000000000000016146112c45760405163703e46dd60e11b815260040160405180910390fd5b5f516020612f815f395f51905f52805460ff60a01b1916600160a01b831515908102919091179091556040519081527f54261684bf11515a9d50a885d387a6e69347bd5af31f88f734f3ea43ed1b97fc906020016116ce565b611d336112c6565b5f5160206130415f395f51905f52805460ff191660011781557f62e78cea01bee320cd4e420270b5ea74000d11b0c9f74754ebdbfc544b05a25833611795565b5f610eac838361225f565b5f611d87610da5565b6001600160a01b031603611dae5760405163218957dd60e21b815260040160405180910390fd5b5f5160206130015f395f51905f52545f036112c457604051632dfc8e7760e21b815260040160405180910390fd5b5f516020612fe15f395f51905f52805460ff19168215159081179091556040519081527fe33cde4d15681ba1266af1446bddc5806e572585bd67e2a51c383e2f55637a27906020016116ce565b60605f610eac83612285565b5f61077b825490565b5f611e47610da5565b6001600160a01b031603611e6e5760405163218957dd60e21b815260040160405180910390fd5b5f516020612f815f395f51905f52545f516020612f615f395f51905f5290600160a01b900460ff16611eb357604051633500fe6f60e01b815260040160405180910390fd5b805464010000000090046001600160a01b0316611ee35760405163d92e233d60e01b815260040160405180910390fd5b60018101546001600160a01b0316611f0e5760405163d92e233d60e01b815260040160405180910390fd5b60028101546001600160a01b0316610a8e5760405163d92e233d60e01b815260040160405180910390fd5b6060611f43610eb3565b6001600160a01b031663a6df3a8d868686866040518563ffffffff1660e01b8152600401611f749493929190612dc7565b5f604051808303815f875af1158015611f8f573d5f5f3e3d5ffd5b505050506040513d5f823e601f3d908101601f19168201604052611fb69190810190612e8f565b95945050505050565b611fc98282610e04565b610bbd5760405163e2517d3f60e01b81526001600160a01b038216600482015260248101839052604401611c46565b5f5f5160206130215f395f51905f526120118484610e04565b612090575f848152602082815260408083206001600160a01b03871684529091529020805460ff191660011790556120463390565b6001600160a01b0316836001600160a01b0316857f2f8788117e7eff1d82e926ec794901d17c78024a50270940304540a733656f0d60405160405180910390a4600191505061077b565b5f91505061077b565b5f610eac836001600160a01b0384166122de565b5f5f5160206130215f395f51905f526120c68484610e04565b15612090575f848152602082815260408083206001600160a01b0387168085529252808320805460ff1916905551339287917ff6391f5c32d9c69d2a47ea670b442974b53935d1edc7fd64eb21e047a839171b9190a4600191505061077b565b5f610eac836001600160a01b03841661232a565b5f5160206130415f395f51905f525460ff166112c457604051638dfc202b60e01b815260040160405180910390fd5b612171612404565b6112c457604051631afcd79f60e31b815260040160405180910390fd5b6112c4612169565b5f5160206130215f395f51905f525f6121ae846109f5565b5f85815260208490526040808220600101869055519192508491839187917fbd79b86ffe0ab8e8776151514217cd7cacd52c909f66475c3af44e129f0b00ff9190a450505050565b5f5f516020612fc15f395f51905f52610dc8565b6122138261241d565b6040516001600160a01b038316907fbc7cd75a20ee27fd9adebab32041f755214dbc6bffa90cc0225b39da2e5c2d3b905f90a280511561225757610a6a8282612466565b610bbd6124cf565b5f825f01828154811061227457612274612adb565b905f5260205f200154905092915050565b6060815f018054806020026020016040519081016040528092919081815260200182805480156122d257602002820191905f5260205f20905b8154815260200190600101908083116122be575b50505050509050919050565b5f81815260018301602052604081205461232357508154600181810184555f84815260208082209093018490558454848252828601909352604090209190915561077b565b505f61077b565b5f8181526001830160205260408120548015612090575f61234c600183612f03565b85549091505f9061235f90600190612f03565b90508082146123be575f865f01828154811061237d5761237d612adb565b905f5260205f200154905080875f01848154811061239d5761239d612adb565b5f918252602080832090910192909255918252600188019052604090208390555b85548690806123cf576123cf612f16565b600190038181905f5260205f20015f90559055856001015f8681526020019081526020015f205f90556001935050505061077b565b5f61240d6117ad565b54600160401b900460ff16919050565b806001600160a01b03163b5f0361245257604051634c9c8ce360e01b81526001600160a01b0382166004820152602401611c46565b805f516020612fc15f395f51905f5261199a565b60605f5f846001600160a01b0316846040516124829190612f2a565b5f60405180830381855af49150503d805f81146124ba576040519150601f19603f3d011682016040523d82523d5f602084013e6124bf565b606091505b5091509150611fb68583836124ee565b34156112c45760405163b398979f60e01b815260040160405180910390fd5b606082612503576124fe8261254a565b610eac565b815115801561251a57506001600160a01b0384163b155b1561254357604051639996b31560e01b81526001600160a01b0385166004820152602401611c46565b5092915050565b80511561255957805160208201fd5b60405163d6bda27560e01b815260040160405180910390fd5b5f60208284031215612582575f5ffd5b81356001600160e01b031981168114610eac575f5ffd5b80356001600160a01b03811681146125af575f5ffd5b919050565b80356001600160401b03811681146125af575f5ffd5b806040810183101561077b575f5ffd5b5f5f5f5f5f5f5f60e0888a0312156125f0575f5ffd5b6125f988612599565b9650602088013595506040880135945061261560608901612599565b93506080880135925061262a60a089016125b4565b915060c08801356001600160401b03811115612644575f5ffd5b6126508a828b016125ca565b91505092959891949750929550565b5f5f60408385031215612670575f5ffd5b8235915061268060208401612599565b90509250929050565b5f60208284031215612699575f5ffd5b5035919050565b634e487b7160e01b5f52604160045260245ffd5b604051608081016001600160401b03811182821017156126d6576126d66126a0565b60405290565b604051601f8201601f191681016001600160401b0381118282101715612704576127046126a0565b604052919050565b803563ffffffff811681146125af575f5ffd5b5f5f5f5f5f5f868803610120811215612736575f5ffd5b61273f88612599565b965061274d60208901612599565b955061275b60408901612599565b945061276960608901612599565b935061277760808901612599565b92506080609f198201121561278a575f5ffd5b506127936126b4565b61279f60a08901612599565b81526127ad60c0890161270c565b60208201526127be60e08901612599565b60408201526127d06101008901612599565b6060820152809150509295509295509295565b5f6001600160401b038211156127fb576127fb6126a0565b50601f01601f191660200190565b5f5f6040838503121561281a575f5ffd5b61282383612599565b915060208301356001600160401b0381111561283d575f5ffd5b8301601f8101851361284d575f5ffd5b803561286061285b826127e3565b6126dc565b818152866020838501011115612874575f5ffd5b816020840160208301375f602083830101528093505050509250929050565b5f602082840312156128a3575f5ffd5b610eac82612599565b5f5f5f5f5f5f60c087890312156128c1575f5ffd5b86359550602087013594506128d860408801612599565b9350606087013592506128ed608088016125b4565b915060a08701356001600160401b03811115612907575f5ffd5b87016060818a031215612918575f5ffd5b809150509295509295509295565b5f5f60408385031215612937575f5ffd5b50508035926020909101359150565b602080825282518282018190525f918401906040840190835b818110156129865783516001600160a01b031683526020938401939092019160010161295f565b509095945050505050565b5f81518084528060208401602086015e5f602082860101526020601f19601f83011685010191505092915050565b602081525f610eac6020830184612991565b5f5f5f5f608085870312156129e4575f5ffd5b84359350602085013592506129fb6040860161270c565b915060608501356001600160401b03811115612a15575f5ffd5b612a21878288016125ca565b91505092959194509250565b5f5f83601f840112612a3d575f5ffd5b5081356001600160401b03811115612a53575f5ffd5b602083019150836020828501011115612a6a575f5ffd5b9250929050565b5f5f5f5f60408587031215612a84575f5ffd5b84356001600160401b03811115612a99575f5ffd5b612aa587828801612a2d565b90955093505060208501356001600160401b03811115612ac3575f5ffd5b612acf87828801612a2d565b95989497509550505050565b634e487b7160e01b5f52603260045260245ffd5b5f8235605e19833603018112612b03575f5ffd5b9190910192915050565b634e487b7160e01b5f52601160045260245ffd5b8082018082111561077b5761077b612b0d565b818382375f9101908152919050565b81835281816020850137505f828201602090810191909152601f909101601f19169091010190565b604081525f612b7e604083018688612b43565b8281036020840152611244818587612b43565b5f60208284031215612ba1575f5ffd5b81518015158114610eac575f5ffd5b60609190911b6bffffffffffffffffffffffff1916815260140190565b60c08152612be760c0820185516001600160a01b03169052565b602084015160e08201525f6040850151610160610100840152612c0e610220840182612991565b90506060860151610120840152608086015161014084015260a086015160bf1984830301610160850152612c428282612991565b91505060c0860151612c606101808501826001600160a01b03169052565b5060e086015183820360bf19016101a0850152612c7d8282612991565b91505061010086015160bf19848303016101c0850152612c9d8282612991565b91505061012086015160bf19848303016101e0850152612cbd8282612991565b91505061014086015160bf1984830301610200850152612cdd8282612991565b915050612cf560208401866001600160401b03169052565b82810360408401525f81526020810163ffffffff85166060850152905082810360808401525f81526020810183810360a08501525f81529050602081019695505050505050565b5f60208284031215612d4c575f5ffd5b5051919050565b5f5f8335601e19843603018112612d68575f5ffd5b83016020810192503590506001600160401b03811115612d86575f5ffd5b8060051b3603821315612a6a575f5ffd5b8183525f6001600160fb1b03831115612dae575f5ffd5b8260051b80836020870137939093016020019392505050565b60018060a01b0385168152836020820152608060408201525f612ded6080830185612991565b8281036060840152833560048110158015612e06575f5ffd5b508152602084013536859003601e19018112612e20575f5ffd5b84016020810190356001600160401b03811115612e3b575f5ffd5b803603821315612e49575f5ffd5b60606020840152612e5e606084018284612b43565b915050612e6e6040860186612d53565b8383036040850152612e81838284612d97565b9a9950505050505050505050565b5f60208284031215612e9f575f5ffd5b81516001600160401b03811115612eb4575f5ffd5b8201601f81018413612ec4575f5ffd5b8051612ed261285b826127e3565b818152856020838501011115612ee6575f5ffd5b8160208401602083015e5f91810160200191909152949350505050565b8181038181111561077b5761077b612b0d565b634e487b7160e01b5f52603160045260245ffd5b5f82518060208501845e5f92019182525091905056fec1f6fe24621ce81ec5827caf0253cadb74709b061630e6b55e823717059320003017e6031acbb44412e27cd86624110f3442a97c460bded5ec6f84d8c165d0003017e6031acbb44412e27cd86624110f3442a97c460bded5ec6f84d8c165d002850d585eb7f024ccee5e68e55f2c26cc72e1e6ee456acf62135757a5eb9d4a10360894a13ba1a3210667c828492db98dca3e2076cc3735a920a3ca505d382bbc7cb9b7aa97cfae96b6e3d67edba431b9a40f18e5090b0f96af70aa487bf0d7017cb9b7aa97cfae96b6e3d67edba431b9a40f18e5090b0f96af70aa487bf0d70002dd7bc7dec4dceedda775e58dd541e08a116c6c53815c0bd028192f7b626800cd5ed15c6e187e77e9aee88184c21f4f2182ab5827cb3b7e07fbedcd63f0330055435dd261a4b9b3364963f7738a7a662ad9c84396d64be3365284bb7f0a5041a2646970667358221220771379c25f942315588d4a883f78dec6560c7188ffe613f95225737011110ee564736f6c634300081d0033",
        "linkReferences": {}
    },
    "methodIdentifiers": {
        "CURATOR_ROLE()": "4a2cfb54",
        "DEFAULT_ADMIN_ROLE()": "a217fddf",
        "DLN_DESTINATION()": "b17081d7",
        "GUARDIAN_ROLE()": "24ea54f4",
        "UPGRADE_INTERFACE_VERSION()": "ad3cb1cc",
        "bridgeErc20ViaDeBridge(address,uint256,uint256,address,uint256,uint64,(uint8,bytes,bytes32[])[2])": "07495840",
        "bridgeNativeViaDeBridge(uint256,uint256,address,uint256,uint64,(uint8,bytes,bytes32[]))": "7efccc5e",
        "bridgeRecipient()": "8cdadf48",
        "bridgeUsdcViaCctpV2(uint256,uint256,uint32,(uint8,bytes,bytes32[])[2])": "e7b70bd2",
        "cctpV2DestinationDomain()": "fceac4e6",
        "cctpV2MessageTransmitter()": "9c80c370",
        "cctpV2TokenMessenger()": "4926234a",
        "deBridgeOrderAuthority()": "82f7fb07",
        "deBridgeTakeChainId()": "572eb210",
        "disableCctpV2()": "96d0ee08",
        "disableDeBridge()": "de15fbdd",
        "enableCctpV2()": "6a4545be",
        "enableDeBridge()": "9a051a78",
        "getRoleAdmin(bytes32)": "248a9ca3",
        "getRoleMember(bytes32,uint256)": "9010d07c",
        "getRoleMemberCount(bytes32)": "ca15c873",
        "getRoleMembers(bytes32)": "a3246ad3",
        "grantRole(bytes32,address)": "2f2ff15d",
        "hasRole(bytes32,address)": "91d14854",
        "initialize(address,address,address,address,address,(address,uint32,address,address))": "41bbab11",
        "initializeDeBridge(uint256,address)": "1592855b",
        "isCctpV2Enabled()": "029d754d",
        "isDeBridgeEnabled()": "5a2f511c",
        "pause()": "8456cb59",
        "paused()": "5c975abb",
        "proxiableUUID()": "52d1902d",
        "receiveUsdcViaCctpV2(bytes,bytes)": "fe582621",
        "renounceRole(bytes32,address)": "36568abe",
        "revokeRole(bytes32,address)": "d547741f",
        "setDeBridgeOrderAuthority(address)": "58b43cd1",
        "subvault()": "b3ab252a",
        "supportsInterface(bytes4)": "01ffc9a7",
        "unpause()": "3f4ba83a",
        "upgradeToAndCall(address,bytes)": "4f1ef286",
        "usdc()": "3e413bee"
    },
    "id": 58
}