{
    "abi": [
        {
            "type": "function",
            "name": "CURATOR_ROLE",
            "inputs": [],
            "outputs": [
                {
                    "name": "",
                    "type": "bytes32",
                    "internalType": "bytes32"
                }
            ],
            "stateMutability": "view"
        },
        {
            "type": "function",
            "name": "DEFAULT_ADMIN_ROLE",
            "inputs": [],
            "outputs": [
                {
                    "name": "",
                    "type": "bytes32",
                    "internalType": "bytes32"
                }
            ],
            "stateMutability": "view"
        },
        {
            "type": "function",
            "name": "DLN_DESTINATION",
            "inputs": [],
            "outputs": [
                {
                    "name": "",
                    "type": "address",
                    "internalType": "address"
                }
            ],
            "stateMutability": "view"
        },
        {
            "type": "function",
            "name": "GUARDIAN_ROLE",
            "inputs": [],
            "outputs": [
                {
                    "name": "",
                    "type": "bytes32",
                    "internalType": "bytes32"
                }
            ],
            "stateMutability": "view"
        },
        {
            "type": "function",
            "name": "UPGRADE_INTERFACE_VERSION",
            "inputs": [],
            "outputs": [
                {
                    "name": "",
                    "type": "string",
                    "internalType": "string"
                }
            ],
            "stateMutability": "view"
        },
        {
            "type": "function",
            "name": "bridgeErc20ViaDeBridge",
            "inputs": [
                {
                    "name": "giveTokenAddress",
                    "type": "address",
                    "internalType": "address"
                },
                {
                    "name": "giveAmount",
                    "type": "uint256",
                    "internalType": "uint256"
                },
                {
                    "name": "takeAmount",
                    "type": "uint256",
                    "internalType": "uint256"
                },
                {
                    "name": "takeTokenAddress",
                    "type": "address",
                    "internalType": "address"
                },
                {
                    "name": "nativeFee",
                    "type": "uint256",
                    "internalType": "uint256"
                },
                {
                    "name": "salt",
                    "type": "uint64",
                    "internalType": "uint64"
                },
                {
                    "name": "verificationPayloads",
                    "type": "tuple[2]",
                    "internalType": "struct IVerifier.VerificationPayload[2]",
                    "components": [
                        {
                            "name": "verificationType",
                            "type": "uint8",
                            "internalType": "enum IVerifier.VerificationType"
                        },
                        {
                            "name": "verificationData",
                            "type": "bytes",
                            "internalType": "bytes"
                        },
                        {
                            "name": "proof",
                            "type": "bytes32[]",
                            "internalType": "bytes32[]"
                        }
                    ]
                }
            ],
            "outputs": [
                {
                    "name": "orderId",
                    "type": "bytes32",
                    "internalType": "bytes32"
                }
            ],
            "stateMutability": "payable"
        },
        {
            "type": "function",
            "name": "bridgeNativeViaDeBridge",
            "inputs": [
                {
                    "name": "giveAmount",
                    "type": "uint256",
                    "internalType": "uint256"
                },
                {
                    "name": "takeAmount",
                    "type": "uint256",
                    "internalType": "uint256"
                },
                {
                    "name": "takeTokenAddress",
                    "type": "address",
                    "internalType": "address"
                },
                {
                    "name": "nativeFee",
                    "type": "uint256",
                    "internalType": "uint256"
                },
                {
                    "name": "salt",
                    "type": "uint64",
                    "internalType": "uint64"
                },
                {
                    "name": "verificationPayload",
                    "type": "tuple",
                    "internalType": "struct IVerifier.VerificationPayload",
                    "components": [
                        {
                            "name": "verificationType",
                            "type": "uint8",
                            "internalType": "enum IVerifier.VerificationType"
                        },
                        {
                            "name": "verificationData",
                            "type": "bytes",
                            "internalType": "bytes"
                        },
                        {
                            "name": "proof",
                            "type": "bytes32[]",
                            "internalType": "bytes32[]"
                        }
                    ]
                }
            ],
            "outputs": [
                {
                    "name": "orderId",
                    "type": "bytes32",
                    "internalType": "bytes32"
                }
            ],
            "stateMutability": "payable"
        },
        {
            "type": "function",
            "name": "bridgeRecipient",
            "inputs": [],
            "outputs": [
                {
                    "name": "",
                    "type": "address",
                    "internalType": "address"
                }
            ],
            "stateMutability": "view"
        },
        {
            "type": "function",
            "name": "bridgeUsdcViaCctpV2",
            "inputs": [
                {
                    "name": "amount",
                    "type": "uint256",
                    "internalType": "uint256"
                },
                {
                    "name": "maxFee",
                    "type": "uint256",
                    "internalType": "uint256"
                },
                {
                    "name": "minFinalityThreshold",
                    "type": "uint32",
                    "internalType": "uint32"
                },
                {
                    "name": "verificationPayloads",
                    "type": "tuple[2]",
                    "internalType": "struct IVerifier.VerificationPayload[2]",
                    "components": [
                        {
                            "name": "verificationType",
                            "type": "uint8",
                            "internalType": "enum IVerifier.VerificationType"
                        },
                        {
                            "name": "verificationData",
                            "type": "bytes",
                            "internalType": "bytes"
                        },
                        {
                            "name": "proof",
                            "type": "bytes32[]",
                            "internalType": "bytes32[]"
                        }
                    ]
                }
            ],
            "outputs": [],
            "stateMutability": "nonpayable"
        },
        {
            "type": "function",
            "name": "cancelOrderByCloid",
            "inputs": [
                {
                    "name": "asset",
                    "type": "uint32",
                    "internalType": "uint32"
                },
                {
                    "name": "cloid",
                    "type": "uint128",
                    "internalType": "uint128"
                },
                {
                    "name": "verificationPayload",
                    "type": "tuple",
                    "internalType": "struct IVerifier.VerificationPayload",
                    "components": [
                        {
                            "name": "verificationType",
                            "type": "uint8",
                            "internalType": "enum IVerifier.VerificationType"
                        },
                        {
                            "name": "verificationData",
                            "type": "bytes",
                            "internalType": "bytes"
                        },
                        {
                            "name": "proof",
                            "type": "bytes32[]",
                            "internalType": "bytes32[]"
                        }
                    ]
                }
            ],
            "outputs": [
                {
                    "name": "",
                    "type": "bytes",
                    "internalType": "bytes"
                }
            ],
            "stateMutability": "nonpayable"
        },
        {
            "type": "function",
            "name": "cancelOrderByOid",
            "inputs": [
                {
                    "name": "asset",
                    "type": "uint32",
                    "internalType": "uint32"
                },
                {
                    "name": "oid",
                    "type": "uint64",
                    "internalType": "uint64"
                },
                {
                    "name": "verificationPayload",
                    "type": "tuple",
                    "internalType": "struct IVerifier.VerificationPayload",
                    "components": [
                        {
                            "name": "verificationType",
                            "type": "uint8",
                            "internalType": "enum IVerifier.VerificationType"
                        },
                        {
                            "name": "verificationData",
                            "type": "bytes",
                            "internalType": "bytes"
                        },
                        {
                            "name": "proof",
                            "type": "bytes32[]",
                            "internalType": "bytes32[]"
                        }
                    ]
                }
            ],
            "outputs": [
                {
                    "name": "",
                    "type": "bytes",
                    "internalType": "bytes"
                }
            ],
            "stateMutability": "nonpayable"
        },
        {
            "type": "function",
            "name": "cctpV2DestinationDomain",
            "inputs": [],
            "outputs": [
                {
                    "name": "",
                    "type": "uint32",
                    "internalType": "uint32"
                }
            ],
            "stateMutability": "view"
        },
        {
            "type": "function",
            "name": "cctpV2MessageTransmitter",
            "inputs": [],
            "outputs": [
                {
                    "name": "",
                    "type": "address",
                    "internalType": "address"
                }
            ],
            "stateMutability": "view"
        },
        {
            "type": "function",
            "name": "cctpV2TokenMessenger",
            "inputs": [],
            "outputs": [
                {
                    "name": "",
                    "type": "address",
                    "internalType": "address"
                }
            ],
            "stateMutability": "view"
        },
        {
            "type": "function",
            "name": "coreSystemAddress",
            "inputs": [
                {
                    "name": "tokenIndex",
                    "type": "uint64",
                    "internalType": "uint64"
                }
            ],
            "outputs": [
                {
                    "name": "",
                    "type": "address",
                    "internalType": "address"
                }
            ],
            "stateMutability": "pure"
        },
        {
            "type": "function",
            "name": "deBridgeOrderAuthority",
            "inputs": [],
            "outputs": [
                {
                    "name": "",
                    "type": "address",
                    "internalType": "address"
                }
            ],
            "stateMutability": "view"
        },
        {
            "type": "function",
            "name": "deBridgeTakeChainId",
            "inputs": [],
            "outputs": [
                {
                    "name": "",
                    "type": "uint256",
                    "internalType": "uint256"
                }
            ],
            "stateMutability": "view"
        },
        {
            "type": "function",
            "name": "depositHypeToCore",
            "inputs": [
                {
                    "name": "amount",
                    "type": "uint256",
                    "internalType": "uint256"
                },
                {
                    "name": "verificationPayload",
                    "type": "tuple",
                    "internalType": "struct IVerifier.VerificationPayload",
                    "components": [
                        {
                            "name": "verificationType",
                            "type": "uint8",
                            "internalType": "enum IVerifier.VerificationType"
                        },
                        {
                            "name": "verificationData",
                            "type": "bytes",
                            "internalType": "bytes"
                        },
                        {
                            "name": "proof",
                            "type": "bytes32[]",
                            "internalType": "bytes32[]"
                        }
                    ]
                }
            ],
            "outputs": [
                {
                    "name": "",
                    "type": "bytes",
                    "internalType": "bytes"
                }
            ],
            "stateMutability": "nonpayable"
        },
        {
            "type": "function",
            "name": "depositTokenToCore",
            "inputs": [
                {
                    "name": "token",
                    "type": "address",
                    "internalType": "address"
                },
                {
                    "name": "tokenIndex",
                    "type": "uint64",
                    "internalType": "uint64"
                },
                {
                    "name": "amount",
                    "type": "uint256",
                    "internalType": "uint256"
                },
                {
                    "name": "verificationPayload",
                    "type": "tuple",
                    "internalType": "struct IVerifier.VerificationPayload",
                    "components": [
                        {
                            "name": "verificationType",
                            "type": "uint8",
                            "internalType": "enum IVerifier.VerificationType"
                        },
                        {
                            "name": "verificationData",
                            "type": "bytes",
                            "internalType": "bytes"
                        },
                        {
                            "name": "proof",
                            "type": "bytes32[]",
                            "internalType": "bytes32[]"
                        }
                    ]
                }
            ],
            "outputs": [
                {
                    "name": "",
                    "type": "bytes",
                    "internalType": "bytes"
                }
            ],
            "stateMutability": "nonpayable"
        },
        {
            "type": "function",
            "name": "disableCctpV2",
            "inputs": [],
            "outputs": [],
            "stateMutability": "nonpayable"
        },
        {
            "type": "function",
            "name": "disableDeBridge",
            "inputs": [],
            "outputs": [],
            "stateMutability": "nonpayable"
        },
        {
            "type": "function",
            "name": "enableCctpV2",
            "inputs": [],
            "outputs": [],
            "stateMutability": "nonpayable"
        },
        {
            "type": "function",
            "name": "enableDeBridge",
            "inputs": [],
            "outputs": [],
            "stateMutability": "nonpayable"
        },
        {
            "type": "function",
            "name": "getRoleAdmin",
            "inputs": [
                {
                    "name": "role",
                    "type": "bytes32",
                    "internalType": "bytes32"
                }
            ],
            "outputs": [
                {
                    "name": "",
                    "type": "bytes32",
                    "internalType": "bytes32"
                }
            ],
            "stateMutability": "view"
        },
        {
            "type": "function",
            "name": "getRoleMember",
            "inputs": [
                {
                    "name": "role",
                    "type": "bytes32",
                    "internalType": "bytes32"
                },
                {
                    "name": "index",
                    "type": "uint256",
                    "internalType": "uint256"
                }
            ],
            "outputs": [
                {
                    "name": "",
                    "type": "address",
                    "internalType": "address"
                }
            ],
            "stateMutability": "view"
        },
        {
            "type": "function",
            "name": "getRoleMemberCount",
            "inputs": [
                {
                    "name": "role",
                    "type": "bytes32",
                    "internalType": "bytes32"
                }
            ],
            "outputs": [
                {
                    "name": "",
                    "type": "uint256",
                    "internalType": "uint256"
                }
            ],
            "stateMutability": "view"
        },
        {
            "type": "function",
            "name": "getRoleMembers",
            "inputs": [
                {
                    "name": "role",
                    "type": "bytes32",
                    "internalType": "bytes32"
                }
            ],
            "outputs": [
                {
                    "name": "",
                    "type": "address[]",
                    "internalType": "address[]"
                }
            ],
            "stateMutability": "view"
        },
        {
            "type": "function",
            "name": "grantRole",
            "inputs": [
                {
                    "name": "role",
                    "type": "bytes32",
                    "internalType": "bytes32"
                },
                {
                    "name": "account",
                    "type": "address",
                    "internalType": "address"
                }
            ],
            "outputs": [],
            "stateMutability": "nonpayable"
        },
        {
            "type": "function",
            "name": "hasRole",
            "inputs": [
                {
                    "name": "role",
                    "type": "bytes32",
                    "internalType": "bytes32"
                },
                {
                    "name": "account",
                    "type": "address",
                    "internalType": "address"
                }
            ],
            "outputs": [
                {
                    "name": "",
                    "type": "bool",
                    "internalType": "bool"
                }
            ],
            "stateMutability": "view"
        },
        {
            "type": "function",
            "name": "hypeTokenIndex",
            "inputs": [],
            "outputs": [
                {
                    "name": "",
                    "type": "uint64",
                    "internalType": "uint64"
                }
            ],
            "stateMutability": "view"
        },
        {
            "type": "function",
            "name": "initialize",
            "inputs": [
                {
                    "name": "subvault",
                    "type": "address",
                    "internalType": "address"
                },
                {
                    "name": "admin",
                    "type": "address",
                    "internalType": "address"
                },
                {
                    "name": "guardian",
                    "type": "address",
                    "internalType": "address"
                },
                {
                    "name": "curator",
                    "type": "address",
                    "internalType": "address"
                },
                {
                    "name": "bridgeRecipient",
                    "type": "address",
                    "internalType": "address"
                },
                {
                    "name": "hypeTokenIndex_",
                    "type": "uint64",
                    "internalType": "uint64"
                },
                {
                    "name": "cctpV2Config",
                    "type": "tuple",
                    "internalType": "struct CctpV2BridgeModule.CctpV2Config",
                    "components": [
                        {
                            "name": "usdc",
                            "type": "address",
                            "internalType": "address"
                        },
                        {
                            "name": "destinationDomain",
                            "type": "uint32",
                            "internalType": "uint32"
                        },
                        {
                            "name": "tokenMessenger",
                            "type": "address",
                            "internalType": "address"
                        },
                        {
                            "name": "messageTransmitter",
                            "type": "address",
                            "internalType": "address"
                        }
                    ]
                }
            ],
            "outputs": [],
            "stateMutability": "nonpayable"
        },
        {
            "type": "function",
            "name": "initializeDeBridge",
            "inputs": [
                {
                    "name": "takeChainId",
                    "type": "uint256",
                    "internalType": "uint256"
                },
                {
                    "name": "orderAuthority",
                    "type": "address",
                    "internalType": "address"
                }
            ],
            "outputs": [],
            "stateMutability": "nonpayable"
        },
        {
            "type": "function",
            "name": "isCctpV2Enabled",
            "inputs": [],
            "outputs": [
                {
                    "name": "",
                    "type": "bool",
                    "internalType": "bool"
                }
            ],
            "stateMutability": "view"
        },
        {
            "type": "function",
            "name": "isDeBridgeEnabled",
            "inputs": [],
            "outputs": [
                {
                    "name": "",
                    "type": "bool",
                    "internalType": "bool"
                }
            ],
            "stateMutability": "view"
        },
        {
            "type": "function",
            "name": "pause",
            "inputs": [],
            "outputs": [],
            "stateMutability": "nonpayable"
        },
        {
            "type": "function",
            "name": "paused",
            "inputs": [],
            "outputs": [
                {
                    "name": "",
                    "type": "bool",
                    "internalType": "bool"
                }
            ],
            "stateMutability": "view"
        },
        {
            "type": "function",
            "name": "placeLimitBuyOrder",
            "inputs": [
                {
                    "name": "asset",
                    "type": "uint32",
                    "internalType": "uint32"
                },
                {
                    "name": "limitPx",
                    "type": "uint64",
                    "internalType": "uint64"
                },
                {
                    "name": "sz",
                    "type": "uint64",
                    "internalType": "uint64"
                },
                {
                    "name": "reduceOnly",
                    "type": "bool",
                    "internalType": "bool"
                },
                {
                    "name": "tif",
                    "type": "uint8",
                    "internalType": "uint8"
                },
                {
                    "name": "cloid",
                    "type": "uint128",
                    "internalType": "uint128"
                },
                {
                    "name": "verificationPayload",
                    "type": "tuple",
                    "internalType": "struct IVerifier.VerificationPayload",
                    "components": [
                        {
                            "name": "verificationType",
                            "type": "uint8",
                            "internalType": "enum IVerifier.VerificationType"
                        },
                        {
                            "name": "verificationData",
                            "type": "bytes",
                            "internalType": "bytes"
                        },
                        {
                            "name": "proof",
                            "type": "bytes32[]",
                            "internalType": "bytes32[]"
                        }
                    ]
                }
            ],
            "outputs": [
                {
                    "name": "",
                    "type": "bytes",
                    "internalType": "bytes"
                }
            ],
            "stateMutability": "nonpayable"
        },
        {
            "type": "function",
            "name": "placeLimitSellOrder",
            "inputs": [
                {
                    "name": "asset",
                    "type": "uint32",
                    "internalType": "uint32"
                },
                {
                    "name": "limitPx",
                    "type": "uint64",
                    "internalType": "uint64"
                },
                {
                    "name": "sz",
                    "type": "uint64",
                    "internalType": "uint64"
                },
                {
                    "name": "reduceOnly",
                    "type": "bool",
                    "internalType": "bool"
                },
                {
                    "name": "tif",
                    "type": "uint8",
                    "internalType": "uint8"
                },
                {
                    "name": "cloid",
                    "type": "uint128",
                    "internalType": "uint128"
                },
                {
                    "name": "verificationPayload",
                    "type": "tuple",
                    "internalType": "struct IVerifier.VerificationPayload",
                    "components": [
                        {
                            "name": "verificationType",
                            "type": "uint8",
                            "internalType": "enum IVerifier.VerificationType"
                        },
                        {
                            "name": "verificationData",
                            "type": "bytes",
                            "internalType": "bytes"
                        },
                        {
                            "name": "proof",
                            "type": "bytes32[]",
                            "internalType": "bytes32[]"
                        }
                    ]
                }
            ],
            "outputs": [
                {
                    "name": "",
                    "type": "bytes",
                    "internalType": "bytes"
                }
            ],
            "stateMutability": "nonpayable"
        },
        {
            "type": "function",
            "name": "proxiableUUID",
            "inputs": [],
            "outputs": [
                {
                    "name": "",
                    "type": "bytes32",
                    "internalType": "bytes32"
                }
            ],
            "stateMutability": "view"
        },
        {
            "type": "function",
            "name": "receiveUsdcViaCctpV2",
            "inputs": [
                {
                    "name": "message",
                    "type": "bytes",
                    "internalType": "bytes"
                },
                {
                    "name": "attestation",
                    "type": "bytes",
                    "internalType": "bytes"
                }
            ],
            "outputs": [
                {
                    "name": "",
                    "type": "bool",
                    "internalType": "bool"
                }
            ],
            "stateMutability": "nonpayable"
        },
        {
            "type": "function",
            "name": "renounceRole",
            "inputs": [
                {
                    "name": "role",
                    "type": "bytes32",
                    "internalType": "bytes32"
                },
                {
                    "name": "callerConfirmation",
                    "type": "address",
                    "internalType": "address"
                }
            ],
            "outputs": [],
            "stateMutability": "nonpayable"
        },
        {
            "type": "function",
            "name": "revokeRole",
            "inputs": [
                {
                    "name": "role",
                    "type": "bytes32",
                    "internalType": "bytes32"
                },
                {
                    "name": "account",
                    "type": "address",
                    "internalType": "address"
                }
            ],
            "outputs": [],
            "stateMutability": "nonpayable"
        },
        {
            "type": "function",
            "name": "setDeBridgeOrderAuthority",
            "inputs": [
                {
                    "name": "orderAuthority",
                    "type": "address",
                    "internalType": "address"
                }
            ],
            "outputs": [],
            "stateMutability": "nonpayable"
        },
        {
            "type": "function",
            "name": "subvault",
            "inputs": [],
            "outputs": [
                {
                    "name": "",
                    "type": "address",
                    "internalType": "address"
                }
            ],
            "stateMutability": "view"
        },
        {
            "type": "function",
            "name": "supportsInterface",
            "inputs": [
                {
                    "name": "interfaceId",
                    "type": "bytes4",
                    "internalType": "bytes4"
                }
            ],
            "outputs": [
                {
                    "name": "",
                    "type": "bool",
                    "internalType": "bool"
                }
            ],
            "stateMutability": "view"
        },
        {
            "type": "function",
            "name": "transferPerpToSpot",
            "inputs": [
                {
                    "name": "ntl",
                    "type": "uint64",
                    "internalType": "uint64"
                },
                {
                    "name": "verificationPayload",
                    "type": "tuple",
                    "internalType": "struct IVerifier.VerificationPayload",
                    "components": [
                        {
                            "name": "verificationType",
                            "type": "uint8",
                            "internalType": "enum IVerifier.VerificationType"
                        },
                        {
                            "name": "verificationData",
                            "type": "bytes",
                            "internalType": "bytes"
                        },
                        {
                            "name": "proof",
                            "type": "bytes32[]",
                            "internalType": "bytes32[]"
                        }
                    ]
                }
            ],
            "outputs": [
                {
                    "name": "",
                    "type": "bytes",
                    "internalType": "bytes"
                }
            ],
            "stateMutability": "nonpayable"
        },
        {
            "type": "function",
            "name": "transferSpotToPerp",
            "inputs": [
                {
                    "name": "ntl",
                    "type": "uint64",
                    "internalType": "uint64"
                },
                {
                    "name": "verificationPayload",
                    "type": "tuple",
                    "internalType": "struct IVerifier.VerificationPayload",
                    "components": [
                        {
                            "name": "verificationType",
                            "type": "uint8",
                            "internalType": "enum IVerifier.VerificationType"
                        },
                        {
                            "name": "verificationData",
                            "type": "bytes",
                            "internalType": "bytes"
                        },
                        {
                            "name": "proof",
                            "type": "bytes32[]",
                            "internalType": "bytes32[]"
                        }
                    ]
                }
            ],
            "outputs": [
                {
                    "name": "",
                    "type": "bytes",
                    "internalType": "bytes"
                }
            ],
            "stateMutability": "nonpayable"
        },
        {
            "type": "function",
            "name": "unpause",
            "inputs": [],
            "outputs": [],
            "stateMutability": "nonpayable"
        },
        {
            "type": "function",
            "name": "upgradeToAndCall",
            "inputs": [
                {
                    "name": "newImplementation",
                    "type": "address",
                    "internalType": "address"
                },
                {
                    "name": "data",
                    "type": "bytes",
                    "internalType": "bytes"
                }
            ],
            "outputs": [],
            "stateMutability": "payable"
        },
        {
            "type": "function",
            "name": "usdc",
            "inputs": [],
            "outputs": [
                {
                    "name": "",
                    "type": "address",
                    "internalType": "address"
                }
            ],
            "stateMutability": "view"
        },
        {
            "type": "function",
            "name": "withdrawHypeToEvm",
            "inputs": [
                {
                    "name": "amount",
                    "type": "uint64",
                    "internalType": "uint64"
                },
                {
                    "name": "verificationPayload",
                    "type": "tuple",
                    "internalType": "struct IVerifier.VerificationPayload",
                    "components": [
                        {
                            "name": "verificationType",
                            "type": "uint8",
                            "internalType": "enum IVerifier.VerificationType"
                        },
                        {
                            "name": "verificationData",
                            "type": "bytes",
                            "internalType": "bytes"
                        },
                        {
                            "name": "proof",
                            "type": "bytes32[]",
                            "internalType": "bytes32[]"
                        }
                    ]
                }
            ],
            "outputs": [
                {
                    "name": "",
                    "type": "bytes",
                    "internalType": "bytes"
                }
            ],
            "stateMutability": "nonpayable"
        },
        {
            "type": "function",
            "name": "withdrawTokenToEvm",
            "inputs": [
                {
                    "name": "tokenIndex",
                    "type": "uint64",
                    "internalType": "uint64"
                },
                {
                    "name": "amount",
                    "type": "uint64",
                    "internalType": "uint64"
                },
                {
                    "name": "verificationPayload",
                    "type": "tuple",
                    "internalType": "struct IVerifier.VerificationPayload",
                    "components": [
                        {
                            "name": "verificationType",
                            "type": "uint8",
                            "internalType": "enum IVerifier.VerificationType"
                        },
                        {
                            "name": "verificationData",
                            "type": "bytes",
                            "internalType": "bytes"
                        },
                        {
                            "name": "proof",
                            "type": "bytes32[]",
                            "internalType": "bytes32[]"
                        }
                    ]
                }
            ],
            "outputs": [
                {
                    "name": "",
                    "type": "bytes",
                    "internalType": "bytes"
                }
            ],
            "stateMutability": "nonpayable"
        },
        {
            "type": "event",
            "name": "CCTPv2StatusUpdated",
            "inputs": [
                {
                    "name": "enabled",
                    "type": "bool",
                    "indexed": false,
                    "internalType": "bool"
                }
            ],
            "anonymous": false
        },
        {
            "type": "event",
            "name": "CctpV2UsdcBridgeInitiated",
            "inputs": [
                {
                    "name": "curator",
                    "type": "address",
                    "indexed": true,
                    "internalType": "address"
                },
                {
                    "name": "destinationDomain",
                    "type": "uint32",
                    "indexed": true,
                    "internalType": "uint32"
                },
                {
                    "name": "amount",
                    "type": "uint256",
                    "indexed": false,
                    "internalType": "uint256"
                },
                {
                    "name": "maxFee",
                    "type": "uint256",
                    "indexed": false,
                    "internalType": "uint256"
                },
                {
                    "name": "minFinalityThreshold",
                    "type": "uint32",
                    "indexed": false,
                    "internalType": "uint32"
                },
                {
                    "name": "recipient",
                    "type": "address",
                    "indexed": false,
                    "internalType": "address"
                }
            ],
            "anonymous": false
        },
        {
            "type": "event",
            "name": "CctpV2UsdcMessageReceived",
            "inputs": [
                {
                    "name": "curator",
                    "type": "address",
                    "indexed": true,
                    "internalType": "address"
                },
                {
                    "name": "messageHash",
                    "type": "bytes32",
                    "indexed": true,
                    "internalType": "bytes32"
                },
                {
                    "name": "attestationHash",
                    "type": "bytes32",
                    "indexed": true,
                    "internalType": "bytes32"
                }
            ],
            "anonymous": false
        },
        {
            "type": "event",
            "name": "DeBridgeOrderAuthorityUpdated",
            "inputs": [
                {
                    "name": "orderAuthority",
                    "type": "address",
                    "indexed": false,
                    "internalType": "address"
                }
            ],
            "anonymous": false
        },
        {
            "type": "event",
            "name": "DeBridgeStatusUpdated",
            "inputs": [
                {
                    "name": "enabled",
                    "type": "bool",
                    "indexed": false,
                    "internalType": "bool"
                }
            ],
            "anonymous": false
        },
        {
            "type": "event",
            "name": "DlnErc20BridgeInitiated",
            "inputs": [
                {
                    "name": "curator",
                    "type": "address",
                    "indexed": true,
                    "internalType": "address"
                },
                {
                    "name": "salt",
                    "type": "uint64",
                    "indexed": true,
                    "internalType": "uint64"
                },
                {
                    "name": "orderId",
                    "type": "bytes32",
                    "indexed": true,
                    "internalType": "bytes32"
                },
                {
                    "name": "giveToken",
                    "type": "address",
                    "indexed": false,
                    "internalType": "address"
                },
                {
                    "name": "giveAmount",
                    "type": "uint256",
                    "indexed": false,
                    "internalType": "uint256"
                },
                {
                    "name": "takeToken",
                    "type": "address",
                    "indexed": false,
                    "internalType": "address"
                },
                {
                    "name": "takeAmount",
                    "type": "uint256",
                    "indexed": false,
                    "internalType": "uint256"
                },
                {
                    "name": "takeChainId",
                    "type": "uint256",
                    "indexed": false,
                    "internalType": "uint256"
                },
                {
                    "name": "recipient",
                    "type": "address",
                    "indexed": false,
                    "internalType": "address"
                },
                {
                    "name": "nativeFee",
                    "type": "uint256",
                    "indexed": false,
                    "internalType": "uint256"
                }
            ],
            "anonymous": false
        },
        {
            "type": "event",
            "name": "DlnNativeBridgeInitiated",
            "inputs": [
                {
                    "name": "curator",
                    "type": "address",
                    "indexed": true,
                    "internalType": "address"
                },
                {
                    "name": "salt",
                    "type": "uint64",
                    "indexed": true,
                    "internalType": "uint64"
                },
                {
                    "name": "orderId",
                    "type": "bytes32",
                    "indexed": true,
                    "internalType": "bytes32"
                },
                {
                    "name": "giveAmount",
                    "type": "uint256",
                    "indexed": false,
                    "internalType": "uint256"
                },
                {
                    "name": "takeToken",
                    "type": "address",
                    "indexed": false,
                    "internalType": "address"
                },
                {
                    "name": "takeAmount",
                    "type": "uint256",
                    "indexed": false,
                    "internalType": "uint256"
                },
                {
                    "name": "takeChainId",
                    "type": "uint256",
                    "indexed": false,
                    "internalType": "uint256"
                },
                {
                    "name": "recipient",
                    "type": "address",
                    "indexed": false,
                    "internalType": "address"
                },
                {
                    "name": "nativeFee",
                    "type": "uint256",
                    "indexed": false,
                    "internalType": "uint256"
                }
            ],
            "anonymous": false
        },
        {
            "type": "event",
            "name": "HypeDepositedToCore",
            "inputs": [
                {
                    "name": "curator",
                    "type": "address",
                    "indexed": true,
                    "internalType": "address"
                },
                {
                    "name": "amount",
                    "type": "uint256",
                    "indexed": false,
                    "internalType": "uint256"
                }
            ],
            "anonymous": false
        },
        {
            "type": "event",
            "name": "HypeWithdrawnToEvm",
            "inputs": [
                {
                    "name": "curator",
                    "type": "address",
                    "indexed": true,
                    "internalType": "address"
                },
                {
                    "name": "amount",
                    "type": "uint64",
                    "indexed": false,
                    "internalType": "uint64"
                }
            ],
            "anonymous": false
        },
        {
            "type": "event",
            "name": "Initialized",
            "inputs": [
                {
                    "name": "version",
                    "type": "uint64",
                    "indexed": false,
                    "internalType": "uint64"
                }
            ],
            "anonymous": false
        },
        {
            "type": "event",
            "name": "LimitBuyOrderPlaced",
            "inputs": [
                {
                    "name": "curator",
                    "type": "address",
                    "indexed": true,
                    "internalType": "address"
                },
                {
                    "name": "asset",
                    "type": "uint32",
                    "indexed": true,
                    "internalType": "uint32"
                },
                {
                    "name": "cloid",
                    "type": "uint128",
                    "indexed": true,
                    "internalType": "uint128"
                },
                {
                    "name": "limitPx",
                    "type": "uint64",
                    "indexed": false,
                    "internalType": "uint64"
                },
                {
                    "name": "sz",
                    "type": "uint64",
                    "indexed": false,
                    "internalType": "uint64"
                },
                {
                    "name": "reduceOnly",
                    "type": "bool",
                    "indexed": false,
                    "internalType": "bool"
                },
                {
                    "name": "tif",
                    "type": "uint8",
                    "indexed": false,
                    "internalType": "uint8"
                }
            ],
            "anonymous": false
        },
        {
            "type": "event",
            "name": "LimitSellOrderPlaced",
            "inputs": [
                {
                    "name": "curator",
                    "type": "address",
                    "indexed": true,
                    "internalType": "address"
                },
                {
                    "name": "asset",
                    "type": "uint32",
                    "indexed": true,
                    "internalType": "uint32"
                },
                {
                    "name": "cloid",
                    "type": "uint128",
                    "indexed": true,
                    "internalType": "uint128"
                },
                {
                    "name": "limitPx",
                    "type": "uint64",
                    "indexed": false,
                    "internalType": "uint64"
                },
                {
                    "name": "sz",
                    "type": "uint64",
                    "indexed": false,
                    "internalType": "uint64"
                },
                {
                    "name": "reduceOnly",
                    "type": "bool",
                    "indexed": false,
                    "internalType": "bool"
                },
                {
                    "name": "tif",
                    "type": "uint8",
                    "indexed": false,
                    "internalType": "uint8"
                }
            ],
            "anonymous": false
        },
        {
            "type": "event",
            "name": "OrderCancelledByCloid",
            "inputs": [
                {
                    "name": "curator",
                    "type": "address",
                    "indexed": true,
                    "internalType": "address"
                },
                {
                    "name": "asset",
                    "type": "uint32",
                    "indexed": true,
                    "internalType": "uint32"
                },
                {
                    "name": "cloid",
                    "type": "uint128",
                    "indexed": true,
                    "internalType": "uint128"
                }
            ],
            "anonymous": false
        },
        {
            "type": "event",
            "name": "OrderCancelledByOid",
            "inputs": [
                {
                    "name": "curator",
                    "type": "address",
                    "indexed": true,
                    "internalType": "address"
                },
                {
                    "name": "asset",
                    "type": "uint32",
                    "indexed": true,
                    "internalType": "uint32"
                },
                {
                    "name": "oid",
                    "type": "uint64",
                    "indexed": true,
                    "internalType": "uint64"
                }
            ],
            "anonymous": false
        },
        {
            "type": "event",
            "name": "Paused",
            "inputs": [
                {
                    "name": "account",
                    "type": "address",
                    "indexed": false,
                    "internalType": "address"
                }
            ],
            "anonymous": false
        },
        {
            "type": "event",
            "name": "PerpToSpotTransferred",
            "inputs": [
                {
                    "name": "curator",
                    "type": "address",
                    "indexed": true,
                    "internalType": "address"
                },
                {
                    "name": "ntl",
                    "type": "uint64",
                    "indexed": false,
                    "internalType": "uint64"
                }
            ],
            "anonymous": false
        },
        {
            "type": "event",
            "name": "RoleAdminChanged",
            "inputs": [
                {
                    "name": "role",
                    "type": "bytes32",
                    "indexed": true,
                    "internalType": "bytes32"
                },
                {
                    "name": "previousAdminRole",
                    "type": "bytes32",
                    "indexed": true,
                    "internalType": "bytes32"
                },
                {
                    "name": "newAdminRole",
                    "type": "bytes32",
                    "indexed": true,
                    "internalType": "bytes32"
                }
            ],
            "anonymous": false
        },
        {
            "type": "event",
            "name": "RoleGranted",
            "inputs": [
                {
                    "name": "role",
                    "type": "bytes32",
                    "indexed": true,
                    "internalType": "bytes32"
                },
                {
                    "name": "account",
                    "type": "address",
                    "indexed": true,
                    "internalType": "address"
                },
                {
                    "name": "sender",
                    "type": "address",
                    "indexed": true,
                    "internalType": "address"
                }
            ],
            "anonymous": false
        },
        {
            "type": "event",
            "name": "RoleRevoked",
            "inputs": [
                {
                    "name": "role",
                    "type": "bytes32",
                    "indexed": true,
                    "internalType": "bytes32"
                },
                {
                    "name": "account",
                    "type": "address",
                    "indexed": true,
                    "internalType": "address"
                },
                {
                    "name": "sender",
                    "type": "address",
                    "indexed": true,
                    "internalType": "address"
                }
            ],
            "anonymous": false
        },
        {
            "type": "event",
            "name": "SpotToPerpTransferred",
            "inputs": [
                {
                    "name": "curator",
                    "type": "address",
                    "indexed": true,
                    "internalType": "address"
                },
                {
                    "name": "ntl",
                    "type": "uint64",
                    "indexed": false,
                    "internalType": "uint64"
                }
            ],
            "anonymous": false
        },
        {
            "type": "event",
            "name": "TokenDepositedToCore",
            "inputs": [
                {
                    "name": "curator",
                    "type": "address",
                    "indexed": true,
                    "internalType": "address"
                },
                {
                    "name": "token",
                    "type": "address",
                    "indexed": true,
                    "internalType": "address"
                },
                {
                    "name": "tokenIndex",
                    "type": "uint64",
                    "indexed": true,
                    "internalType": "uint64"
                },
                {
                    "name": "systemAddress",
                    "type": "address",
                    "indexed": false,
                    "internalType": "address"
                },
                {
                    "name": "amount",
                    "type": "uint256",
                    "indexed": false,
                    "internalType": "uint256"
                }
            ],
            "anonymous": false
        },
        {
            "type": "event",
            "name": "TokenWithdrawnToEvm",
            "inputs": [
                {
                    "name": "curator",
                    "type": "address",
                    "indexed": true,
                    "internalType": "address"
                },
                {
                    "name": "tokenIndex",
                    "type": "uint64",
                    "indexed": true,
                    "internalType": "uint64"
                },
                {
                    "name": "amount",
                    "type": "uint64",
                    "indexed": false,
                    "internalType": "uint64"
                }
            ],
            "anonymous": false
        },
        {
            "type": "event",
            "name": "Unpaused",
            "inputs": [
                {
                    "name": "account",
                    "type": "address",
                    "indexed": false,
                    "internalType": "address"
                }
            ],
            "anonymous": false
        },
        {
            "type": "event",
            "name": "Upgraded",
            "inputs": [
                {
                    "name": "implementation",
                    "type": "address",
                    "indexed": true,
                    "internalType": "address"
                }
            ],
            "anonymous": false
        },
        {
            "type": "error",
            "name": "AccessControlBadConfirmation",
            "inputs": []
        },
        {
            "type": "error",
            "name": "AccessControlUnauthorizedAccount",
            "inputs": [
                {
                    "name": "account",
                    "type": "address",
                    "internalType": "address"
                },
                {
                    "name": "neededRole",
                    "type": "bytes32",
                    "internalType": "bytes32"
                }
            ]
        },
        {
            "type": "error",
            "name": "AddressEmptyCode",
            "inputs": [
                {
                    "name": "target",
                    "type": "address",
                    "internalType": "address"
                }
            ]
        },
        {
            "type": "error",
            "name": "BridgeApproveFailed",
            "inputs": []
        },
        {
            "type": "error",
            "name": "BridgeNotInitialized",
            "inputs": []
        },
        {
            "type": "error",
            "name": "CCTPv2Disabled",
            "inputs": []
        },
        {
            "type": "error",
            "name": "CallFailed",
            "inputs": []
        },
        {
            "type": "error",
            "name": "DeBridgeDisabled",
            "inputs": []
        },
        {
            "type": "error",
            "name": "DeBridgeNotInitialized",
            "inputs": []
        },
        {
            "type": "error",
            "name": "ERC1967InvalidImplementation",
            "inputs": [
                {
                    "name": "implementation",
                    "type": "address",
                    "internalType": "address"
                }
            ]
        },
        {
            "type": "error",
            "name": "ERC1967NonPayable",
            "inputs": []
        },
        {
            "type": "error",
            "name": "EmptyAttestation",
            "inputs": []
        },
        {
            "type": "error",
            "name": "EmptyMessage",
            "inputs": []
        },
        {
            "type": "error",
            "name": "EnforcedPause",
            "inputs": []
        },
        {
            "type": "error",
            "name": "ExpectedPause",
            "inputs": []
        },
        {
            "type": "error",
            "name": "FailedCall",
            "inputs": []
        },
        {
            "type": "error",
            "name": "InvalidChainId",
            "inputs": []
        },
        {
            "type": "error",
            "name": "InvalidInitialization",
            "inputs": []
        },
        {
            "type": "error",
            "name": "InvalidMsgValue",
            "inputs": []
        },
        {
            "type": "error",
            "name": "InvalidTimeInForce",
            "inputs": [
                {
                    "name": "value",
                    "type": "uint8",
                    "internalType": "uint8"
                }
            ]
        },
        {
            "type": "error",
            "name": "MaxFeeTooHigh",
            "inputs": []
        },
        {
            "type": "error",
            "name": "NotInitializing",
            "inputs": []
        },
        {
            "type": "error",
            "name": "UUPSUnauthorizedCallContext",
            "inputs": []
        },
        {
            "type": "error",
            "name": "UUPSUnsupportedProxiableUUID",
            "inputs": [
                {
                    "name": "slot",
                    "type": "bytes32",
                    "internalType": "bytes32"
                }
            ]
        },
        {
            "type": "error",
            "name": "ZeroAddress",
            "inputs": []
        },
        {
            "type": "error",
            "name": "ZeroAmount",
            "inputs": []
        }
    ],
    "bytecode": {
        "object": "0x60a060405230608052348015610013575f5ffd5b5061001c610021565b6100d3565b7ff0c57e16840df040f15088dc2f81fe391c3923bec73e23a9662efc9c229c6a00805468010000000000000000900460ff16156100715760405163f92ee8a960e01b815260040160405180910390fd5b80546001600160401b03908116146100d05780546001600160401b0319166001600160401b0390811782556040519081527fc7f505b2f371ae2175ee4913f4499e1f2633a7b5936321eed1cdaeb6115181d29060200160405180910390a15b50565b6080516140806100f95f395f81816127da01528181612803015261296e01526140805ff3fe6080604052600436106102f3575f3560e01c80636a4545be11610189578063a217fddf116100d8578063ca15c87311610092578063de15fbdd1161006d578063de15fbdd14610941578063e7b70bd214610955578063fceac4e614610974578063fe582621146109a4575f5ffd5b8063ca15c873146108e4578063d450a6c614610903578063d547741f14610922575f5ffd5b8063a217fddf1461081b578063a3246ad31461082e578063ad3cb1cc1461085a578063b17081d71461088a578063b3ab252a146108b1578063c226db55146108c5575f5ffd5b80638cdadf48116101435780639526fd161161011e5780639526fd16146107ab57806396d0ee08146107ca5780639a051a78146107de5780639c80c370146107f2575f5ffd5b80638cdadf48146107595780639010d07c1461076d57806391d148541461078c575f5ffd5b80636a4545be146106b257806373edb66c146106c65780637efccc5e146106e557806382f7fb07146106f85780638456cb591461072657806386e147441461073a575f5ffd5b80633f4ba83a116102455780635576b0b7116101ff5780635a2f511c116101da5780635a2f511c1461062e5780635c975abb146106515780635eb3f9651461067457806363e8d18914610693575f5ffd5b80635576b0b7146105a9578063572eb210146105ef57806358b43cd11461060f575f5ffd5b80633f4ba83a146104f35780634926234a146105075780634a2cfb54146105435780634f1ef286146105635780634f2c42da1461057657806352d1902d14610595575f5ffd5b806317573846116102b05780632c491f171161028b5780632c491f17146104655780632f2ff15d1461048457806336568abe146104a35780633e413bee146104c2575f5ffd5b80631757384614610407578063248a9ca31461042657806324ea54f414610445575f5ffd5b806301ffc9a7146102f7578063029d754d1461032b57806307495840146103555780630941a849146103765780630bb9f178146103a25780631592855b146103e6575b5f5ffd5b348015610302575f5ffd5b506103166103113660046132b6565b6109c3565b60405190151581526020015b60405180910390f35b348015610336575f5ffd5b505f516020613f4b5f395f51905f5254600160a01b900460ff16610316565b61036861036336600461331e565b6109ed565b604051908152602001610322565b348015610381575f5ffd5b506103956103903660046133b9565b610bc9565b6040516103229190613440565b3480156103ad575f5ffd5b506103ce6103bc366004613452565b6001600160401b03166001609d1b1790565b6040516001600160a01b039091168152602001610322565b3480156103f1575f5ffd5b5061040561040036600461346b565b610cd6565b005b348015610412575f5ffd5b506103956104213660046134cb565b610d6e565b348015610431575f5ffd5b5061036861044036600461355f565b610e96565b348015610450575f5ffd5b506103685f51602061402b5f395f51905f5281565b348015610470575f5ffd5b5061040561047f3660046135e2565b610eb6565b34801561048f575f5ffd5b5061040561049e36600461346b565b610fd1565b3480156104ae575f5ffd5b506104056104bd36600461346b565b610ff3565b3480156104cd575f5ffd5b505f516020613f2b5f395f51905f525464010000000090046001600160a01b03166103ce565b3480156104fe575f5ffd5b5061040561102b565b348015610512575f5ffd5b507f3017e6031acbb44412e27cd86624110f3442a97c460bded5ec6f84d8c165d001546001600160a01b03166103ce565b34801561054e575f5ffd5b506103685f516020613f6b5f395f51905f5281565b6104056105713660046136de565b61104d565b348015610581575f5ffd5b50610395610590366004613768565b61106c565b3480156105a0575f5ffd5b506103686110d5565b3480156105b4575f5ffd5b507f789b871704bb1441ddd2ece4f82068130ae4608c26aa2af8bdfc5b256476f400546040516001600160401b039091168152602001610322565b3480156105fa575f5ffd5b505f516020613fcb5f395f51905f5254610368565b34801561061a575f5ffd5b50610405610629366004613783565b6110f0565b348015610639575f5ffd5b505f516020613fab5f395f51905f525460ff16610316565b34801561065c575f5ffd5b505f51602061400b5f395f51905f525460ff16610316565b34801561067f575f5ffd5b5061039561068e36600461379c565b611103565b34801561069e575f5ffd5b506103956106ad3660046137e6565b611232565b3480156106bd575f5ffd5b5061040561129b565b3480156106d1575f5ffd5b506103956106e036600461380f565b6112bc565b6103686106f3366004613872565b6113e2565b348015610703575f5ffd5b505f516020613fab5f395f51905f525461010090046001600160a01b03166103ce565b348015610731575f5ffd5b50610405611558565b348015610745575f5ffd5b506103956107543660046138e6565b611577565b348015610764575f5ffd5b506103ce611623565b348015610778575f5ffd5b506103ce610787366004613913565b611655565b348015610797575f5ffd5b506103166107a636600461346b565b61167a565b3480156107b6575f5ffd5b506103956107c536600461379c565b6116b0565b3480156107d5575f5ffd5b50610405611779565b3480156107e9575f5ffd5b50610405611799565b3480156107fd575f5ffd5b505f516020613f4b5f395f51905f52546001600160a01b03166103ce565b348015610826575f5ffd5b506103685f81565b348015610839575f5ffd5b5061084d61084836600461355f565b6117c2565b6040516103229190613933565b348015610865575f5ffd5b50610395604051806040016040528060058152602001640352e302e360dc1b81525081565b348015610895575f5ffd5b506103ce73e7351fd770a37282b91d153ee690b63579d6dd7f81565b3480156108bc575f5ffd5b506103ce6117f2565b3480156108d0575f5ffd5b506103956108df36600461379c565b611819565b3480156108ef575f5ffd5b506103686108fe36600461355f565b6118ab565b34801561090e575f5ffd5b5061039561091d3660046134cb565b6118cf565b34801561092d575f5ffd5b5061040561093c36600461346b565b6119bc565b34801561094c575f5ffd5b506104056119d8565b348015610960575f5ffd5b5061040561096f36600461397e565b611a00565b34801561097f575f5ffd5b505f516020613f2b5f395f51905f525460405163ffffffff9091168152602001610322565b3480156109af575f5ffd5b506103166109be366004613a12565b611bb9565b5f6001600160e01b03198216635a05180f60e01b14806109e757506109e782611d1a565b92915050565b5f5f516020613f6b5f395f51905f52610a0581611d4e565b610a0d611d58565b610a15611d91565b6001600160a01b038916610a3c5760405163d92e233d60e01b815260040160405180910390fd5b6001600160a01b038616610a635760405163d92e233d60e01b815260040160405180910390fd5b875f03610a8357604051631f2a200560e01b815260040160405180910390fd5b865f03610aa357604051631f2a200560e01b815260040160405180910390fd5b843414610ac357604051631841b4e160e01b815260040160405180910390fd5b610acc85611dc1565b610afe8973ef4fb24ad0916217251f553c0596f8edc630eb668a865f5b602002810190610af99190613a90565b611e42565b5f610b0b8a8a8a8a611f16565b9050610b25818688610b206020890189613a90565b6120c0565b9250826001600160401b038616337f494a281d9a8c7a931dd7c071159eb4301eeba49463144a512c018897df00e4448d8d8c8e610b6d5f516020613fcb5f395f51905f525490565b610b75611623565b604080516001600160a01b0397881681526020810196909652938616858501526060850192909252608084015290921660a082015260c081018c905290519081900360e00190a45050979650505050505050565b60605f516020613f6b5f395f51905f52610be281611d4e565b610bea611d91565b836001600160401b03165f03610c1357604051631f2a200560e01b815260040160405180910390fd5b6040516001600160401b03858116825286169033907f2b0383352bff6b7e265f53b4c75efe4e36a97149e5c89769ee48dc32becbf7f39060200160405180910390a35f610c706001609d1b6001600160401b03881617878761213a565b9050610ccc7333333333333333333333333333333333333333335f83604051602401610c9c9190613440565b60408051601f198184030181529190526020810180516001600160e01b03166317938e1360e01b17905287612193565b9695505050505050565b5f610ce081611d4e565b825f03610d0057604051633d23e4d160e11b815260040160405180910390fd5b610d0982612210565b5f516020613fcb5f395f51905f528381555f516020613fab5f395f51905f52805460ff1916600190811790915560408051918252517fe33cde4d15681ba1266af1446bddc5806e572585bd67e2a51c383e2f55637a279181900360200190a150505050565b60605f516020613f6b5f395f51905f52610d8781611d4e565b610d8f611d91565b876001600160401b03165f03610db857604051631f2a200560e01b815260040160405180910390fd5b866001600160401b03165f03610de157604051631f2a200560e01b815260040160405180910390fd5b604080516001600160401b038a81168252891660208201528715158183015260ff8716606082015290516001600160801b0386169163ffffffff8c169133917fbfc511faa4955d28b6c9fce55b1c77e8b78181670cd8fd4fd7eef1e86f40a57c919081900360800190a45f610e5c8a60018b8b8b8b8b61227a565b9050610e887333333333333333333333333333333333333333335f83604051602401610c9c9190613440565b9a9950505050505050505050565b5f9081525f516020613feb5f395f51905f52602052604090206001015490565b5f610ebf612305565b805490915060ff600160401b82041615906001600160401b03165f81158015610ee55750825b90505f826001600160401b03166001148015610f005750303b155b905081158015610f0e575080155b15610f2c5760405163f92ee8a960e01b815260040160405180910390fd5b845467ffffffffffffffff191660011785558315610f5657845460ff60401b1916600160401b1785555b610f628c8c8c8c61232d565b610f6b886124a0565b610f7487612513565b610f7d86612586565b8315610fc357845460ff60401b19168555604051600181527fc7f505b2f371ae2175ee4913f4499e1f2633a7b5936321eed1cdaeb6115181d29060200160405180910390a15b505050505050505050505050565b610fda82610e96565b610fe381611d4e565b610fed83836126fb565b50505050565b6001600160a01b038116331461101c5760405163334bd91960e11b815260040160405180910390fd5b611026828261273d565b505050565b5f51602061402b5f395f51905f5261104281611d4e565b61104a612776565b50565b6110556127cf565b61105e8261285d565b6110688282612867565b5050565b60605f516020613f6b5f395f51905f5261108581611d4e565b61108d611d91565b6040516001600160401b0385169063ffffffff87169033907fd0659ee344f9858d8fb266603746c41b7e694e7e31db7a0339bdd1966443e604905f90a45f610c708686612928565b5f6110de612963565b505f516020613f8b5f395f51905f5290565b5f6110fa81611d4e565b61106882612210565b60605f516020613f6b5f395f51905f5261111c81611d4e565b611124611d91565b836001600160401b03165f0361114d57604051631f2a200560e01b815260040160405180910390fd5b6040516001600160401b038516815233907f35357fa9bfa8f84a1b52b527828776202f3997e379ef57c0032bddd323d866739060200160405180910390a27f789b871704bb1441ddd2ece4f82068130ae4608c26aa2af8bdfc5b256476f400546001600160401b03165f6111d6732222222222222222222222222222222222222222838861213a565b9050610ccc7333333333333333333333333333333333333333335f836040516024016112029190613440565b60408051601f198184030181529190526020810180516001600160e01b03166317938e1360e01b17905288612193565b60605f516020613f6b5f395f51905f5261124b81611d4e565b611253611d91565b6040516001600160801b0385169063ffffffff87169033907fa9cf95da6cbfd75a1c3d33eb9a1e999c5d3bef15da5febead4cf4c27cd31ca3d905f90a45f610c7086866129ac565b5f51602061402b5f395f51905f526112b281611d4e565b61104a60016129e7565b60605f516020613f6b5f395f51905f526112d581611d4e565b6112dd611d91565b6001600160a01b0386166113045760405163d92e233d60e01b815260040160405180910390fd5b835f0361132457604051631f2a200560e01b815260040160405180910390fd5b604080516001600160401b0387166001609d1b8117808352602083018890528351909391926001600160a01b038b169233927f01898048baf1bb744a1989a7937c864aea5dcf53143265c671ca62da74af59eb9281900390910190a46040516001600160a01b0382166024820152604481018690525f9060640160408051601f198184030181529190526020810180516001600160e01b031663a9059cbb60e01b17905290506113d6885f8388612193565b98975050505050505050565b5f5f516020613f6b5f395f51905f526113fa81611d4e565b611402611d58565b61140a611d91565b6001600160a01b0386166114315760405163d92e233d60e01b815260040160405180910390fd5b875f0361145157604051631f2a200560e01b815260040160405180910390fd5b865f0361147157604051631f2a200560e01b815260040160405180910390fd5b5f61147c8987613ac2565b905080341461149e57604051631841b4e160e01b815260040160405180910390fd5b6114a781611dc1565b5f6114b45f8b8b8b611f16565b90506114c2818784886120c0565b9350836001600160401b038716337f35e57cb4b28cb396f836292a31fe6ab3d4933058505b755fd93730964de088ec8d8c8e6115095f516020613fcb5f395f51905f525490565b611511611623565b604080519586526001600160a01b039485166020870152850192909252606084015216608082015260a081018c905260c00160405180910390a45050509695505050505050565b5f51602061402b5f395f51905f5261156f81611d4e565b61104a612a40565b60605f516020613f6b5f395f51905f5261159081611d4e565b611598611d91565b835f036115b857604051631f2a200560e01b815260040160405180910390fd5b60405184815233907f9e863ae135cd93a1e3d62b189c21a779043cf32484c89cac3a2f165ff6e726859060200160405180910390a261161b7322222222222222222222222222222222222222228560405180602001604052805f81525086612193565b949350505050565b5f7f71d47e0ea4b3bf9d4cff6b12a28e6282e6ba28cb29ac58f4074519c2b4da0a005b546001600160a01b0316919050565b5f8281525f516020613f0b5f395f51905f5260208190526040822061161b9084612a88565b5f9182525f516020613feb5f395f51905f52602090815260408084206001600160a01b0393909316845291905290205460ff1690565b60605f516020613f6b5f395f51905f526116c981611d4e565b6116d1611d91565b836001600160401b03165f036116fa57604051631f2a200560e01b815260040160405180910390fd5b6040516001600160401b038516815233907fc170f4b920be05022e727699d425ddece2d7bec4dade25556b0242cc4229b8829060200160405180910390a25f611744856001612a93565b90506117707333333333333333333333333333333333333333335f83604051602401610c9c9190613440565b95945050505050565b5f51602061402b5f395f51905f5261179081611d4e565b61104a5f6129e7565b5f51602061402b5f395f51905f526117b081611d4e565b6117b8612aca565b61104a6001612b28565b5f8181525f516020613f0b5f395f51905f5260208190526040909120606091906117eb90612b75565b9392505050565b5f7f47cf185b6947c54347c76dfe91c3cd40a06dcd9e1310733403adda917a97e100611646565b60605f516020613f6b5f395f51905f5261183281611d4e565b61183a611d91565b836001600160401b03165f0361186357604051631f2a200560e01b815260040160405180910390fd5b6040516001600160401b038516815233907ed65b5b94fdcb52b24c0c9e02df4be70480dcf3f478925311c50d41214708a99060200160405180910390a25f611744855f612a93565b5f8181525f516020613f0b5f395f51905f526020819052604082206117eb90612b81565b60605f516020613f6b5f395f51905f526118e881611d4e565b6118f0611d91565b876001600160401b03165f0361191957604051631f2a200560e01b815260040160405180910390fd5b866001600160401b03165f0361194257604051631f2a200560e01b815260040160405180910390fd5b604080516001600160401b038a81168252891660208201528715158183015260ff8716606082015290516001600160801b0386169163ffffffff8c169133917fd1f85090578473b24b37702258810759e2959ed524132c662a71e67afcca7f6e919081900360800190a45f610e5c8a5f8b8b8b8b8b61227a565b6119c582610e96565b6119ce81611d4e565b610fed838361273d565b5f51602061402b5f395f51905f526119ef81611d4e565b6119f7612aca565b61104a5f612b28565b5f516020613f6b5f395f51905f52611a1781611d4e565b611a1f612b8a565b611a27611d91565b845f03611a4757604051631f2a200560e01b815260040160405180910390fd5b848410611a675760405163a3932d2d60e01b815260040160405180910390fd5b5f516020613f2b5f395f51905f52805464010000000090046001600160a01b03165f611a91611623565b60018401546001600160a01b03918216925016611ab183828b895f610ae9565b835460408051602481018c905263ffffffff92831660448201819052606482018690526001600160a01b03871660848301525f60a483015260c482018c9052928a1660e480830191909152825180830390910181526101049091019091526020810180516001600160e01b0316634701287760e11b17905290337f277aecf73be6e12b9741bc197f65975f20a5f0e8e64da0d67fe5c7e0c89aaf808c8c8c611b57611623565b604051611b8c9493929190938452602084019290925263ffffffff1660408301526001600160a01b0316606082015260800190565b60405180910390a3611bac825f83611ba760208c018c613a90565b612193565b5050505050505050505050565b5f5f516020613f6b5f395f51905f52611bd181611d4e565b611bd9612b8a565b611be1611d91565b5f859003611c025760405163017636cb60e71b815260040160405180910390fd5b5f839003611c235760405163235c028360e11b815260040160405180910390fd5b5f611c425f516020613f4b5f395f51905f52546001600160a01b031690565b90508484604051611c54929190613ad5565b60405180910390208787604051611c6c929190613ad5565b6040519081900381209033907fc6fa8669e5cd3adef472c9e79b57298d69a72c68857bb43a41fdfefe62f88451905f90a4604051630afd9fa560e31b81526001600160a01b038216906357ecfd2890611ccf908a908a908a908a90600401613b0c565b6020604051808303815f875af1158015611ceb573d5f5f3e3d5ffd5b505050506040513d601f19601f82011682018060405250810190611d0f9190613b32565b979650505050505050565b5f6001600160e01b03198216637965db0b60e01b14806109e757506301ffc9a760e01b6001600160e01b03198316146109e7565b61104a8133612c85565b611d60612aca565b5f516020613fab5f395f51905f525460ff16611d8f57604051634e0b996360e11b815260040160405180910390fd5b565b5f51602061400b5f395f51905f525460ff1615611d8f5760405163d93c066560e01b815260040160405180910390fd5b805f03611dcb5750565b5f611dd46117f2565b6001600160a01b0316826040515f6040518083038185875af1925050503d805f8114611e1b576040519150601f19603f3d011682016040523d82523d5f602084013e611e20565b606091505b505090508061106857604051633204506f60e01b815260040160405180910390fd5b6001600160a01b038316611e695760405163d92e233d60e01b815260040160405180910390fd5b6040516001600160a01b0384166024820152604481018390525f9060640160408051601f198184030181529190526020810180516001600160e01b031663095ea7b360e01b17905290505f611ec086828486612193565b905080515f03611ed1575050610fed565b80516020148015611ef1575080806020019051810190611ef19190613b32565b15611efd575050610fed565b604051633d04426960e11b815260040160405180910390fd5b611f806040518061016001604052805f6001600160a01b031681526020015f8152602001606081526020015f81526020015f8152602001606081526020015f6001600160a01b03168152602001606081526020016060815260200160608152602001606081525090565b5f516020613fcb5f395f51905f525f611f976117f2565b90505f611fa2611623565b9050604051806101600160405280896001600160a01b0316815260200188815260200186604051602001611fd69190613b4d565b6040516020818303038152906040528152602001878152602001845f015481526020018260405160200161200a9190613b4d565b6040516020818303038152906040528152602001836001600160a01b031681526020018460010160019054906101000a90046001600160a01b03166040516020016120559190613b4d565b604051602081830303815290604052815260200160405180602001604052805f815250815260200160405180602001604052805f8152508152602001836040516020016120a29190613b4d565b60408051601f19818403018152919052905298975050505050505050565b5f5f85855f6040516024016120d793929190613b6a565b60408051601f198184030181529190526020810180516001600160e01b031663b930370160e01b17905290505f61212473ef4fb24ad0916217251f553c0596f8edc630eb66868487612193565b905080806020019051810190611d0f9190613cd9565b60605f848484604051602001612177939291906001600160a01b039390931683526001600160401b03918216602084015216604082015260600190565b6040516020818303038152906040529050611770600682612cbe565b606061219d6117f2565b6001600160a01b031663a6df3a8d868686866040518563ffffffff1660e01b81526004016121ce9493929190613d64565b5f604051808303815f875af11580156121e9573d5f5f3e3d5ffd5b505050506040513d5f823e601f3d908101601f191682016040526117709190810190613e1e565b805f516020613fcb5f395f51905f526001018054610100600160a81b0319166101006001600160a01b039384160217905560405190821681527f5e28d87b97c6ae566ef2ff78da838dc7435976b0abe197eb1045f3f510ae8c69906020015b60405180910390a150565b606061228583612cf0565b6040805163ffffffff8a166020820152881515918101919091526001600160401b0380881660608301528616608082015284151560a082015260ff841660c08201526001600160801b03831660e08201525f906101000160405160208183030381529060405290506122f8600182612cbe565b9998505050505050505050565b5f807ff0c57e16840df040f15088dc2f81fe391c3923bec73e23a9662efc9c229c6a006109e7565b612335612d1e565b6001600160a01b03841661235c5760405163d92e233d60e01b815260040160405180910390fd5b6001600160a01b0383166123835760405163d92e233d60e01b815260040160405180910390fd5b6001600160a01b0382166123aa5760405163d92e233d60e01b815260040160405180910390fd5b6001600160a01b0381166123d15760405163d92e233d60e01b815260040160405180910390fd5b6123d9612d43565b6123e1612d43565b6123e9612d43565b7f47cf185b6947c54347c76dfe91c3cd40a06dcd9e1310733403adda917a97e10080546001600160a01b0319166001600160a01b0386161790556124475f516020613f6b5f395f51905f525f51602061402b5f395f51905f52612d4b565b6124515f846126fb565b506124695f51602061402b5f395f51905f52836126fb565b506124815f51602061402b5f395f51905f52846126fb565b506124995f516020613f6b5f395f51905f52826126fb565b5050505050565b6124a8612d1e565b6001600160a01b0381166124cf5760405163d92e233d60e01b815260040160405180910390fd5b807f71d47e0ea4b3bf9d4cff6b12a28e6282e6ba28cb29ac58f4074519c2b4da0a005b80546001600160a01b0319166001600160a01b039290921691909117905550565b61251b612d1e565b806001600160401b03165f0361254457604051631f2a200560e01b815260040160405180910390fd5b7f789b871704bb1441ddd2ece4f82068130ae4608c26aa2af8bdfc5b256476f400805467ffffffffffffffff19166001600160401b0392909216919091179055565b61258e612d1e565b80516001600160a01b03166125b65760405163d92e233d60e01b815260040160405180910390fd5b60408101516001600160a01b03166125e15760405163d92e233d60e01b815260040160405180910390fd5b60608101516001600160a01b031661260c5760405163d92e233d60e01b815260040160405180910390fd5b80515f516020613f2b5f395f51905f52805460208085015163ffffffff1663ffffffff196001600160a01b0395861664010000000002166001600160c01b0319909316929092179190911782556040808501517f3017e6031acbb44412e27cd86624110f3442a97c460bded5ec6f84d8c165d00180549186166001600160a01b031990921691909117905560608501515f516020613f4b5f395f51905f5280546001600160a81b0319169190951617600160a01b1790935591516001815290917f54261684bf11515a9d50a885d387a6e69347bd5af31f88f734f3ea43ed1b97fc910160405180910390a15050565b5f5f516020613f0b5f395f51905f52816127158585612dab565b9050801561161b575f8581526020839052604090206127349085612e4c565b50949350505050565b5f5f516020613f0b5f395f51905f52816127578585612e60565b9050801561161b575f8581526020839052604090206127349085612ed9565b61277e612eed565b5f51602061400b5f395f51905f52805460ff191681557f5db9ee0a495bf2e6ff9c91a7834c1ba4fdd244a5e8aa4e537bd38aeae4b073aa335b6040516001600160a01b03909116815260200161226f565b306001600160a01b037f000000000000000000000000000000000000000000000000000000000000000016148061283f57507f00000000000000000000000000000000000000000000000000000000000000006001600160a01b0316612833612f1c565b6001600160a01b031614155b15611d8f5760405163703e46dd60e11b815260040160405180910390fd5b5f61106881611d4e565b816001600160a01b03166352d1902d6040518163ffffffff1660e01b8152600401602060405180830381865afa9250505080156128c1575060408051601f3d908101601f191682019092526128be91810190613cd9565b60015b6128ee57604051634c9c8ce360e01b81526001600160a01b03831660048201526024015b60405180910390fd5b5f516020613f8b5f395f51905f52811461291e57604051632a87526960e21b8152600481018290526024016128e5565b6110268383612f30565b6040805163ffffffff841660208201526001600160401b0383168183015281518082038301815260609182019092529061161b600a82612cbe565b306001600160a01b037f00000000000000000000000000000000000000000000000000000000000000001614611d8f5760405163703e46dd60e11b815260040160405180910390fd5b6040805163ffffffff841660208201526001600160801b0383168183015281518082038301815260609182019092529061161b600b82612cbe565b5f516020613f4b5f395f51905f52805460ff60a01b1916600160a01b831515908102919091179091556040519081527f54261684bf11515a9d50a885d387a6e69347bd5af31f88f734f3ea43ed1b97fc9060200161226f565b612a48611d91565b5f51602061400b5f395f51905f52805460ff191660011781557f62e78cea01bee320cd4e420270b5ea74000d11b0c9f74754ebdbfc544b05a258336127b7565b5f6117eb8383612f85565b604080516001600160401b03841660208201528215158183015281518082038301815260609182019092529061161b600782612cbe565b5f612ad3611623565b6001600160a01b031603612afa5760405163218957dd60e21b815260040160405180910390fd5b5f516020613fcb5f395f51905f52545f03611d8f57604051632dfc8e7760e21b815260040160405180910390fd5b5f516020613fab5f395f51905f52805460ff19168215159081179091556040519081527fe33cde4d15681ba1266af1446bddc5806e572585bd67e2a51c383e2f55637a279060200161226f565b60605f6117eb83612fab565b5f6109e7825490565b5f612b93611623565b6001600160a01b031603612bba5760405163218957dd60e21b815260040160405180910390fd5b5f516020613f4b5f395f51905f52545f516020613f2b5f395f51905f5290600160a01b900460ff16612bff57604051633500fe6f60e01b815260040160405180910390fd5b805464010000000090046001600160a01b0316612c2f5760405163d92e233d60e01b815260040160405180910390fd5b60018101546001600160a01b0316612c5a5760405163d92e233d60e01b815260040160405180910390fd5b60028101546001600160a01b031661104a5760405163d92e233d60e01b815260040160405180910390fd5b612c8f828261167a565b6110685760405163e2517d3f60e01b81526001600160a01b0382166004820152602481018390526044016128e5565b606060018360e81b83604051602001612cd993929190613ea9565b604051602081830303815290604052905092915050565b612cf981613004565b819061106857604051631553e89d60e21b815260ff90911660048201526024016128e5565b612d26613022565b611d8f57604051631afcd79f60e31b815260040160405180910390fd5b611d8f612d1e565b5f516020613feb5f395f51905f525f612d6384610e96565b5f85815260208490526040808220600101869055519192508491839187917fbd79b86ffe0ab8e8776151514217cd7cacd52c909f66475c3af44e129f0b00ff9190a450505050565b5f5f516020613feb5f395f51905f52612dc4848461167a565b612e43575f848152602082815260408083206001600160a01b03871684529091529020805460ff19166001179055612df93390565b6001600160a01b0316836001600160a01b0316857f2f8788117e7eff1d82e926ec794901d17c78024a50270940304540a733656f0d60405160405180910390a460019150506109e7565b5f9150506109e7565b5f6117eb836001600160a01b03841661303b565b5f5f516020613feb5f395f51905f52612e79848461167a565b15612e43575f848152602082815260408083206001600160a01b0387168085529252808320805460ff1916905551339287917ff6391f5c32d9c69d2a47ea670b442974b53935d1edc7fd64eb21e047a839171b9190a460019150506109e7565b5f6117eb836001600160a01b038416613087565b5f51602061400b5f395f51905f525460ff16611d8f57604051638dfc202b60e01b815260040160405180910390fd5b5f5f516020613f8b5f395f51905f52611646565b612f3982613161565b6040516001600160a01b038316907fbc7cd75a20ee27fd9adebab32041f755214dbc6bffa90cc0225b39da2e5c2d3b905f90a2805115612f7d5761102682826131aa565b611068613213565b5f825f018281548110612f9a57612f9a613a7c565b905f5260205f200154905092915050565b6060815f01805480602002602001604051908101604052809291908181526020018280548015612ff857602002820191905f5260205f20905b815481526020019060010190808311612fe4575b50505050509050919050565b5f600160ff8316108015906109e75750600360ff8316111592915050565b5f61302b612305565b54600160401b900460ff16919050565b5f81815260018301602052604081205461308057508154600181810184555f8481526020808220909301849055845484825282860190935260409020919091556109e7565b505f6109e7565b5f8181526001830160205260408120548015612e43575f6130a9600183613ed8565b85549091505f906130bc90600190613ed8565b905080821461311b575f865f0182815481106130da576130da613a7c565b905f5260205f200154905080875f0184815481106130fa576130fa613a7c565b5f918252602080832090910192909255918252600188019052604090208390555b855486908061312c5761312c613eeb565b600190038181905f5260205f20015f90559055856001015f8681526020019081526020015f205f9055600193505050506109e7565b806001600160a01b03163b5f0361319657604051634c9c8ce360e01b81526001600160a01b03821660048201526024016128e5565b805f516020613f8b5f395f51905f526124f2565b60605f5f846001600160a01b0316846040516131c69190613eff565b5f60405180830381855af49150503d805f81146131fe576040519150601f19603f3d011682016040523d82523d5f602084013e613203565b606091505b5091509150611770858383613232565b3415611d8f5760405163b398979f60e01b815260040160405180910390fd5b606082613247576132428261328e565b6117eb565b815115801561325e57506001600160a01b0384163b155b1561328757604051639996b31560e01b81526001600160a01b03851660048201526024016128e5565b50806117eb565b80511561329d57805160208201fd5b60405163d6bda27560e01b815260040160405180910390fd5b5f602082840312156132c6575f5ffd5b81356001600160e01b0319811681146117eb575f5ffd5b80356001600160a01b03811681146132f3575f5ffd5b919050565b80356001600160401b03811681146132f3575f5ffd5b80604081018310156109e7575f5ffd5b5f5f5f5f5f5f5f60e0888a031215613334575f5ffd5b61333d886132dd565b96506020880135955060408801359450613359606089016132dd565b93506080880135925061336e60a089016132f8565b915060c08801356001600160401b03811115613388575f5ffd5b6133948a828b0161330e565b91505092959891949750929550565b5f606082840312156133b3575f5ffd5b50919050565b5f5f5f606084860312156133cb575f5ffd5b6133d4846132f8565b92506133e2602085016132f8565b915060408401356001600160401b038111156133fc575f5ffd5b613408868287016133a3565b9150509250925092565b5f81518084528060208401602086015e5f602082860101526020601f19601f83011685010191505092915050565b602081525f6117eb6020830184613412565b5f60208284031215613462575f5ffd5b6117eb826132f8565b5f5f6040838503121561347c575f5ffd5b8235915061348c602084016132dd565b90509250929050565b803563ffffffff811681146132f3575f5ffd5b801515811461104a575f5ffd5b80356001600160801b03811681146132f3575f5ffd5b5f5f5f5f5f5f5f60e0888a0312156134e1575f5ffd5b6134ea88613495565b96506134f8602089016132f8565b9550613506604089016132f8565b94506060880135613516816134a8565b9350608088013560ff8116811461352b575f5ffd5b925061353960a089016134b5565b915060c08801356001600160401b03811115613553575f5ffd5b6133948a828b016133a3565b5f6020828403121561356f575f5ffd5b5035919050565b634e487b7160e01b5f52604160045260245ffd5b604051608081016001600160401b03811182821017156135ac576135ac613576565b60405290565b604051601f8201601f191681016001600160401b03811182821017156135da576135da613576565b604052919050565b5f5f5f5f5f5f5f8789036101408112156135fa575f5ffd5b613603896132dd565b975061361160208a016132dd565b965061361f60408a016132dd565b955061362d60608a016132dd565b945061363b60808a016132dd565b935061364960a08a016132f8565b9250608060bf198201121561365c575f5ffd5b5061366561358a565b61367160c08a016132dd565b815261367f60e08a01613495565b60208201526136916101008a016132dd565b60408201526136a36101208a016132dd565b60608201528091505092959891949750929550565b5f6001600160401b038211156136d0576136d0613576565b50601f01601f191660200190565b5f5f604083850312156136ef575f5ffd5b6136f8836132dd565b915060208301356001600160401b03811115613712575f5ffd5b8301601f81018513613722575f5ffd5b8035613735613730826136b8565b6135b2565b818152866020838501011115613749575f5ffd5b816020840160208301375f602083830101528093505050509250929050565b5f5f5f6060848603121561377a575f5ffd5b6133d484613495565b5f60208284031215613793575f5ffd5b6117eb826132dd565b5f5f604083850312156137ad575f5ffd5b6137b6836132f8565b915060208301356001600160401b038111156137d0575f5ffd5b6137dc858286016133a3565b9150509250929050565b5f5f5f606084860312156137f8575f5ffd5b61380184613495565b92506133e2602085016134b5565b5f5f5f5f60808587031215613822575f5ffd5b61382b856132dd565b9350613839602086016132f8565b92506040850135915060608501356001600160401b0381111561385a575f5ffd5b613866878288016133a3565b91505092959194509250565b5f5f5f5f5f5f60c08789031215613887575f5ffd5b863595506020870135945061389e604088016132dd565b9350606087013592506138b3608088016132f8565b915060a08701356001600160401b038111156138cd575f5ffd5b6138d989828a016133a3565b9150509295509295509295565b5f5f604083850312156138f7575f5ffd5b8235915060208301356001600160401b038111156137d0575f5ffd5b5f5f60408385031215613924575f5ffd5b50508035926020909101359150565b602080825282518282018190525f918401906040840190835b818110156139735783516001600160a01b031683526020938401939092019160010161394c565b509095945050505050565b5f5f5f5f60808587031215613991575f5ffd5b84359350602085013592506139a860408601613495565b915060608501356001600160401b038111156139c2575f5ffd5b6138668782880161330e565b5f5f83601f8401126139de575f5ffd5b5081356001600160401b038111156139f4575f5ffd5b602083019150836020828501011115613a0b575f5ffd5b9250929050565b5f5f5f5f60408587031215613a25575f5ffd5b84356001600160401b03811115613a3a575f5ffd5b613a46878288016139ce565b90955093505060208501356001600160401b03811115613a64575f5ffd5b613a70878288016139ce565b95989497509550505050565b634e487b7160e01b5f52603260045260245ffd5b5f8235605e19833603018112613aa4575f5ffd5b9190910192915050565b634e487b7160e01b5f52601160045260245ffd5b808201808211156109e7576109e7613aae565b818382375f9101908152919050565b81835281816020850137505f828201602090810191909152601f909101601f19169091010190565b604081525f613b1f604083018688613ae4565b8281036020840152611d0f818587613ae4565b5f60208284031215613b42575f5ffd5b81516117eb816134a8565b60609190911b6bffffffffffffffffffffffff1916815260140190565b60c08152613b8460c0820185516001600160a01b03169052565b602084015160e08201525f6040850151610160610100840152613bab610220840182613412565b90506060860151610120840152608086015161014084015260a086015160bf1984830301610160850152613bdf8282613412565b91505060c0860151613bfd6101808501826001600160a01b03169052565b5060e086015183820360bf19016101a0850152613c1a8282613412565b91505061010086015160bf19848303016101c0850152613c3a8282613412565b91505061012086015160bf19848303016101e0850152613c5a8282613412565b91505061014086015160bf1984830301610200850152613c7a8282613412565b915050613c9260208401866001600160401b03169052565b82810360408401525f81526020810163ffffffff85166060850152905082810360808401525f81526020810183810360a08501525f81529050602081019695505050505050565b5f60208284031215613ce9575f5ffd5b5051919050565b5f5f8335601e19843603018112613d05575f5ffd5b83016020810192503590506001600160401b03811115613d23575f5ffd5b8060051b3603821315613a0b575f5ffd5b8183525f6001600160fb1b03831115613d4b575f5ffd5b8260051b80836020870137939093016020019392505050565b60018060a01b0385168152836020820152608060408201525f613d8a6080830185613412565b8281036060840152833560048110158015613da3575f5ffd5b508152602084013536859003601e19018112613dbd575f5ffd5b84016020810190356001600160401b03811115613dd8575f5ffd5b803603821315613de6575f5ffd5b60606020840152613dfb606084018284613ae4565b915050613e0b6040860186613cf0565b8383036040850152610e88838284613d34565b5f60208284031215613e2e575f5ffd5b81516001600160401b03811115613e43575f5ffd5b8201601f81018413613e53575f5ffd5b8051613e61613730826136b8565b818152856020838501011115613e75575f5ffd5b8160208401602083015e5f91810160200191909152949350505050565b5f81518060208401855e5f93019283525090919050565b60f884901b6001600160f81b03191681526001600160e81b0319831660018201525f6117706004830184613e92565b818103818111156109e7576109e7613aae565b634e487b7160e01b5f52603160045260245ffd5b5f6117eb8284613e9256fec1f6fe24621ce81ec5827caf0253cadb74709b061630e6b55e823717059320003017e6031acbb44412e27cd86624110f3442a97c460bded5ec6f84d8c165d0003017e6031acbb44412e27cd86624110f3442a97c460bded5ec6f84d8c165d002850d585eb7f024ccee5e68e55f2c26cc72e1e6ee456acf62135757a5eb9d4a10360894a13ba1a3210667c828492db98dca3e2076cc3735a920a3ca505d382bbc7cb9b7aa97cfae96b6e3d67edba431b9a40f18e5090b0f96af70aa487bf0d7017cb9b7aa97cfae96b6e3d67edba431b9a40f18e5090b0f96af70aa487bf0d70002dd7bc7dec4dceedda775e58dd541e08a116c6c53815c0bd028192f7b626800cd5ed15c6e187e77e9aee88184c21f4f2182ab5827cb3b7e07fbedcd63f0330055435dd261a4b9b3364963f7738a7a662ad9c84396d64be3365284bb7f0a5041a2646970667358221220d393dcb47ca033b81ca52d58f2347484807fa88be447a97f82c085cdd0aaa7ec64736f6c634300081d0033",
        "linkReferences": {}
    },
    "methodIdentifiers": {
        "CURATOR_ROLE()": "4a2cfb54",
        "DEFAULT_ADMIN_ROLE()": "a217fddf",
        "DLN_DESTINATION()": "b17081d7",
        "GUARDIAN_ROLE()": "24ea54f4",
        "UPGRADE_INTERFACE_VERSION()": "ad3cb1cc",
        "bridgeErc20ViaDeBridge(address,uint256,uint256,address,uint256,uint64,(uint8,bytes,bytes32[])[2])": "07495840",
        "bridgeNativeViaDeBridge(uint256,uint256,address,uint256,uint64,(uint8,bytes,bytes32[]))": "7efccc5e",
        "bridgeRecipient()": "8cdadf48",
        "bridgeUsdcViaCctpV2(uint256,uint256,uint32,(uint8,bytes,bytes32[])[2])": "e7b70bd2",
        "cancelOrderByCloid(uint32,uint128,(uint8,bytes,bytes32[]))": "63e8d189",
        "cancelOrderByOid(uint32,uint64,(uint8,bytes,bytes32[]))": "4f2c42da",
        "cctpV2DestinationDomain()": "fceac4e6",
        "cctpV2MessageTransmitter()": "9c80c370",
        "cctpV2TokenMessenger()": "4926234a",
        "coreSystemAddress(uint64)": "0bb9f178",
        "deBridgeOrderAuthority()": "82f7fb07",
        "deBridgeTakeChainId()": "572eb210",
        "depositHypeToCore(uint256,(uint8,bytes,bytes32[]))": "86e14744",
        "depositTokenToCore(address,uint64,uint256,(uint8,bytes,bytes32[]))": "73edb66c",
        "disableCctpV2()": "96d0ee08",
        "disableDeBridge()": "de15fbdd",
        "enableCctpV2()": "6a4545be",
        "enableDeBridge()": "9a051a78",
        "getRoleAdmin(bytes32)": "248a9ca3",
        "getRoleMember(bytes32,uint256)": "9010d07c",
        "getRoleMemberCount(bytes32)": "ca15c873",
        "getRoleMembers(bytes32)": "a3246ad3",
        "grantRole(bytes32,address)": "2f2ff15d",
        "hasRole(bytes32,address)": "91d14854",
        "hypeTokenIndex()": "5576b0b7",
        "initialize(address,address,address,address,address,uint64,(address,uint32,address,address))": "2c491f17",
        "initializeDeBridge(uint256,address)": "1592855b",
        "isCctpV2Enabled()": "029d754d",
        "isDeBridgeEnabled()": "5a2f511c",
        "pause()": "8456cb59",
        "paused()": "5c975abb",
        "placeLimitBuyOrder(uint32,uint64,uint64,bool,uint8,uint128,(uint8,bytes,bytes32[]))": "17573846",
        "placeLimitSellOrder(uint32,uint64,uint64,bool,uint8,uint128,(uint8,bytes,bytes32[]))": "d450a6c6",
        "proxiableUUID()": "52d1902d",
        "receiveUsdcViaCctpV2(bytes,bytes)": "fe582621",
        "renounceRole(bytes32,address)": "36568abe",
        "revokeRole(bytes32,address)": "d547741f",
        "setDeBridgeOrderAuthority(address)": "58b43cd1",
        "subvault()": "b3ab252a",
        "supportsInterface(bytes4)": "01ffc9a7",
        "transferPerpToSpot(uint64,(uint8,bytes,bytes32[]))": "c226db55",
        "transferSpotToPerp(uint64,(uint8,bytes,bytes32[]))": "9526fd16",
        "unpause()": "3f4ba83a",
        "upgradeToAndCall(address,bytes)": "4f1ef286",
        "usdc()": "3e413bee",
        "withdrawHypeToEvm(uint64,(uint8,bytes,bytes32[]))": "5eb3f965",
        "withdrawTokenToEvm(uint64,uint64,(uint8,bytes,bytes32[]))": "0941a849"
    },
    "id": 59
}