{
    "abi": [
        {
            "type": "constructor",
            "inputs": [
                {
                    "name": "name_",
                    "type": "string",
                    "internalType": "string"
                },
                {
                    "name": "version_",
                    "type": "uint256",
                    "internalType": "uint256"
                },
                {
                    "name": "depositQueueFactory_",
                    "type": "address",
                    "internalType": "address"
                },
                {
                    "name": "redeemQueueFactory_",
                    "type": "address",
                    "internalType": "address"
                },
                {
                    "name": "subvaultFactory_",
                    "type": "address",
                    "internalType": "address"
                },
                {
                    "name": "verifierFactory_",
                    "type": "address",
                    "internalType": "address"
                }
            ],
            "stateMutability": "nonpayable"
        },
        {
            "type": "receive",
            "stateMutability": "payable"
        },
        {
            "type": "function",
            "name": "CREATE_QUEUE_ROLE",
            "inputs": [],
            "outputs": [
                {
                    "name": "",
                    "type": "bytes32",
                    "internalType": "bytes32"
                }
            ],
            "stateMutability": "view"
        },
        {
            "type": "function",
            "name": "CREATE_SUBVAULT_ROLE",
            "inputs": [],
            "outputs": [
                {
                    "name": "",
                    "type": "bytes32",
                    "internalType": "bytes32"
                }
            ],
            "stateMutability": "view"
        },
        {
            "type": "function",
            "name": "DEFAULT_ADMIN_ROLE",
            "inputs": [],
            "outputs": [
                {
                    "name": "",
                    "type": "bytes32",
                    "internalType": "bytes32"
                }
            ],
            "stateMutability": "view"
        },
        {
            "type": "function",
            "name": "DISCONNECT_SUBVAULT_ROLE",
            "inputs": [],
            "outputs": [
                {
                    "name": "",
                    "type": "bytes32",
                    "internalType": "bytes32"
                }
            ],
            "stateMutability": "view"
        },
        {
            "type": "function",
            "name": "PULL_LIQUIDITY_ROLE",
            "inputs": [],
            "outputs": [
                {
                    "name": "",
                    "type": "bytes32",
                    "internalType": "bytes32"
                }
            ],
            "stateMutability": "view"
        },
        {
            "type": "function",
            "name": "PUSH_LIQUIDITY_ROLE",
            "inputs": [],
            "outputs": [
                {
                    "name": "",
                    "type": "bytes32",
                    "internalType": "bytes32"
                }
            ],
            "stateMutability": "view"
        },
        {
            "type": "function",
            "name": "RECONNECT_SUBVAULT_ROLE",
            "inputs": [],
            "outputs": [
                {
                    "name": "",
                    "type": "bytes32",
                    "internalType": "bytes32"
                }
            ],
            "stateMutability": "view"
        },
        {
            "type": "function",
            "name": "REMOVE_QUEUE_ROLE",
            "inputs": [],
            "outputs": [
                {
                    "name": "",
                    "type": "bytes32",
                    "internalType": "bytes32"
                }
            ],
            "stateMutability": "view"
        },
        {
            "type": "function",
            "name": "SET_HOOK_ROLE",
            "inputs": [],
            "outputs": [
                {
                    "name": "",
                    "type": "bytes32",
                    "internalType": "bytes32"
                }
            ],
            "stateMutability": "view"
        },
        {
            "type": "function",
            "name": "SET_QUEUE_LIMIT_ROLE",
            "inputs": [],
            "outputs": [
                {
                    "name": "",
                    "type": "bytes32",
                    "internalType": "bytes32"
                }
            ],
            "stateMutability": "view"
        },
        {
            "type": "function",
            "name": "SET_QUEUE_STATUS_ROLE",
            "inputs": [],
            "outputs": [
                {
                    "name": "",
                    "type": "bytes32",
                    "internalType": "bytes32"
                }
            ],
            "stateMutability": "view"
        },
        {
            "type": "function",
            "name": "assetAt",
            "inputs": [
                {
                    "name": "index",
                    "type": "uint256",
                    "internalType": "uint256"
                }
            ],
            "outputs": [
                {
                    "name": "",
                    "type": "address",
                    "internalType": "address"
                }
            ],
            "stateMutability": "view"
        },
        {
            "type": "function",
            "name": "callHook",
            "inputs": [
                {
                    "name": "assets",
                    "type": "uint256",
                    "internalType": "uint256"
                }
            ],
            "outputs": [],
            "stateMutability": "nonpayable"
        },
        {
            "type": "function",
            "name": "claimShares",
            "inputs": [
                {
                    "name": "account",
                    "type": "address",
                    "internalType": "address"
                }
            ],
            "outputs": [],
            "stateMutability": "nonpayable"
        },
        {
            "type": "function",
            "name": "claimableSharesOf",
            "inputs": [
                {
                    "name": "account",
                    "type": "address",
                    "internalType": "address"
                }
            ],
            "outputs": [
                {
                    "name": "shares",
                    "type": "uint256",
                    "internalType": "uint256"
                }
            ],
            "stateMutability": "view"
        },
        {
            "type": "function",
            "name": "createQueue",
            "inputs": [
                {
                    "name": "version",
                    "type": "uint256",
                    "internalType": "uint256"
                },
                {
                    "name": "isDeposit",
                    "type": "bool",
                    "internalType": "bool"
                },
                {
                    "name": "owner",
                    "type": "address",
                    "internalType": "address"
                },
                {
                    "name": "asset",
                    "type": "address",
                    "internalType": "address"
                },
                {
                    "name": "data",
                    "type": "bytes",
                    "internalType": "bytes"
                }
            ],
            "outputs": [],
            "stateMutability": "nonpayable"
        },
        {
            "type": "function",
            "name": "createSubvault",
            "inputs": [
                {
                    "name": "version",
                    "type": "uint256",
                    "internalType": "uint256"
                },
                {
                    "name": "owner",
                    "type": "address",
                    "internalType": "address"
                },
                {
                    "name": "verifier",
                    "type": "address",
                    "internalType": "address"
                }
            ],
            "outputs": [
                {
                    "name": "subvault",
                    "type": "address",
                    "internalType": "address"
                }
            ],
            "stateMutability": "nonpayable"
        },
        {
            "type": "function",
            "name": "defaultDepositHook",
            "inputs": [],
            "outputs": [
                {
                    "name": "",
                    "type": "address",
                    "internalType": "address"
                }
            ],
            "stateMutability": "view"
        },
        {
            "type": "function",
            "name": "defaultRedeemHook",
            "inputs": [],
            "outputs": [
                {
                    "name": "",
                    "type": "address",
                    "internalType": "address"
                }
            ],
            "stateMutability": "view"
        },
        {
            "type": "function",
            "name": "depositQueueFactory",
            "inputs": [],
            "outputs": [
                {
                    "name": "",
                    "type": "address",
                    "internalType": "contract IFactory"
                }
            ],
            "stateMutability": "view"
        },
        {
            "type": "function",
            "name": "disconnectSubvault",
            "inputs": [
                {
                    "name": "subvault",
                    "type": "address",
                    "internalType": "address"
                }
            ],
            "outputs": [],
            "stateMutability": "nonpayable"
        },
        {
            "type": "function",
            "name": "feeManager",
            "inputs": [],
            "outputs": [
                {
                    "name": "",
                    "type": "address",
                    "internalType": "contract IFeeManager"
                }
            ],
            "stateMutability": "view"
        },
        {
            "type": "function",
            "name": "getAssetCount",
            "inputs": [],
            "outputs": [
                {
                    "name": "",
                    "type": "uint256",
                    "internalType": "uint256"
                }
            ],
            "stateMutability": "view"
        },
        {
            "type": "function",
            "name": "getHook",
            "inputs": [
                {
                    "name": "queue",
                    "type": "address",
                    "internalType": "address"
                }
            ],
            "outputs": [
                {
                    "name": "",
                    "type": "address",
                    "internalType": "address"
                }
            ],
            "stateMutability": "view"
        },
        {
            "type": "function",
            "name": "getLiquidAssets",
            "inputs": [],
            "outputs": [
                {
                    "name": "",
                    "type": "uint256",
                    "internalType": "uint256"
                }
            ],
            "stateMutability": "view"
        },
        {
            "type": "function",
            "name": "getQueueCount",
            "inputs": [],
            "outputs": [
                {
                    "name": "",
                    "type": "uint256",
                    "internalType": "uint256"
                }
            ],
            "stateMutability": "view"
        },
        {
            "type": "function",
            "name": "getQueueCount",
            "inputs": [
                {
                    "name": "asset",
                    "type": "address",
                    "internalType": "address"
                }
            ],
            "outputs": [
                {
                    "name": "",
                    "type": "uint256",
                    "internalType": "uint256"
                }
            ],
            "stateMutability": "view"
        },
        {
            "type": "function",
            "name": "getRoleAdmin",
            "inputs": [
                {
                    "name": "role",
                    "type": "bytes32",
                    "internalType": "bytes32"
                }
            ],
            "outputs": [
                {
                    "name": "",
                    "type": "bytes32",
                    "internalType": "bytes32"
                }
            ],
            "stateMutability": "view"
        },
        {
            "type": "function",
            "name": "getRoleMember",
            "inputs": [
                {
                    "name": "role",
                    "type": "bytes32",
                    "internalType": "bytes32"
                },
                {
                    "name": "index",
                    "type": "uint256",
                    "internalType": "uint256"
                }
            ],
            "outputs": [
                {
                    "name": "",
                    "type": "address",
                    "internalType": "address"
                }
            ],
            "stateMutability": "view"
        },
        {
            "type": "function",
            "name": "getRoleMemberCount",
            "inputs": [
                {
                    "name": "role",
                    "type": "bytes32",
                    "internalType": "bytes32"
                }
            ],
            "outputs": [
                {
                    "name": "",
                    "type": "uint256",
                    "internalType": "uint256"
                }
            ],
            "stateMutability": "view"
        },
        {
            "type": "function",
            "name": "getRoleMembers",
            "inputs": [
                {
                    "name": "role",
                    "type": "bytes32",
                    "internalType": "bytes32"
                }
            ],
            "outputs": [
                {
                    "name": "",
                    "type": "address[]",
                    "internalType": "address[]"
                }
            ],
            "stateMutability": "view"
        },
        {
            "type": "function",
            "name": "getStorageAt",
            "inputs": [
                {
                    "name": "slot",
                    "type": "bytes32",
                    "internalType": "bytes32"
                }
            ],
            "outputs": [
                {
                    "name": "",
                    "type": "tuple",
                    "internalType": "struct StorageSlot.Bytes32Slot",
                    "components": [
                        {
                            "name": "value",
                            "type": "bytes32",
                            "internalType": "bytes32"
                        }
                    ]
                }
            ],
            "stateMutability": "pure"
        },
        {
            "type": "function",
            "name": "grantRole",
            "inputs": [
                {
                    "name": "role",
                    "type": "bytes32",
                    "internalType": "bytes32"
                },
                {
                    "name": "account",
                    "type": "address",
                    "internalType": "address"
                }
            ],
            "outputs": [],
            "stateMutability": "nonpayable"
        },
        {
            "type": "function",
            "name": "handleReport",
            "inputs": [
                {
                    "name": "asset",
                    "type": "address",
                    "internalType": "address"
                },
                {
                    "name": "priceD18",
                    "type": "uint224",
                    "internalType": "uint224"
                },
                {
                    "name": "depositTimestamp",
                    "type": "uint32",
                    "internalType": "uint32"
                },
                {
                    "name": "redeemTimestamp",
                    "type": "uint32",
                    "internalType": "uint32"
                }
            ],
            "outputs": [],
            "stateMutability": "nonpayable"
        },
        {
            "type": "function",
            "name": "hasAsset",
            "inputs": [
                {
                    "name": "asset",
                    "type": "address",
                    "internalType": "address"
                }
            ],
            "outputs": [
                {
                    "name": "",
                    "type": "bool",
                    "internalType": "bool"
                }
            ],
            "stateMutability": "view"
        },
        {
            "type": "function",
            "name": "hasQueue",
            "inputs": [
                {
                    "name": "queue",
                    "type": "address",
                    "internalType": "address"
                }
            ],
            "outputs": [
                {
                    "name": "",
                    "type": "bool",
                    "internalType": "bool"
                }
            ],
            "stateMutability": "view"
        },
        {
            "type": "function",
            "name": "hasRole",
            "inputs": [
                {
                    "name": "role",
                    "type": "bytes32",
                    "internalType": "bytes32"
                },
                {
                    "name": "account",
                    "type": "address",
                    "internalType": "address"
                }
            ],
            "outputs": [
                {
                    "name": "",
                    "type": "bool",
                    "internalType": "bool"
                }
            ],
            "stateMutability": "view"
        },
        {
            "type": "function",
            "name": "hasSubvault",
            "inputs": [
                {
                    "name": "subvault",
                    "type": "address",
                    "internalType": "address"
                }
            ],
            "outputs": [
                {
                    "name": "",
                    "type": "bool",
                    "internalType": "bool"
                }
            ],
            "stateMutability": "view"
        },
        {
            "type": "function",
            "name": "hasSupportedRole",
            "inputs": [
                {
                    "name": "role",
                    "type": "bytes32",
                    "internalType": "bytes32"
                }
            ],
            "outputs": [
                {
                    "name": "",
                    "type": "bool",
                    "internalType": "bool"
                }
            ],
            "stateMutability": "view"
        },
        {
            "type": "function",
            "name": "hookPullAssets",
            "inputs": [
                {
                    "name": "subvault",
                    "type": "address",
                    "internalType": "address"
                },
                {
                    "name": "asset",
                    "type": "address",
                    "internalType": "address"
                },
                {
                    "name": "value",
                    "type": "uint256",
                    "internalType": "uint256"
                }
            ],
            "outputs": [],
            "stateMutability": "nonpayable"
        },
        {
            "type": "function",
            "name": "hookPushAssets",
            "inputs": [
                {
                    "name": "subvault",
                    "type": "address",
                    "internalType": "address"
                },
                {
                    "name": "asset",
                    "type": "address",
                    "internalType": "address"
                },
                {
                    "name": "value",
                    "type": "uint256",
                    "internalType": "uint256"
                }
            ],
            "outputs": [],
            "stateMutability": "nonpayable"
        },
        {
            "type": "function",
            "name": "initialize",
            "inputs": [
                {
                    "name": "initParams",
                    "type": "bytes",
                    "internalType": "bytes"
                }
            ],
            "outputs": [],
            "stateMutability": "nonpayable"
        },
        {
            "type": "function",
            "name": "isDepositQueue",
            "inputs": [
                {
                    "name": "queue",
                    "type": "address",
                    "internalType": "address"
                }
            ],
            "outputs": [
                {
                    "name": "",
                    "type": "bool",
                    "internalType": "bool"
                }
            ],
            "stateMutability": "view"
        },
        {
            "type": "function",
            "name": "isPausedQueue",
            "inputs": [
                {
                    "name": "queue",
                    "type": "address",
                    "internalType": "address"
                }
            ],
            "outputs": [
                {
                    "name": "",
                    "type": "bool",
                    "internalType": "bool"
                }
            ],
            "stateMutability": "view"
        },
        {
            "type": "function",
            "name": "onERC721Received",
            "inputs": [
                {
                    "name": "",
                    "type": "address",
                    "internalType": "address"
                },
                {
                    "name": "",
                    "type": "address",
                    "internalType": "address"
                },
                {
                    "name": "",
                    "type": "uint256",
                    "internalType": "uint256"
                },
                {
                    "name": "",
                    "type": "bytes",
                    "internalType": "bytes"
                }
            ],
            "outputs": [
                {
                    "name": "",
                    "type": "bytes4",
                    "internalType": "bytes4"
                }
            ],
            "stateMutability": "pure"
        },
        {
            "type": "function",
            "name": "oracle",
            "inputs": [],
            "outputs": [
                {
                    "name": "",
                    "type": "address",
                    "internalType": "contract IOracle"
                }
            ],
            "stateMutability": "view"
        },
        {
            "type": "function",
            "name": "pullAssets",
            "inputs": [
                {
                    "name": "subvault",
                    "type": "address",
                    "internalType": "address"
                },
                {
                    "name": "asset",
                    "type": "address",
                    "internalType": "address"
                },
                {
                    "name": "value",
                    "type": "uint256",
                    "internalType": "uint256"
                }
            ],
            "outputs": [],
            "stateMutability": "nonpayable"
        },
        {
            "type": "function",
            "name": "pushAssets",
            "inputs": [
                {
                    "name": "subvault",
                    "type": "address",
                    "internalType": "address"
                },
                {
                    "name": "asset",
                    "type": "address",
                    "internalType": "address"
                },
                {
                    "name": "value",
                    "type": "uint256",
                    "internalType": "uint256"
                }
            ],
            "outputs": [],
            "stateMutability": "nonpayable"
        },
        {
            "type": "function",
            "name": "queueAt",
            "inputs": [
                {
                    "name": "asset",
                    "type": "address",
                    "internalType": "address"
                },
                {
                    "name": "index",
                    "type": "uint256",
                    "internalType": "uint256"
                }
            ],
            "outputs": [
                {
                    "name": "",
                    "type": "address",
                    "internalType": "address"
                }
            ],
            "stateMutability": "view"
        },
        {
            "type": "function",
            "name": "queueLimit",
            "inputs": [],
            "outputs": [
                {
                    "name": "",
                    "type": "uint256",
                    "internalType": "uint256"
                }
            ],
            "stateMutability": "view"
        },
        {
            "type": "function",
            "name": "reconnectSubvault",
            "inputs": [
                {
                    "name": "subvault",
                    "type": "address",
                    "internalType": "address"
                }
            ],
            "outputs": [],
            "stateMutability": "nonpayable"
        },
        {
            "type": "function",
            "name": "redeemQueueFactory",
            "inputs": [],
            "outputs": [
                {
                    "name": "",
                    "type": "address",
                    "internalType": "contract IFactory"
                }
            ],
            "stateMutability": "view"
        },
        {
            "type": "function",
            "name": "removeQueue",
            "inputs": [
                {
                    "name": "queue",
                    "type": "address",
                    "internalType": "address"
                }
            ],
            "outputs": [],
            "stateMutability": "nonpayable"
        },
        {
            "type": "function",
            "name": "renounceRole",
            "inputs": [
                {
                    "name": "role",
                    "type": "bytes32",
                    "internalType": "bytes32"
                },
                {
                    "name": "callerConfirmation",
                    "type": "address",
                    "internalType": "address"
                }
            ],
            "outputs": [],
            "stateMutability": "nonpayable"
        },
        {
            "type": "function",
            "name": "revokeRole",
            "inputs": [
                {
                    "name": "role",
                    "type": "bytes32",
                    "internalType": "bytes32"
                },
                {
                    "name": "account",
                    "type": "address",
                    "internalType": "address"
                }
            ],
            "outputs": [],
            "stateMutability": "nonpayable"
        },
        {
            "type": "function",
            "name": "riskManager",
            "inputs": [],
            "outputs": [
                {
                    "name": "",
                    "type": "address",
                    "internalType": "contract IRiskManager"
                }
            ],
            "stateMutability": "view"
        },
        {
            "type": "function",
            "name": "setCustomHook",
            "inputs": [
                {
                    "name": "queue",
                    "type": "address",
                    "internalType": "address"
                },
                {
                    "name": "hook",
                    "type": "address",
                    "internalType": "address"
                }
            ],
            "outputs": [],
            "stateMutability": "nonpayable"
        },
        {
            "type": "function",
            "name": "setDefaultDepositHook",
            "inputs": [
                {
                    "name": "hook",
                    "type": "address",
                    "internalType": "address"
                }
            ],
            "outputs": [],
            "stateMutability": "nonpayable"
        },
        {
            "type": "function",
            "name": "setDefaultRedeemHook",
            "inputs": [
                {
                    "name": "hook",
                    "type": "address",
                    "internalType": "address"
                }
            ],
            "outputs": [],
            "stateMutability": "nonpayable"
        },
        {
            "type": "function",
            "name": "setQueueLimit",
            "inputs": [
                {
                    "name": "limit",
                    "type": "uint256",
                    "internalType": "uint256"
                }
            ],
            "outputs": [],
            "stateMutability": "nonpayable"
        },
        {
            "type": "function",
            "name": "setQueueStatus",
            "inputs": [
                {
                    "name": "queue",
                    "type": "address",
                    "internalType": "address"
                },
                {
                    "name": "isPaused",
                    "type": "bool",
                    "internalType": "bool"
                }
            ],
            "outputs": [],
            "stateMutability": "nonpayable"
        },
        {
            "type": "function",
            "name": "shareManager",
            "inputs": [],
            "outputs": [
                {
                    "name": "",
                    "type": "address",
                    "internalType": "contract IShareManager"
                }
            ],
            "stateMutability": "view"
        },
        {
            "type": "function",
            "name": "subvaultAt",
            "inputs": [
                {
                    "name": "index",
                    "type": "uint256",
                    "internalType": "uint256"
                }
            ],
            "outputs": [
                {
                    "name": "",
                    "type": "address",
                    "internalType": "address"
                }
            ],
            "stateMutability": "view"
        },
        {
            "type": "function",
            "name": "subvaultFactory",
            "inputs": [],
            "outputs": [
                {
                    "name": "",
                    "type": "address",
                    "internalType": "contract IFactory"
                }
            ],
            "stateMutability": "view"
        },
        {
            "type": "function",
            "name": "subvaults",
            "inputs": [],
            "outputs": [
                {
                    "name": "",
                    "type": "uint256",
                    "internalType": "uint256"
                }
            ],
            "stateMutability": "view"
        },
        {
            "type": "function",
            "name": "supportedRoleAt",
            "inputs": [
                {
                    "name": "index",
                    "type": "uint256",
                    "internalType": "uint256"
                }
            ],
            "outputs": [
                {
                    "name": "",
                    "type": "bytes32",
                    "internalType": "bytes32"
                }
            ],
            "stateMutability": "view"
        },
        {
            "type": "function",
            "name": "supportedRoles",
            "inputs": [],
            "outputs": [
                {
                    "name": "",
                    "type": "uint256",
                    "internalType": "uint256"
                }
            ],
            "stateMutability": "view"
        },
        {
            "type": "function",
            "name": "supportsInterface",
            "inputs": [
                {
                    "name": "interfaceId",
                    "type": "bytes4",
                    "internalType": "bytes4"
                }
            ],
            "outputs": [
                {
                    "name": "",
                    "type": "bool",
                    "internalType": "bool"
                }
            ],
            "stateMutability": "view"
        },
        {
            "type": "function",
            "name": "verifierFactory",
            "inputs": [],
            "outputs": [
                {
                    "name": "",
                    "type": "address",
                    "internalType": "contract IFactory"
                }
            ],
            "stateMutability": "view"
        },
        {
            "type": "event",
            "name": "AssetsPulled",
            "inputs": [
                {
                    "name": "asset",
                    "type": "address",
                    "indexed": true,
                    "internalType": "address"
                },
                {
                    "name": "subvault",
                    "type": "address",
                    "indexed": true,
                    "internalType": "address"
                },
                {
                    "name": "value",
                    "type": "uint256",
                    "indexed": false,
                    "internalType": "uint256"
                }
            ],
            "anonymous": false
        },
        {
            "type": "event",
            "name": "AssetsPushed",
            "inputs": [
                {
                    "name": "asset",
                    "type": "address",
                    "indexed": true,
                    "internalType": "address"
                },
                {
                    "name": "subvault",
                    "type": "address",
                    "indexed": true,
                    "internalType": "address"
                },
                {
                    "name": "value",
                    "type": "uint256",
                    "indexed": false,
                    "internalType": "uint256"
                }
            ],
            "anonymous": false
        },
        {
            "type": "event",
            "name": "CustomHookSet",
            "inputs": [
                {
                    "name": "queue",
                    "type": "address",
                    "indexed": true,
                    "internalType": "address"
                },
                {
                    "name": "hook",
                    "type": "address",
                    "indexed": true,
                    "internalType": "address"
                }
            ],
            "anonymous": false
        },
        {
            "type": "event",
            "name": "DefaultHookSet",
            "inputs": [
                {
                    "name": "hook",
                    "type": "address",
                    "indexed": true,
                    "internalType": "address"
                },
                {
                    "name": "isDepositHook",
                    "type": "bool",
                    "indexed": false,
                    "internalType": "bool"
                }
            ],
            "anonymous": false
        },
        {
            "type": "event",
            "name": "HookCalled",
            "inputs": [
                {
                    "name": "queue",
                    "type": "address",
                    "indexed": true,
                    "internalType": "address"
                },
                {
                    "name": "asset",
                    "type": "address",
                    "indexed": true,
                    "internalType": "address"
                },
                {
                    "name": "assets",
                    "type": "uint256",
                    "indexed": false,
                    "internalType": "uint256"
                },
                {
                    "name": "hook",
                    "type": "address",
                    "indexed": false,
                    "internalType": "address"
                }
            ],
            "anonymous": false
        },
        {
            "type": "event",
            "name": "Initialized",
            "inputs": [
                {
                    "name": "version",
                    "type": "uint64",
                    "indexed": false,
                    "internalType": "uint64"
                }
            ],
            "anonymous": false
        },
        {
            "type": "event",
            "name": "Initialized",
            "inputs": [
                {
                    "name": "initParams",
                    "type": "bytes",
                    "indexed": false,
                    "internalType": "bytes"
                }
            ],
            "anonymous": false
        },
        {
            "type": "event",
            "name": "QueueCreated",
            "inputs": [
                {
                    "name": "queue",
                    "type": "address",
                    "indexed": true,
                    "internalType": "address"
                },
                {
                    "name": "asset",
                    "type": "address",
                    "indexed": true,
                    "internalType": "address"
                },
                {
                    "name": "isDepositQueue",
                    "type": "bool",
                    "indexed": false,
                    "internalType": "bool"
                }
            ],
            "anonymous": false
        },
        {
            "type": "event",
            "name": "QueueLimitSet",
            "inputs": [
                {
                    "name": "limit",
                    "type": "uint256",
                    "indexed": false,
                    "internalType": "uint256"
                }
            ],
            "anonymous": false
        },
        {
            "type": "event",
            "name": "QueueRemoved",
            "inputs": [
                {
                    "name": "queue",
                    "type": "address",
                    "indexed": true,
                    "internalType": "address"
                },
                {
                    "name": "asset",
                    "type": "address",
                    "indexed": true,
                    "internalType": "address"
                }
            ],
            "anonymous": false
        },
        {
            "type": "event",
            "name": "ReportHandled",
            "inputs": [
                {
                    "name": "asset",
                    "type": "address",
                    "indexed": true,
                    "internalType": "address"
                },
                {
                    "name": "priceD18",
                    "type": "uint224",
                    "indexed": true,
                    "internalType": "uint224"
                },
                {
                    "name": "depositTimestamp",
                    "type": "uint32",
                    "indexed": false,
                    "internalType": "uint32"
                },
                {
                    "name": "redeemTimestamp",
                    "type": "uint32",
                    "indexed": false,
                    "internalType": "uint32"
                },
                {
                    "name": "fees",
                    "type": "uint256",
                    "indexed": false,
                    "internalType": "uint256"
                }
            ],
            "anonymous": false
        },
        {
            "type": "event",
            "name": "RoleAdded",
            "inputs": [
                {
                    "name": "role",
                    "type": "bytes32",
                    "indexed": true,
                    "internalType": "bytes32"
                }
            ],
            "anonymous": false
        },
        {
            "type": "event",
            "name": "RoleAdminChanged",
            "inputs": [
                {
                    "name": "role",
                    "type": "bytes32",
                    "indexed": true,
                    "internalType": "bytes32"
                },
                {
                    "name": "previousAdminRole",
                    "type": "bytes32",
                    "indexed": true,
                    "internalType": "bytes32"
                },
                {
                    "name": "newAdminRole",
                    "type": "bytes32",
                    "indexed": true,
                    "internalType": "bytes32"
                }
            ],
            "anonymous": false
        },
        {
            "type": "event",
            "name": "RoleGranted",
            "inputs": [
                {
                    "name": "role",
                    "type": "bytes32",
                    "indexed": true,
                    "internalType": "bytes32"
                },
                {
                    "name": "account",
                    "type": "address",
                    "indexed": true,
                    "internalType": "address"
                },
                {
                    "name": "sender",
                    "type": "address",
                    "indexed": true,
                    "internalType": "address"
                }
            ],
            "anonymous": false
        },
        {
            "type": "event",
            "name": "RoleRemoved",
            "inputs": [
                {
                    "name": "role",
                    "type": "bytes32",
                    "indexed": true,
                    "internalType": "bytes32"
                }
            ],
            "anonymous": false
        },
        {
            "type": "event",
            "name": "RoleRevoked",
            "inputs": [
                {
                    "name": "role",
                    "type": "bytes32",
                    "indexed": true,
                    "internalType": "bytes32"
                },
                {
                    "name": "account",
                    "type": "address",
                    "indexed": true,
                    "internalType": "address"
                },
                {
                    "name": "sender",
                    "type": "address",
                    "indexed": true,
                    "internalType": "address"
                }
            ],
            "anonymous": false
        },
        {
            "type": "event",
            "name": "SetQueueStatus",
            "inputs": [
                {
                    "name": "queue",
                    "type": "address",
                    "indexed": true,
                    "internalType": "address"
                },
                {
                    "name": "isPaused",
                    "type": "bool",
                    "indexed": true,
                    "internalType": "bool"
                }
            ],
            "anonymous": false
        },
        {
            "type": "event",
            "name": "SharesClaimed",
            "inputs": [
                {
                    "name": "account",
                    "type": "address",
                    "indexed": true,
                    "internalType": "address"
                }
            ],
            "anonymous": false
        },
        {
            "type": "event",
            "name": "SubvaultCreated",
            "inputs": [
                {
                    "name": "subvault",
                    "type": "address",
                    "indexed": true,
                    "internalType": "address"
                },
                {
                    "name": "version",
                    "type": "uint256",
                    "indexed": false,
                    "internalType": "uint256"
                },
                {
                    "name": "owner",
                    "type": "address",
                    "indexed": true,
                    "internalType": "address"
                },
                {
                    "name": "verifier",
                    "type": "address",
                    "indexed": true,
                    "internalType": "address"
                }
            ],
            "anonymous": false
        },
        {
            "type": "event",
            "name": "SubvaultDisconnected",
            "inputs": [
                {
                    "name": "subvault",
                    "type": "address",
                    "indexed": true,
                    "internalType": "address"
                }
            ],
            "anonymous": false
        },
        {
            "type": "event",
            "name": "SubvaultReconnected",
            "inputs": [
                {
                    "name": "subvault",
                    "type": "address",
                    "indexed": true,
                    "internalType": "address"
                },
                {
                    "name": "verifier",
                    "type": "address",
                    "indexed": true,
                    "internalType": "address"
                }
            ],
            "anonymous": false
        },
        {
            "type": "error",
            "name": "AccessControlBadConfirmation",
            "inputs": []
        },
        {
            "type": "error",
            "name": "AccessControlUnauthorizedAccount",
            "inputs": [
                {
                    "name": "account",
                    "type": "address",
                    "internalType": "address"
                },
                {
                    "name": "neededRole",
                    "type": "bytes32",
                    "internalType": "bytes32"
                }
            ]
        },
        {
            "type": "error",
            "name": "AddressEmptyCode",
            "inputs": [
                {
                    "name": "target",
                    "type": "address",
                    "internalType": "address"
                }
            ]
        },
        {
            "type": "error",
            "name": "AlreadyConnected",
            "inputs": [
                {
                    "name": "subvault",
                    "type": "address",
                    "internalType": "address"
                }
            ]
        },
        {
            "type": "error",
            "name": "FailedCall",
            "inputs": []
        },
        {
            "type": "error",
            "name": "Forbidden",
            "inputs": []
        },
        {
            "type": "error",
            "name": "InsufficientBalance",
            "inputs": [
                {
                    "name": "balance",
                    "type": "uint256",
                    "internalType": "uint256"
                },
                {
                    "name": "needed",
                    "type": "uint256",
                    "internalType": "uint256"
                }
            ]
        },
        {
            "type": "error",
            "name": "InvalidInitialization",
            "inputs": []
        },
        {
            "type": "error",
            "name": "InvalidSubvault",
            "inputs": [
                {
                    "name": "subvault",
                    "type": "address",
                    "internalType": "address"
                }
            ]
        },
        {
            "type": "error",
            "name": "NotConnected",
            "inputs": [
                {
                    "name": "subvault",
                    "type": "address",
                    "internalType": "address"
                }
            ]
        },
        {
            "type": "error",
            "name": "NotEntity",
            "inputs": [
                {
                    "name": "subvault",
                    "type": "address",
                    "internalType": "address"
                }
            ]
        },
        {
            "type": "error",
            "name": "NotInitializing",
            "inputs": []
        },
        {
            "type": "error",
            "name": "QueueLimitReached",
            "inputs": []
        },
        {
            "type": "error",
            "name": "ReentrancyGuardReentrantCall",
            "inputs": []
        },
        {
            "type": "error",
            "name": "SafeERC20FailedOperation",
            "inputs": [
                {
                    "name": "token",
                    "type": "address",
                    "internalType": "address"
                }
            ]
        },
        {
            "type": "error",
            "name": "UnsupportedAsset",
            "inputs": [
                {
                    "name": "asset",
                    "type": "address",
                    "internalType": "address"
                }
            ]
        },
        {
            "type": "error",
            "name": "ZeroAddress",
            "inputs": []
        },
        {
            "type": "error",
            "name": "ZeroValue",
            "inputs": []
        }
    ],
    "bytecode": {
        "object": "0x610160604052348015610010575f80fd5b506040516148af3803806148af83398101604081905261002f91610282565b85858585838387878383818161004361011b565b60408051808201909152600981526813595b1b1bddd050d360ba1b602082015261006e9083836101b8565b60805261007961011b565b505050506100b16040518060400160405280600b81526020016a5661756c744d6f64756c6560a81b81525085856101b860201b60201c565b60e0526001600160a01b0391821660a0521660c052505060408051808201909152600b81526a53686172654d6f64756c6560a81b60208201526100f59085856101b8565b610140526001600160a01b03918216610100521661012052506103f39650505050505050565b5f610124610229565b805490915068010000000000000000900460ff16156101565760405163f92ee8a960e01b815260040160405180910390fd5b80546001600160401b03908116146101b55780546001600160401b0319166001600160401b0390811782556040519081527fc7f505b2f371ae2175ee4913f4499e1f2633a7b5936321eed1cdaeb6115181d29060200160405180910390a15b50565b5f60ff5f1b1960018585856040516020016101d59392919061038c565b604051602081830303815290604052805190602001205f1c6101f791906103d4565b60405160200161020991815260200190565b604051602081830303815290604052805190602001201690509392505050565b5f807ff0c57e16840df040f15088dc2f81fe391c3923bec73e23a9662efc9c229c6a005b92915050565b634e487b7160e01b5f52604160045260245ffd5b80516001600160a01b038116811461027d575f80fd5b919050565b5f805f805f8060c08789031215610297575f80fd5b86516001600160401b03808211156102ad575f80fd5b818901915089601f8301126102c0575f80fd5b8151818111156102d2576102d2610253565b604051601f8201601f19908116603f011681019083821181831017156102fa576102fa610253565b816040528281528c6020848701011115610312575f80fd5b8260208601602083015e5f60208483010152809a5050505050506020870151945061033f60408801610267565b935061034d60608801610267565b925061035b60808801610267565b915061036960a08801610267565b90509295509295509295565b5f81518060208401855e5f93019283525090919050565b7f6d656c6c6f772e666c657869626c652d7661756c74732e73746f726167652e0081525f6103c66103c0601f840187610375565b85610375565b928352505060200192915050565b8181038181111561024d57634e487b7160e01b5f52601160045260245ffd5b60805160a05160c05160e0516101005161012051610140516143f46104bb5f395f612eea01525f81816109750152611c8701525f818161078b0152611cad01525f818161119301528181611591015281816118bd01528181611b4d015281816123ac01528181612447015281816124f2015261331701525f818161064a015281816116cc01526126e501525f81816109e6015281816117f0015261253301525f8181611388015281816115c6015281816123ec015281816130c5015261314e01526143f45ff3fe6080604052600436106103ed575f3560e01c8063850260ff1161020a578063b014f4451161011e578063e4f8d0e6116100a8578063eb56d52d11610078578063eb56d52d14610cc3578063ec0f580014610ce2578063ecef475f14610d01578063f31cb0c614610d20578063f68e730414610d3f575f80fd5b8063e4f8d0e614610c33578063e6c8cd9f14610c52578063e6ed8d7414610c71578063e984f35314610ca4575f80fd5b8063ca15c873116100ee578063ca15c87314610b8f578063d0fb020314610bae578063d27d250314610bc2578063d547741f14610be1578063d8b07a6514610c00575f80fd5b8063b014f44514610aff578063b1a62e3b14610b1e578063b2b71a2714610b51578063b91c935c14610b70575f80fd5b80639ff2cb9d1161019f578063a3246ad31161016f578063a3246ad314610a4e578063a35f620a14610a7a578063a567fb4714610a8e578063aa9239f514610aad578063adf167ce14610acc575f80fd5b80639ff2cb9d146109d5578063a0aead4d14610a08578063a217fddf14610a1c578063a2cb31e514610a2f575f80fd5b806392e6ece5116101da57806392e6ece5146109455780639662d42914610964578063974d942e146109975780639bd0911b146109b6575f80fd5b8063850260ff146108c95780638679ed7c146108e85780639010d07c1461090757806391d1485414610926575f80fd5b8063419a2053116103015780635636d54911610296578063651ae6c711610266578063651ae6c71461081c578063663ade061461084f5780636b8b1ccd146108825780637dc0d1d0146108965780638333903b146108aa575f80fd5b80635636d549146107ad57806358b7bf30146107c15780635c60173d146107f45780635d66b00a14610808575f80fd5b80634b694b96116102d15780634b694b961461071d5780634b812c1f1461073c57806352278ab71461075b57806352fd42541461077a575f80fd5b8063419a2053146106b7578063439fab91146106cb57806347842663146106ea5780634a46b4cf146106fe575f80fd5b80632f2ff15d1161038257806336568abe1161035257806336568abe146105fb578063370488161461061a578063387db78f146106395780633d4304e6146106845780634015b2a8146106a3575f80fd5b80632f2ff15d146105765780632f8ecb50146105955780633314bbb9146105b45780633471b337146105e7575f80fd5b806317cbc8b1116103bd57806317cbc8b1146104d25780631c14724f146104f15780631ca0027a14610510578063248a9ca314610557575f80fd5b806301ffc9a7146103f8578063040bee6d1461042c57806313cb953a1461044d578063150b7a021461048e575f80fd5b366103f457005b5f80fd5b348015610403575f80fd5b50610417610412366004613b76565b610d5f565b60405190151581526020015b60405180910390f35b348015610437575f80fd5b5061044b610446366004613bb1565b610d89565b005b348015610458575f80fd5b506104807f32a781031f04cc60b32394e40124d1e87f54273bf26d0532a115a424f6a9329881565b604051908152602001610423565b348015610499575f80fd5b506104b96104a8366004613c11565b630a85bd0160e11b95945050505050565b6040516001600160e01b03199091168152602001610423565b3480156104dd575f80fd5b5061044b6104ec366004613c7f565b610fa9565b3480156104fc575f80fd5b5061048061050b366004613bb1565b611002565b34801561051b575f80fd5b5061054861052a366004613cbd565b60408051602080820183525f90915281519081019091529054815290565b60405190518152602001610423565b348015610562575f80fd5b50610480610571366004613cbd565b61112b565b348015610581575f80fd5b5061044b610590366004613cd4565b61114b565b3480156105a0575f80fd5b5061044b6105af366004613bb1565b611167565b3480156105bf575f80fd5b506104807f68895691ff006f290ca74825ce06ed17fffab55af49f0274f49b7424f752583a81565b3480156105f2575f80fd5b50610480611224565b348015610606575f80fd5b5061044b610615366004613cd4565b611236565b348015610625575f80fd5b5061044b610634366004613bb1565b61126e565b348015610644575f80fd5b5061066c7f000000000000000000000000000000000000000000000000000000000000000081565b6040516001600160a01b039091168152602001610423565b34801561068f575f80fd5b5061066c61069e366004613bb1565b6112e8565b3480156106ae575f80fd5b5061066c611367565b3480156106c2575f80fd5b50610480611382565b3480156106d6575f80fd5b5061044b6106e5366004613d02565b6113b1565b3480156106f5575f80fd5b5061066c61158e565b348015610709575f80fd5b50610417610718366004613cbd565b6115c0565b348015610728575f80fd5b50610417610737366004613bb1565b6115eb565b348015610747575f80fd5b5061066c610756366004613d41565b61167a565b348015610766575f80fd5b50610480610775366004613bb1565b611959565b348015610785575f80fd5b5061066c7f000000000000000000000000000000000000000000000000000000000000000081565b3480156107b8575f80fd5b5061066c611985565b3480156107cc575f80fd5b506104807fb557d53a2e72d8333ffa3bf2f556678becb5e995b0e25b7dca354627e550c08f81565b3480156107ff575f80fd5b5061066c6119a0565b348015610813575f80fd5b506104806119a9565b348015610827575f80fd5b506104807f9a4c49d6fb9452bbfe187968075d0fac7d7202d2b7f731d8cffbce9cf66756b281565b34801561085a575f80fd5b506104807ff610639f4b9b8986f875fcb4e49486da5c7aa449a6942b5013fabd061e9b9fff81565b34801561088d575f80fd5b50610480611b18565b3480156108a1575f80fd5b5061066c611b2a565b3480156108b5575f80fd5b506104176108c4366004613bb1565b611b45565b3480156108d4575f80fd5b5061044b6108e3366004613d8d565b611b73565b3480156108f3575f80fd5b50610417610902366004613bb1565b611e20565b348015610912575f80fd5b5061066c610921366004613e0d565b611e4d565b348015610931575f80fd5b50610417610940366004613cd4565b611e72565b348015610950575f80fd5b5061041761095f366004613bb1565b611ea8565b34801561096f575f80fd5b5061066c7f000000000000000000000000000000000000000000000000000000000000000081565b3480156109a2575f80fd5b5061044b6109b1366004613e45565b611ed5565b3480156109c1575f80fd5b5061066c6109d0366004613cbd565b6123a4565b3480156109e0575f80fd5b5061066c7f000000000000000000000000000000000000000000000000000000000000000081565b348015610a13575f80fd5b506104806123d2565b348015610a27575f80fd5b506104805f81565b348015610a3a575f80fd5b50610480610a49366004613cbd565b6123e6565b348015610a59575f80fd5b50610a6d610a68366004613cbd565b612411565b6040516104239190613ea5565b348015610a85575f80fd5b50610480612441565b348015610a99575f80fd5b50610417610aa8366004613bb1565b61246e565b348015610ab8575f80fd5b5061066c610ac7366004613cbd565b612484565b348015610ad7575f80fd5b506104807f85c2023fdfb1e93dedf5d18f9bc0e79347e071d12740ba71aeb84a4fcbdc4b7981565b348015610b0a575f80fd5b5061044b610b19366004613c7f565b61249a565b348015610b29575f80fd5b506104807f6788636e7899d6d227901dc9f8c4c785401c0991724cf908dc65388af686da6f81565b348015610b5c575f80fd5b5061044b610b6b366004613bb1565b6124c5565b348015610b7b575f80fd5b5061066c610b8a366004613ef1565b612884565b348015610b9a575f80fd5b50610480610ba9366004613cbd565b6128b2565b348015610bb9575f80fd5b5061066c6128d6565b348015610bcd575f80fd5b5061044b610bdc366004613cbd565b6128f1565b348015610bec575f80fd5b5061044b610bfb366004613cd4565b612a98565b348015610c0b575f80fd5b506104807f6618a6d92147bbcacfb2ef2375976fc4c529eeeaeb72a66048296571370c694681565b348015610c3e575f80fd5b5061044b610c4d366004613f1b565b612ab4565b348015610c5d575f80fd5b5061044b610c6c366004613c7f565b612b5d565b348015610c7c575f80fd5b506104807f407fc42eadf1aba68b1d4a8c3c4aa2e8b6beac7957623f3694d0ad77bfb70e0681565b348015610caf575f80fd5b5061044b610cbe366004613c7f565b612b88565b348015610cce575f80fd5b5061044b610cdd366004613f47565b612bc5565b348015610ced575f80fd5b5061044b610cfc366004613bb1565b612c79565b348015610d0c575f80fd5b5061044b610d1b366004613cbd565b612cea565b348015610d2b575f80fd5b5061044b610d3a366004613bb1565b612d58565b348015610d4a575f80fd5b506104805f8051602061433f83398151915281565b5f6001600160e01b03198216635a05180f60e01b1480610d835750610d8382612ea7565b92915050565b7f9a4c49d6fb9452bbfe187968075d0fac7d7202d2b7f731d8cffbce9cf66756b2610db381612edb565b816001600160a01b031663c2f218966040518163ffffffff1660e01b8152600401602060405180830381865afa158015610def573d5f803e3d5ffd5b505050506040513d601f19601f82011682018060405250810190610e139190613f73565b610e3057604051631dd2188d60e31b815260040160405180910390fd5b5f826001600160a01b03166338d52e0f6040518163ffffffff1660e01b8152600401602060405180830381865afa158015610e6d573d5f803e3d5ffd5b505050506040513d601f19601f82011682018060405250810190610e919190613f8e565b90505f610e9c612ee8565b6001600160a01b0383165f908152600a820160205260409020909150610ec29085612f0c565b610edf57604051631dd2188d60e31b815260040160405180910390fd5b6001600160a01b038085165f9081526008830160209081526040808320805460ff191690559285168252600a8401905220610f1990612f20565b5f03610f2e57610f2c600b820183612f0c565b505b6001600160a01b0384165f908152600782016020526040812080546001600160a01b0319169055600582018054909190610f6790613fbd565b909155506040516001600160a01b0380841691908616907faf660c1b265f07536d70b577e6dac1fed859eae81dca40591155a8fa2294553d905f90a350505050565b7f68895691ff006f290ca74825ce06ed17fffab55af49f0274f49b7424f752583a610fd381612edb565b610fdb612f29565b610fe6848484612f60565b610ffc60015f8051602061439f83398151915255565b50505050565b5f8061100c612ee8565b9050600b81015f61101c82612f20565b90505f5b81811015611122575f61103384836130a5565b6001600160a01b0381165f908152600a87016020526040812091925061105882612f20565b90505f5b81811015611112575f61106f84836130a5565b6001600160a01b0381165f90815260088b01602052604090205490915060ff161561110957604051638903ab9d60e01b81526001600160a01b038c81166004830152821690638903ab9d90602401602060405180830381865afa1580156110d8573d5f803e3d5ffd5b505050506040513d601f19601f820116820180604052508101906110fc9190613fd2565b611106908b613fe9565b99505b5060010161105c565b5050600190920191506110209050565b50505050919050565b5f9081525f8051602061437f833981519152602052604090206001015490565b6111548261112b565b61115d81612edb565b610ffc83836130b0565b7ff610639f4b9b8986f875fcb4e49486da5c7aa449a6942b5013fabd061e9b9fff61119181612edb565b7f00000000000000000000000000000000000000000000000000000000000000006111bf6001820184612f0c565b6111ec57604051635c6a489f60e01b81526001600160a01b03841660048201526024015b60405180910390fd5b6040516001600160a01b038416907f95067a3324c952e40449419ed59015549ae2c2b2c5988efb9bdaaf33baf6f793905f90a2505050565b5f61122d612ee8565b60050154905090565b6001600160a01b038116331461125f5760405163334bd91960e11b815260040160405180910390fd5b611269828261312a565b505050565b5f8051602061433f83398151915261128581612edb565b8161128e612ee8565b60030180546001600160a01b0319166001600160a01b0392831617905560405160018152908316907f59dc533a8345ccff036afdd89363a87154a5e6c51ff4fc507fc1865bb925438e906020015b60405180910390a25050565b5f806112f2612ee8565b6001600160a01b038085165f908152600783016020526040902054919250168061135d576001600160a01b0384165f90815260088301602052604090205460ff1661134a5760048201546001600160a01b031661135f565b60038201546001600160a01b031661135f565b805b949350505050565b5f611370612ee8565b600401546001600160a01b0316919050565b5f6113ac7f0000000000000000000000000000000000000000000000000000000000000000612f20565b905090565b5f6113ba6131a6565b805490915060ff600160401b820416159067ffffffffffffffff165f811580156113e15750825b90505f8267ffffffffffffffff1660011480156113fd5750303b155b90508115801561140b575080155b156114295760405163f92ee8a960e01b815260040160405180910390fd5b845467ffffffffffffffff19166001178555831561145357845460ff60401b1916600160401b1785555b5f805f805f805f805f8f8f81019061146b919061406a565b9850985098509850985098509850985098506114856131ce565b61148e896131e0565b61149c88888787878761321d565b6114a5866132e6565b5f5b81518110156114fc576114f38282815181106114c5576114c5614217565b60200260200101515f01518383815181106114e2576114e2614217565b6020026020010151602001516130b0565b506001016114a7565b505050505050505050507f5e399709a9ff1709f6f6be7268c8e5c3eeaa9da9cd9797e78f07ef287c3717fe8787604051611537929190614253565b60405180910390a1831561158557845460ff60401b19168555604051600181527fc7f505b2f371ae2175ee4913f4499e1f2633a7b5936321eed1cdaeb6115181d29060200160405180910390a15b50505050505050565b5f7f00000000000000000000000000000000000000000000000000000000000000005b546001600160a01b0316919050565b5f610d837f000000000000000000000000000000000000000000000000000000000000000083613356565b5f610d83826115f8612ee8565b600a015f856001600160a01b03166338d52e0f6040518163ffffffff1660e01b8152600401602060405180830381865afa158015611638573d5f803e3d5ffd5b505050506040513d601f19601f8201168201806040525081019061165c9190613f8e565b6001600160a01b0316815260208101919091526040015f209061336d565b5f7f85c2023fdfb1e93dedf5d18f9bc0e79347e071d12740ba71aeb84a4fcbdc4b796116a581612edb565b6116ad612f29565b6040516302910f8b60e31b81526001600160a01b0384811660048301527f000000000000000000000000000000000000000000000000000000000000000016906314887c5890602401602060405180830381865afa158015611711573d5f803e3d5ffd5b505050506040513d601f19601f820116820180604052508101906117359190613f73565b61175d5760405163d0b5c30560e01b81526001600160a01b03841660048201526024016111e3565b306001600160a01b0316836001600160a01b031663fbfa77cf6040518163ffffffff1660e01b8152600401602060405180830381865afa1580156117a3573d5f803e3d5ffd5b505050506040513d601f19601f820116820180604052508101906117c79190613f8e565b6001600160a01b0316146117ee57604051631dd2188d60e31b815260040160405180910390fd5b7f00000000000000000000000000000000000000000000000000000000000000006001600160a01b03166346fbcbb2868686306040516020016118479291906001600160a01b0392831681529116602082015260400190565b6040516020818303038152906040526040518463ffffffff1660e01b815260040161187493929190614266565b6020604051808303815f875af1158015611890573d5f803e3d5ffd5b505050506040513d601f19601f820116820180604052508101906118b49190613f8e565b91506118e360017f0000000000000000000000000000000000000000000000000000000000000000018361338e565b50826001600160a01b0316846001600160a01b0316836001600160a01b03167fae0bbc337ca4971dd982cb61e17432f83cf2e5647ad778f7db9ff18efd77a2118860405161193391815260200190565b60405180910390a461195160015f8051602061439f83398151915255565b509392505050565b5f610d83611965612ee8565b6001600160a01b0384165f908152600a9190910160205260409020612f20565b5f61198e612ee8565b600301546001600160a01b0316919050565b5f6115b1612ee8565b5f803390505f816001600160a01b03166338d52e0f6040518163ffffffff1660e01b8152600401602060405180830381865afa1580156119eb573d5f803e3d5ffd5b505050506040513d601f19601f82011682018060405250810190611a0f9190613f8e565b90505f611a1a612ee8565b6001600160a01b0383165f908152600a820160205260409020909150611a40908461336d565b1580611a6557506001600160a01b0383165f90815260088201602052604090205460ff165b15611a8357604051631dd2188d60e31b815260040160405180910390fd5b5f611a8d846112e8565b90506001600160a01b038116611ab057611aa783306133a2565b94505050505090565b604051630af5049b60e11b81526001600160a01b0384811660048301528216906315ea093690602401602060405180830381865afa158015611af4573d5f803e3d5ffd5b505050506040513d601f19601f82011682018060405250810190611aa79190613fd2565b5f611b21612ee8565b60060154905090565b5f611b33612ee8565b600201546001600160a01b0316919050565b5f610d8360017f0000000000000000000000000000000000000000000000000000000000000000018361336d565b611b7b612f29565b7f6788636e7899d6d227901dc9f8c4c785401c0991724cf908dc65388af686da6f611ba581612edb565b5f611bae612ee8565b6002810154604051634df48c7360e11b81526001600160a01b038881166004830152929350911690639be918e690602401602060405180830381865afa158015611bfa573d5f803e3d5ffd5b505050506040513d601f19601f82011682018060405250810190611c1e9190613f73565b611c465760405163ee84f40b60e01b81526001600160a01b03861660048201526024016111e3565b5f81600501546001611c589190613fe9565b90508160060154811115611c7f5760405163082d389160e31b815260040160405180910390fd5b5f88611cab577f0000000000000000000000000000000000000000000000000000000000000000611ccd565b7f00000000000000000000000000000000000000000000000000000000000000005b6001600160a01b03166346fbcbb28b8a8a308b8b604051602001611cf494939291906142b1565b6040516020818303038152906040526040518463ffffffff1660e01b8152600401611d2193929190614266565b6020604051808303815f875af1158015611d3d573d5f803e3d5ffd5b505050506040513d601f19601f82011682018060405250810190611d619190613f8e565b600584018390556001600160a01b0388165f908152600a850160205260409020909150611d8e908261338e565b50611d9c600b84018861338e565b506001600160a01b038181165f818152600886016020908152604091829020805460ff19168e15159081179091559151918252928a16927f8138cea23ce1869026f924550085f1d5666d82c6c948c921cf9003cac6bfea9c910160405180910390a350505050611e1860015f8051602061439f83398151915255565b505050505050565b5f611e29612ee8565b6001600160a01b039092165f90815260099290920160205250604090205460ff1690565b5f8281525f8051602061435f83398151915260208190526040822061135f90846130a5565b5f9182525f8051602061437f833981519152602090815260408084206001600160a01b0393909316845291905290205460ff1690565b5f611eb1612ee8565b6001600160a01b039092165f90815260089290920160205250604090205460ff1690565b611edd612f29565b5f611ee6612ee8565b60028101549091506001600160a01b0316336001600160a01b031614611f1f57604051631dd2188d60e31b815260040160405180910390fd5b80546001820154604051630cd9f5f560e11b81523060048201526001600160a01b0392831692909116905f9082906319b3ebea90602401602060405180830381865afa158015611f71573d5f803e3d5ffd5b505050506040513d601f19601f82011682018060405250810190611f959190613f8e565b6001600160a01b0316886001600160a01b031603612242575f826001600160a01b031663469048406040518163ffffffff1660e01b8152600401602060405180830381865afa158015611fea573d5f803e3d5ffd5b505050506040513d601f19601f8201168201806040525081019061200e9190613f8e565b604051639d66201b60e01b81526001600160a01b0380831660048301529192508185169163e0e193a29130918d918d918a1690639d66201b90602401602060405180830381865afa158015612065573d5f803e3d5ffd5b505050506040513d601f19601f820116820180604052508101906120899190613fd2565b896001600160a01b0316633a98ef396040518163ffffffff1660e01b8152600401602060405180830381865afa1580156120c5573d5f803e3d5ffd5b505050506040513d601f19601f820116820180604052508101906120e99190613fd2565b6120f391906142e7565b6040516001600160e01b031960e087901b1681526001600160a01b0394851660048201529390921660248401526001600160e01b031660448301526064820152608401602060405180830381865afa158015612151573d5f803e3d5ffd5b505050506040513d601f19601f820116820180604052508101906121759190613fd2565b915081156121db576040516340c10f1960e01b81526001600160a01b038281166004830152602482018490528516906340c10f19906044015f604051808303815f87803b1580156121c4575f80fd5b505af11580156121d6573d5f803e3d5ffd5b505050505b604051634d71303160e11b81526001600160a01b038a811660048301526001600160e01b038a166024830152841690639ae26062906044015f604051808303815f87803b15801561222a575f80fd5b505af115801561223c573d5f803e3d5ffd5b50505050505b5f61224b612ee8565b6001600160a01b038a165f908152600a9190910160205260408120915061227182612f20565b90505f5b81811015612329575f61228884836130a5565b6001600160a01b0381165f81815260088b0160205260409020549192509063b8c5ea8a908d9060ff166122bb578b6122bd565b8c5b6040516001600160e01b031960e085901b1681526001600160e01b03909216600483015263ffffffff1660248201526044015f604051808303815f87803b158015612306575f80fd5b505af1158015612318573d5f803e3d5ffd5b505060019093019250612275915050565b506040805163ffffffff808b168252891660208201529081018490526001600160e01b038a16906001600160a01b038c16907f24bbf515a701fcb7a993b1e8c3f201ab4e608f7b85c61b1f8cc0e19dc9d526539060600160405180910390a3505050505050610ffc60015f8051602061439f83398151915255565b5f610d8360017f000000000000000000000000000000000000000000000000000000000000000001836130a5565b5f6113ac6123de612ee8565b600b01612f20565b5f610d837f0000000000000000000000000000000000000000000000000000000000000000836130a5565b5f8181525f8051602061435f833981519152602081905260409091206060919061243a90613448565b9392505050565b5f6113ac7f0000000000000000000000000000000000000000000000000000000000000000600101612f20565b5f610d838261247b612ee8565b600b019061336d565b5f610d8382612491612ee8565b600b01906130a5565b3330146124ba57604051631dd2188d60e31b815260040160405180910390fd5b611269838383612f60565b7fb557d53a2e72d8333ffa3bf2f556678becb5e995b0e25b7dca354627e550c08f6124ef81612edb565b5f7f00000000000000000000000000000000000000000000000000000000000000006040516302910f8b60e31b81526001600160a01b0385811660048301529192507f0000000000000000000000000000000000000000000000000000000000000000909116906314887c5890602401602060405180830381865afa15801561257a573d5f803e3d5ffd5b505050506040513d601f19601f8201168201806040525081019061259e9190613f73565b6125c65760405163d0b5c30560e01b81526001600160a01b03841660048201526024016111e3565b306001600160a01b0316836001600160a01b031663fbfa77cf6040518163ffffffff1660e01b8152600401602060405180830381865afa15801561260c573d5f803e3d5ffd5b505050506040513d601f19601f820116820180604052508101906126309190613f8e565b6001600160a01b0316146126625760405163d034fb7960e01b81526001600160a01b03841660048201526024016111e3565b5f836001600160a01b0316632b7ac3f36040518163ffffffff1660e01b8152600401602060405180830381865afa15801561269f573d5f803e3d5ffd5b505050506040513d601f19601f820116820180604052508101906126c39190613f8e565b6040516302910f8b60e31b81526001600160a01b0380831660048301529192507f0000000000000000000000000000000000000000000000000000000000000000909116906314887c5890602401602060405180830381865afa15801561272c573d5f803e3d5ffd5b505050506040513d601f19601f820116820180604052508101906127509190613f73565b6127785760405163d0b5c30560e01b81526001600160a01b03821660048201526024016111e3565b306001600160a01b0316816001600160a01b031663fbfa77cf6040518163ffffffff1660e01b8152600401602060405180830381865afa1580156127be573d5f803e3d5ffd5b505050506040513d601f19601f820116820180604052508101906127e29190613f8e565b6001600160a01b03161461280957604051631dd2188d60e31b815260040160405180910390fd5b612816600183018561338e565b61283e57604051638cd80ed360e01b81526001600160a01b03851660048201526024016111e3565b806001600160a01b0316846001600160a01b03167ff75f2e4922769fc299f8f612c31f2d1f8ea0e6fa4c82fdb143bf9c8a070c974c60405160405180910390a350505050565b5f61243a82612891612ee8565b6001600160a01b0386165f908152600a9190910160205260409020906130a5565b5f8181525f8051602061435f83398151915260208190526040822061243a90612f20565b5f6128df612ee8565b600101546001600160a01b0316919050565b5f3390505f816001600160a01b03166338d52e0f6040518163ffffffff1660e01b8152600401602060405180830381865afa158015612932573d5f803e3d5ffd5b505050506040513d601f19601f820116820180604052508101906129569190613f8e565b90505f612961612ee8565b90506129908361296f612ee8565b6001600160a01b0385165f908152600a91909101602052604090209061336d565b6129ad57604051631dd2188d60e31b815260040160405180910390fd5b5f6129b7846112e8565b90506001600160a01b03811615612a1b576040516001600160a01b038416602482015260448101869052612a1990829060640160408051601f198184030181529190526020810180516001600160e01b03166330f736c160e21b179052613454565b505b6001600160a01b0384165f90815260088301602052604090205460ff16612a4757612a478385876134c6565b604080518681526001600160a01b03838116602083015280861692908716917fc23ec549723039bc8a35cac0162f81095410795793f7730887eb1a0e06ef5476910160405180910390a35050505050565b612aa18261112b565b612aaa81612edb565b610ffc838361312a565b5f8051602061433f833981519152612acb81612edb565b6001600160a01b038316612af25760405163d92e233d60e01b815260040160405180910390fd5b81612afb612ee8565b6001600160a01b038581165f818152600793909301602052604080842080546001600160a01b03191695841695909517909455925190851692917f329d0838d5265a7d9d220b95803da511a475abe411dc4df364c1d1b8b923cdf991a3505050565b333014612b7d57604051631dd2188d60e31b815260040160405180910390fd5b611269838383613509565b7f32a781031f04cc60b32394e40124d1e87f54273bf26d0532a115a424f6a93298612bb281612edb565b612bba612f29565b610fe6848484613509565b7f6618a6d92147bbcacfb2ef2375976fc4c529eeeaeb72a66048296571370c6946612bef81612edb565b612bf8836115eb565b612c1557604051631dd2188d60e31b815260040160405180910390fd5b81612c1e612ee8565b6001600160a01b0385165f8181526009929092016020526040808320805460ff191694151594909417909355915184151592917f0adde9ce751962c98f81b39c8c220e3e355e0427d8f497ad6533849e0887543d91a3505050565b5f8051602061433f833981519152612c9081612edb565b81612c99612ee8565b60040180546001600160a01b0319166001600160a01b039283161790556040515f8152908316907f59dc533a8345ccff036afdd89363a87154a5e6c51ff4fc507fc1865bb925438e906020016112dc565b7f407fc42eadf1aba68b1d4a8c3c4aa2e8b6beac7957623f3694d0ad77bfb70e06612d1481612edb565b81612d1d612ee8565b600601556040518281527f7abc95a9228ca8caf8cbd0d9add729de5d2032bb1792bb6c5faff0f175f1bd509060200160405180910390a15050565b5f612d61612ee8565b9050600b81015f612d7182612f20565b90505f5b81811015612e6d575f612d8884836130a5565b6001600160a01b0381165f908152600a870160205260408120919250612dad82612f20565b90505f5b81811015612e5d575f612dc484836130a5565b6001600160a01b0381165f90815260088b01602052604090205490915060ff1615612e5457604051630f41a04d60e11b81526001600160a01b038b81166004830152821690631e83409a906024016020604051808303815f875af1158015612e2e573d5f803e3d5ffd5b505050506040513d601f19601f82011682018060405250810190612e529190613f73565b505b50600101612db1565b505060019092019150612d759050565b506040516001600160a01b038516907f3a97aa17a51b3fa88e27cdce48823bea308838ed5ea8015ae0598abb1288954b905f90a250505050565b5f6001600160e01b03198216637965db0b60e01b1480610d8357506301ffc9a760e01b6001600160e01b0319831614610d83565b612ee581336135c8565b50565b7f000000000000000000000000000000000000000000000000000000000000000090565b5f61243a836001600160a01b038416613601565b5f610d83825490565b5f8051602061439f833981519152805460011901612f5a57604051633ee5aeb560e01b815260040160405180910390fd5b60029055565b612f6861158e565b6001600160a01b031663fea34d988484612f81856142fa565b6040516001600160e01b031960e086901b1681526001600160a01b03938416600482015292909116602483015260448201526064015f604051808303815f87803b158015612fcd575f80fd5b505af1158015612fdf573d5f803e3d5ffd5b50506040516387cd303d60e01b81526001600160a01b03858116600483015260248201859052861692506387cd303d91506044015f604051808303815f87803b15801561302a575f80fd5b505af115801561303c573d5f803e3d5ffd5b50505050826001600160a01b0316826001600160a01b03167f409f90100010c596e4859c24945544ea3430a899b81522dadfd9671b9bc1a4028360405161308591815260200190565b60405180910390a3505050565b60015f8051602061439f83398151915255565b5f61243a83836136e4565b5f6130bb838361370a565b15613122576130ea7f00000000000000000000000000000000000000000000000000000000000000008461374c565b1561311a5760405183907fea0f1c470fa813c725756c036120b6688028969f5afbc607918fcd1ff9229435905f90a25b506001610d83565b505f92915050565b5f6131358383613757565b1561312257613143836128b2565b5f0361311a576131737f000000000000000000000000000000000000000000000000000000000000000084613790565b5060405183907f4c9a714f78b79aa08074addab7cbdb196cccdf6d67efbf0b99914db8a6b08e73905f90a2506001610d83565b5f807ff0c57e16840df040f15088dc2f81fe391c3923bec73e23a9662efc9c229c6a00610d83565b6131d661379b565b6131de6137c0565b565b6131e861379b565b6001600160a01b03811661320f5760405163d92e233d60e01b815260040160405180910390fd5b6132195f826130b0565b5050565b61322561379b565b6001600160a01b038616158061324257506001600160a01b038516155b8061325457506001600160a01b038416155b156132725760405163d92e233d60e01b815260040160405180910390fd5b5f61327b612ee8565b80546001600160a01b03199081166001600160a01b03998a161782556001820180548216988a16989098179097556002810180548816968916969096179095555060038401805486169387169390931790925560048301805490941694169390931790915560060155565b6132ee61379b565b6001600160a01b0381166133155760405163d92e233d60e01b815260040160405180910390fd5b7f000000000000000000000000000000000000000000000000000000000000000080546001600160a01b0319166001600160a01b0392909216919091179055565b5f818152600183016020526040812054151561243a565b6001600160a01b0381165f908152600183016020526040812054151561243a565b5f61243a836001600160a01b0384166137d0565b5f73eeeeeeeeeeeeeeeeeeeeeeeeeeeeeeeeeeeeeeed196001600160a01b038416016133d957506001600160a01b03811631610d83565b6040516370a0823160e01b81526001600160a01b0383811660048301528416906370a0823190602401602060405180830381865afa15801561341d573d5f803e3d5ffd5b505050506040513d601f19601f820116820180604052508101906134419190613fd2565b9050610d83565b60605f61243a8361381c565b60605f80846001600160a01b0316846040516134709190614314565b5f60405180830381855af49150503d805f81146134a8576040519150601f19603f3d011682016040523d82523d5f602084013e6134ad565b606091505b50915091506134bd858383613875565b95945050505050565b73eeeeeeeeeeeeeeeeeeeeeeeeeeeeeeeeeeeeeeed196001600160a01b038416016134f55761126982826138d1565b6112696001600160a01b038416838361395d565b61351161158e565b604051631fd469b360e31b81526001600160a01b038581166004830152848116602483015260448201849052919091169063fea34d98906064015f604051808303815f87803b158015613562575f80fd5b505af1158015613574573d5f803e3d5ffd5b505050506135838284836134c6565b826001600160a01b0316826001600160a01b03167f7ceb394e9ff104c51756ee69383bfb2d366c02d663c194870b8001bad9021aef8360405161308591815260200190565b6135d28282611e72565b6132195760405163e2517d3f60e01b81526001600160a01b0382166004820152602481018390526044016111e3565b5f81815260018301602052604081205480156136db575f6136236001836142e7565b85549091505f90613636906001906142e7565b9050808214613695575f865f01828154811061365457613654614217565b905f5260205f200154905080875f01848154811061367457613674614217565b5f918252602080832090910192909255918252600188019052604090208390555b85548690806136a6576136a661432a565b600190038181905f5260205f20015f90559055856001015f8681526020019081526020015f205f905560019350505050610d83565b5f915050610d83565b5f825f0182815481106136f9576136f9614217565b905f5260205f200154905092915050565b5f5f8051602061435f8339815191528161372485856139af565b9050801561135f575f858152602083905260409020613743908561338e565b50949350505050565b5f61243a83836137d0565b5f5f8051602061435f833981519152816137718585613a47565b9050801561135f575f8581526020839052604090206137439085612f0c565b5f61243a8383613601565b6137a3613ac0565b6131de57604051631afcd79f60e31b815260040160405180910390fd5b6137c861379b565b6131de613ad9565b5f81815260018301602052604081205461381557508154600181810184555f848152602080822090930184905584548482528286019093526040902091909155610d83565b505f610d83565b6060815f0180548060200260200160405190810160405280929190818152602001828054801561386957602002820191905f5260205f20905b815481526020019060010190808311613855575b50505050509050919050565b60608261388a5761388582613ae1565b61243a565b81511580156138a157506001600160a01b0384163b155b156138ca57604051639996b31560e01b81526001600160a01b03851660048201526024016111e3565b5092915050565b804710156138fb5760405163cf47918160e01b8152476004820152602481018290526044016111e3565b5f80836001600160a01b0316836040515f6040518083038185875af1925050503d805f8114613945576040519150601f19603f3d011682016040523d82523d5f602084013e61394a565b606091505b509150915081610ffc57610ffc81613ae1565b604080516001600160a01b038416602482015260448082018490528251808303909101815260649091019091526020810180516001600160e01b031663a9059cbb60e01b179052611269908490613b0a565b5f5f8051602061437f8339815191526139c88484611e72565b6136db575f848152602082815260408083206001600160a01b03871684529091529020805460ff191660011790556139fd3390565b6001600160a01b0316836001600160a01b0316857f2f8788117e7eff1d82e926ec794901d17c78024a50270940304540a733656f0d60405160405180910390a46001915050610d83565b5f5f8051602061437f833981519152613a608484611e72565b156136db575f848152602082815260408083206001600160a01b0387168085529252808320805460ff1916905551339287917ff6391f5c32d9c69d2a47ea670b442974b53935d1edc7fd64eb21e047a839171b9190a46001915050610d83565b5f613ac96131a6565b54600160401b900460ff16919050565b61309261379b565b805115613af15780518082602001fd5b60405163d6bda27560e01b815260040160405180910390fd5b5f8060205f8451602086015f885af180613b29576040513d5f823e3d81fd5b50505f513d91508115613b40578060011415613b4d565b6001600160a01b0384163b155b15610ffc57604051635274afe760e01b81526001600160a01b03851660048201526024016111e3565b5f60208284031215613b86575f80fd5b81356001600160e01b03198116811461243a575f80fd5b6001600160a01b0381168114612ee5575f80fd5b5f60208284031215613bc1575f80fd5b813561243a81613b9d565b5f8083601f840112613bdc575f80fd5b50813567ffffffffffffffff811115613bf3575f80fd5b602083019150836020828501011115613c0a575f80fd5b9250929050565b5f805f805f60808688031215613c25575f80fd5b8535613c3081613b9d565b94506020860135613c4081613b9d565b935060408601359250606086013567ffffffffffffffff811115613c62575f80fd5b613c6e88828901613bcc565b969995985093965092949392505050565b5f805f60608486031215613c91575f80fd5b8335613c9c81613b9d565b92506020840135613cac81613b9d565b929592945050506040919091013590565b5f60208284031215613ccd575f80fd5b5035919050565b5f8060408385031215613ce5575f80fd5b823591506020830135613cf781613b9d565b809150509250929050565b5f8060208385031215613d13575f80fd5b823567ffffffffffffffff811115613d29575f80fd5b613d3585828601613bcc565b90969095509350505050565b5f805f60608486031215613d53575f80fd5b833592506020840135613d6581613b9d565b91506040840135613d7581613b9d565b809150509250925092565b8015158114612ee5575f80fd5b5f805f805f8060a08789031215613da2575f80fd5b863595506020870135613db481613d80565b94506040870135613dc481613b9d565b93506060870135613dd481613b9d565b9250608087013567ffffffffffffffff811115613def575f80fd5b613dfb89828a01613bcc565b979a9699509497509295939492505050565b5f8060408385031215613e1e575f80fd5b50508035926020909101359150565b803563ffffffff81168114613e40575f80fd5b919050565b5f805f8060808587031215613e58575f80fd5b8435613e6381613b9d565b935060208501356001600160e01b0381168114613e7e575f80fd5b9250613e8c60408601613e2d565b9150613e9a60608601613e2d565b905092959194509250565b602080825282518282018190525f9190848201906040850190845b81811015613ee55783516001600160a01b031683529284019291840191600101613ec0565b50909695505050505050565b5f8060408385031215613f02575f80fd5b8235613f0d81613b9d565b946020939093013593505050565b5f8060408385031215613f2c575f80fd5b8235613f3781613b9d565b91506020830135613cf781613b9d565b5f8060408385031215613f58575f80fd5b8235613f6381613b9d565b91506020830135613cf781613d80565b5f60208284031215613f83575f80fd5b815161243a81613d80565b5f60208284031215613f9e575f80fd5b815161243a81613b9d565b634e487b7160e01b5f52601160045260245ffd5b5f81613fcb57613fcb613fa9565b505f190190565b5f60208284031215613fe2575f80fd5b5051919050565b80820180821115610d8357610d83613fa9565b634e487b7160e01b5f52604160045260245ffd5b6040805190810167ffffffffffffffff8111828210171561403357614033613ffc565b60405290565b604051601f8201601f1916810167ffffffffffffffff8111828210171561406257614062613ffc565b604052919050565b5f805f805f805f805f6101208a8c031215614083575f80fd5b61408d8a35613b9d565b8935985061409e60208b0135613b9d565b60208a013597506140b260408b0135613b9d565b60408a013596506140c660608b0135613b9d565b60608a013595506140da60808b0135613b9d565b60808a013594506140ee60a08b0135613b9d565b60a08a0135935061410260c08b0135613b9d565b60c08a0135925060e08a0135915067ffffffffffffffff6101008b01351115614129575f80fd5b8a601f6101008c01358c01011261413e575f80fd5b67ffffffffffffffff6101008b01358b0135111561415e5761415e613ffc565b61417560206101008c01358c013560051b01614039565b6101008b01358b0180358083526020808401939260069290921b909101018d101561419e575f80fd5b60206101008d01358d01015b6101008d01358d01803560061b01602001811015614204576040818f0312156141d1575f80fd5b6141d9614010565b813581526141ea6020830135613b9d565b6020828101358282015290845292909201916040016141aa565b5080925050509295985092959850929598565b634e487b7160e01b5f52603260045260245ffd5b81835281816020850137505f828201602090810191909152601f909101601f19169091010190565b602081525f61135f60208301848661422b565b83815260018060a01b0383166020820152606060408201525f82518060608401528060208501608085015e5f608082850101526080601f19601f830116840101915050949350505050565b6001600160a01b038581168252841660208201526060604082018190525f906142dd908301848661422b565b9695505050505050565b81810381811115610d8357610d83613fa9565b5f600160ff1b820161430e5761430e613fa9565b505f0390565b5f82518060208501845e5f920191825250919050565b634e487b7160e01b5f52603160045260245ffdfe627f9e4ac2dadb64d045e7e6333c09f39ed34e0e066957955d0052b46d2e83e8c1f6fe24621ce81ec5827caf0253cadb74709b061630e6b55e8237170593200002dd7bc7dec4dceedda775e58dd541e08a116c6c53815c0bd028192f7b6268009b779b17422d0df92223018b32b4d1fa46e071723d6817e2486d003becc55f00a2646970667358221220a4abd3b773c3b2209af423d73616a077f3c6a84e29bd5fc241febf1346ddba7b64736f6c63430008190033",
        "linkReferences": {}
    },
    "methodIdentifiers": {
        "CREATE_QUEUE_ROLE()": "b1a62e3b",
        "CREATE_SUBVAULT_ROLE()": "adf167ce",
        "DEFAULT_ADMIN_ROLE()": "a217fddf",
        "DISCONNECT_SUBVAULT_ROLE()": "663ade06",
        "PULL_LIQUIDITY_ROLE()": "3314bbb9",
        "PUSH_LIQUIDITY_ROLE()": "13cb953a",
        "RECONNECT_SUBVAULT_ROLE()": "58b7bf30",
        "REMOVE_QUEUE_ROLE()": "651ae6c7",
        "SET_HOOK_ROLE()": "f68e7304",
        "SET_QUEUE_LIMIT_ROLE()": "e6ed8d74",
        "SET_QUEUE_STATUS_ROLE()": "d8b07a65",
        "assetAt(uint256)": "aa9239f5",
        "callHook(uint256)": "d27d2503",
        "claimShares(address)": "f31cb0c6",
        "claimableSharesOf(address)": "1c14724f",
        "createQueue(uint256,bool,address,address,bytes)": "850260ff",
        "createSubvault(uint256,address,address)": "4b812c1f",
        "defaultDepositHook()": "5636d549",
        "defaultRedeemHook()": "4015b2a8",
        "depositQueueFactory()": "52fd4254",
        "disconnectSubvault(address)": "2f8ecb50",
        "feeManager()": "d0fb0203",
        "getAssetCount()": "a0aead4d",
        "getHook(address)": "3d4304e6",
        "getLiquidAssets()": "5d66b00a",
        "getQueueCount()": "3471b337",
        "getQueueCount(address)": "52278ab7",
        "getRoleAdmin(bytes32)": "248a9ca3",
        "getRoleMember(bytes32,uint256)": "9010d07c",
        "getRoleMemberCount(bytes32)": "ca15c873",
        "getRoleMembers(bytes32)": "a3246ad3",
        "getStorageAt(bytes32)": "1ca0027a",
        "grantRole(bytes32,address)": "2f2ff15d",
        "handleReport(address,uint224,uint32,uint32)": "974d942e",
        "hasAsset(address)": "a567fb47",
        "hasQueue(address)": "4b694b96",
        "hasRole(bytes32,address)": "91d14854",
        "hasSubvault(address)": "8333903b",
        "hasSupportedRole(bytes32)": "4a46b4cf",
        "hookPullAssets(address,address,uint256)": "b014f445",
        "hookPushAssets(address,address,uint256)": "e6c8cd9f",
        "initialize(bytes)": "439fab91",
        "isDepositQueue(address)": "92e6ece5",
        "isPausedQueue(address)": "8679ed7c",
        "onERC721Received(address,address,uint256,bytes)": "150b7a02",
        "oracle()": "7dc0d1d0",
        "pullAssets(address,address,uint256)": "17cbc8b1",
        "pushAssets(address,address,uint256)": "e984f353",
        "queueAt(address,uint256)": "b91c935c",
        "queueLimit()": "6b8b1ccd",
        "reconnectSubvault(address)": "b2b71a27",
        "redeemQueueFactory()": "9662d429",
        "removeQueue(address)": "040bee6d",
        "renounceRole(bytes32,address)": "36568abe",
        "revokeRole(bytes32,address)": "d547741f",
        "riskManager()": "47842663",
        "setCustomHook(address,address)": "e4f8d0e6",
        "setDefaultDepositHook(address)": "37048816",
        "setDefaultRedeemHook(address)": "ec0f5800",
        "setQueueLimit(uint256)": "ecef475f",
        "setQueueStatus(address,bool)": "eb56d52d",
        "shareManager()": "5c60173d",
        "subvaultAt(uint256)": "9bd0911b",
        "subvaultFactory()": "9ff2cb9d",
        "subvaults()": "a35f620a",
        "supportedRoleAt(uint256)": "a2cb31e5",
        "supportedRoles()": "419a2053",
        "supportsInterface(bytes4)": "01ffc9a7",
        "verifierFactory()": "387db78f"
    },
    "id": 171
}